{
	"经典用例/15.struct.sol": {
		"structtt": {
			"abi": [
				{
					"inputs": [
						{
							"internalType": "string",
							"name": "_text",
							"type": "string"
						}
					],
					"name": "create",
					"outputs": [],
					"stateMutability": "nonpayable",
					"type": "function"
				},
				{
					"inputs": [
						{
							"internalType": "uint256",
							"name": "",
							"type": "uint256"
						}
					],
					"name": "todolist",
					"outputs": [
						{
							"internalType": "string",
							"name": "text",
							"type": "string"
						},
						{
							"internalType": "bool",
							"name": "completed",
							"type": "bool"
						}
					],
					"stateMutability": "view",
					"type": "function"
				},
				{
					"inputs": [
						{
							"internalType": "string",
							"name": "_text",
							"type": "string"
						}
					],
					"name": "updateCompleted",
					"outputs": [],
					"stateMutability": "nonpayable",
					"type": "function"
				},
				{
					"inputs": [
						{
							"internalType": "uint256",
							"name": "_index",
							"type": "uint256"
						},
						{
							"internalType": "string",
							"name": "_text",
							"type": "string"
						}
					],
					"name": "updateText",
					"outputs": [],
					"stateMutability": "nonpayable",
					"type": "function"
				}
			],
			"devdoc": {
				"kind": "dev",
				"methods": {},
				"version": 1
			},
			"evm": {
				"assembly": "    /* \"\\xe7\\xbb\\x8f\\xe5\\x85\\xb8\\xe7\\x94\\xa8\\xe4\\xbe\\x8b/15.struct.sol\":60:707  contract structtt {... */\n  mstore(0x40, 0x80)\n  callvalue\n  dup1\n  iszero\n  tag_1\n  jumpi\n  0x00\n  dup1\n  revert\ntag_1:\n  pop\n  dataSize(sub_0)\n  dup1\n  dataOffset(sub_0)\n  0x00\n  codecopy\n  0x00\n  return\nstop\n\nsub_0: assembly {\n        /* \"\\xe7\\xbb\\x8f\\xe5\\x85\\xb8\\xe7\\x94\\xa8\\xe4\\xbe\\x8b/15.struct.sol\":60:707  contract structtt {... */\n      mstore(0x40, 0x80)\n      callvalue\n      dup1\n      iszero\n      tag_1\n      jumpi\n      0x00\n      dup1\n      revert\n    tag_1:\n      pop\n      jumpi(tag_2, lt(calldatasize, 0x04))\n      shr(0xe0, calldataload(0x00))\n      dup1\n      0x0f8fa326\n      eq\n      tag_3\n      jumpi\n      dup1\n      0x8e326993\n      eq\n      tag_4\n      jumpi\n      dup1\n      0xb6a46b3b\n      eq\n      tag_5\n      jumpi\n      dup1\n      0xcd111614\n      eq\n      tag_6\n      jumpi\n    tag_2:\n      0x00\n      dup1\n      revert\n        /* \"\\xe7\\xbb\\x8f\\xe5\\x85\\xb8\\xe7\\x94\\xa8\\xe4\\xbe\\x8b/15.struct.sol\":157:179  Todo[] public todolist */\n    tag_3:\n      tag_7\n      0x04\n      dup1\n      calldatasize\n      sub\n      dup2\n      add\n      swap1\n      tag_8\n      swap2\n      swap1\n      tag_9\n      jump\t// in\n    tag_8:\n      tag_10\n      jump\t// in\n    tag_7:\n      mload(0x40)\n      tag_11\n      swap3\n      swap2\n      swap1\n      tag_12\n      jump\t// in\n    tag_11:\n      mload(0x40)\n      dup1\n      swap2\n      sub\n      swap1\n      return\n        /* \"\\xe7\\xbb\\x8f\\xe5\\x85\\xb8\\xe7\\x94\\xa8\\xe4\\xbe\\x8b/15.struct.sol\":409:698  function updateCompleted(string calldata _text) public{... */\n    tag_4:\n      tag_13\n      0x04\n      dup1\n      calldatasize\n      sub\n      dup2\n      add\n      swap1\n      tag_14\n      swap2\n      swap1\n      tag_15\n      jump\t// in\n    tag_14:\n      tag_16\n      jump\t// in\n    tag_13:\n      stop\n        /* \"\\xe7\\xbb\\x8f\\xe5\\x85\\xb8\\xe7\\x94\\xa8\\xe4\\xbe\\x8b/15.struct.sol\":187:284  function create(string calldata _text) public {... */\n    tag_5:\n      tag_17\n      0x04\n      dup1\n      calldatasize\n      sub\n      dup2\n      add\n      swap1\n      tag_18\n      swap2\n      swap1\n      tag_15\n      jump\t// in\n    tag_18:\n      tag_19\n      jump\t// in\n    tag_17:\n      stop\n        /* \"\\xe7\\xbb\\x8f\\xe5\\x85\\xb8\\xe7\\x94\\xa8\\xe4\\xbe\\x8b/15.struct.sol\":290:403  function updateText(uint256 _index,string calldata _text) public {... */\n    tag_6:\n      tag_20\n      0x04\n      dup1\n      calldatasize\n      sub\n      dup2\n      add\n      swap1\n      tag_21\n      swap2\n      swap1\n      tag_22\n      jump\t// in\n    tag_21:\n      tag_23\n      jump\t// in\n    tag_20:\n      stop\n        /* \"\\xe7\\xbb\\x8f\\xe5\\x85\\xb8\\xe7\\x94\\xa8\\xe4\\xbe\\x8b/15.struct.sol\":157:179  Todo[] public todolist */\n    tag_10:\n      0x00\n      dup2\n      dup2\n      sload\n      dup2\n      lt\n      tag_24\n      jumpi\n      0x00\n      dup1\n      revert\n    tag_24:\n      swap1\n      0x00\n      mstore\n      keccak256(0x00, 0x20)\n      swap1\n      0x02\n      mul\n      add\n      0x00\n      swap2\n      pop\n      swap1\n      pop\n      dup1\n      0x00\n      add\n      dup1\n      sload\n      tag_26\n      swap1\n      tag_27\n      jump\t// in\n    tag_26:\n      dup1\n      0x1f\n      add\n      0x20\n      dup1\n      swap2\n      div\n      mul\n      0x20\n      add\n      mload(0x40)\n      swap1\n      dup2\n      add\n      0x40\n      mstore\n      dup1\n      swap3\n      swap2\n      swap1\n      dup2\n      dup2\n      mstore\n      0x20\n      add\n      dup3\n      dup1\n      sload\n      tag_28\n      swap1\n      tag_27\n      jump\t// in\n    tag_28:\n      dup1\n      iszero\n      tag_29\n      jumpi\n      dup1\n      0x1f\n      lt\n      tag_30\n      jumpi\n      0x0100\n      dup1\n      dup4\n      sload\n      div\n      mul\n      dup4\n      mstore\n      swap2\n      0x20\n      add\n      swap2\n      jump(tag_29)\n    tag_30:\n      dup3\n      add\n      swap2\n      swap1\n      0x00\n      mstore\n      keccak256(0x00, 0x20)\n      swap1\n    tag_31:\n      dup2\n      sload\n      dup2\n      mstore\n      swap1\n      0x01\n      add\n      swap1\n      0x20\n      add\n      dup1\n      dup4\n      gt\n      tag_31\n      jumpi\n      dup3\n      swap1\n      sub\n      0x1f\n      and\n      dup3\n      add\n      swap2\n    tag_29:\n      pop\n      pop\n      pop\n      pop\n      pop\n      swap1\n      dup1\n      0x01\n      add\n      0x00\n      swap1\n      sload\n      swap1\n      0x0100\n      exp\n      swap1\n      div\n      0xff\n      and\n      swap1\n      pop\n      dup3\n      jump\t// out\n        /* \"\\xe7\\xbb\\x8f\\xe5\\x85\\xb8\\xe7\\x94\\xa8\\xe4\\xbe\\x8b/15.struct.sol\":409:698  function updateCompleted(string calldata _text) public{... */\n    tag_16:\n        /* \"\\xe7\\xbb\\x8f\\xe5\\x85\\xb8\\xe7\\x94\\xa8\\xe4\\xbe\\x8b/15.struct.sol\":479:488  uint256 i */\n      0x00\n        /* \"\\xe7\\xbb\\x8f\\xe5\\x85\\xb8\\xe7\\x94\\xa8\\xe4\\xbe\\x8b/15.struct.sol\":474:691  for (uint256 i = 0 ;i<todolist.length;i++) {... */\n    tag_33:\n        /* \"\\xe7\\xbb\\x8f\\xe5\\x85\\xb8\\xe7\\x94\\xa8\\xe4\\xbe\\x8b/15.struct.sol\":496:504  todolist */\n      0x00\n        /* \"\\xe7\\xbb\\x8f\\xe5\\x85\\xb8\\xe7\\x94\\xa8\\xe4\\xbe\\x8b/15.struct.sol\":496:511  todolist.length */\n      dup1\n      sload\n      swap1\n      pop\n        /* \"\\xe7\\xbb\\x8f\\xe5\\x85\\xb8\\xe7\\x94\\xa8\\xe4\\xbe\\x8b/15.struct.sol\":494:495  i */\n      dup2\n        /* \"\\xe7\\xbb\\x8f\\xe5\\x85\\xb8\\xe7\\x94\\xa8\\xe4\\xbe\\x8b/15.struct.sol\":494:511  i<todolist.length */\n      lt\n        /* \"\\xe7\\xbb\\x8f\\xe5\\x85\\xb8\\xe7\\x94\\xa8\\xe4\\xbe\\x8b/15.struct.sol\":474:691  for (uint256 i = 0 ;i<todolist.length;i++) {... */\n      iszero\n      tag_34\n      jumpi\n        /* \"\\xe7\\xbb\\x8f\\xe5\\x85\\xb8\\xe7\\x94\\xa8\\xe4\\xbe\\x8b/15.struct.sol\":590:595  _text */\n      dup3\n      dup3\n        /* \"\\xe7\\xbb\\x8f\\xe5\\x85\\xb8\\xe7\\x94\\xa8\\xe4\\xbe\\x8b/15.struct.sol\":573:598  keccak256(bytes((_text))) */\n      mload(0x40)\n      tag_36\n      swap3\n      swap2\n      swap1\n      tag_37\n      jump\t// in\n    tag_36:\n      mload(0x40)\n      dup1\n      swap2\n      sub\n      swap1\n      keccak256\n        /* \"\\xe7\\xbb\\x8f\\xe5\\x85\\xb8\\xe7\\x94\\xa8\\xe4\\xbe\\x8b/15.struct.sol\":551:559  todolist */\n      0x00\n        /* \"\\xe7\\xbb\\x8f\\xe5\\x85\\xb8\\xe7\\x94\\xa8\\xe4\\xbe\\x8b/15.struct.sol\":560:561  i */\n      dup3\n        /* \"\\xe7\\xbb\\x8f\\xe5\\x85\\xb8\\xe7\\x94\\xa8\\xe4\\xbe\\x8b/15.struct.sol\":551:562  todolist[i] */\n      dup2\n      sload\n      dup2\n      lt\n      tag_38\n      jumpi\n      tag_39\n      tag_40\n      jump\t// in\n    tag_39:\n    tag_38:\n      swap1\n      0x00\n      mstore\n      keccak256(0x00, 0x20)\n      swap1\n      0x02\n      mul\n      add\n        /* \"\\xe7\\xbb\\x8f\\xe5\\x85\\xb8\\xe7\\x94\\xa8\\xe4\\xbe\\x8b/15.struct.sol\":551:567  todolist[i].text */\n      0x00\n      add\n        /* \"\\xe7\\xbb\\x8f\\xe5\\x85\\xb8\\xe7\\x94\\xa8\\xe4\\xbe\\x8b/15.struct.sol\":535:569  keccak256(bytes(todolist[i].text)) */\n      mload(0x40)\n      tag_42\n      swap2\n      swap1\n      tag_43\n      jump\t// in\n    tag_42:\n      mload(0x40)\n      dup1\n      swap2\n      sub\n      swap1\n      keccak256\n        /* \"\\xe7\\xbb\\x8f\\xe5\\x85\\xb8\\xe7\\x94\\xa8\\xe4\\xbe\\x8b/15.struct.sol\":535:598  keccak256(bytes(todolist[i].text)) == keccak256(bytes((_text))) */\n      sub\n        /* \"\\xe7\\xbb\\x8f\\xe5\\x85\\xb8\\xe7\\x94\\xa8\\xe4\\xbe\\x8b/15.struct.sol\":532:680  if(keccak256(bytes(todolist[i].text)) == keccak256(bytes((_text)))){... */\n      tag_44\n      jumpi\n        /* \"\\xe7\\xbb\\x8f\\xe5\\x85\\xb8\\xe7\\x94\\xa8\\xe4\\xbe\\x8b/15.struct.sol\":643:651  todolist */\n      0x00\n        /* \"\\xe7\\xbb\\x8f\\xe5\\x85\\xb8\\xe7\\x94\\xa8\\xe4\\xbe\\x8b/15.struct.sol\":652:653  i */\n      dup2\n        /* \"\\xe7\\xbb\\x8f\\xe5\\x85\\xb8\\xe7\\x94\\xa8\\xe4\\xbe\\x8b/15.struct.sol\":643:654  todolist[i] */\n      dup2\n      sload\n      dup2\n      lt\n      tag_45\n      jumpi\n      tag_46\n      tag_40\n      jump\t// in\n    tag_46:\n    tag_45:\n      swap1\n      0x00\n      mstore\n      keccak256(0x00, 0x20)\n      swap1\n      0x02\n      mul\n      add\n        /* \"\\xe7\\xbb\\x8f\\xe5\\x85\\xb8\\xe7\\x94\\xa8\\xe4\\xbe\\x8b/15.struct.sol\":643:664  todolist[i].completed */\n      0x01\n      add\n      0x00\n      swap1\n      sload\n      swap1\n      0x0100\n      exp\n      swap1\n      div\n      0xff\n      and\n        /* \"\\xe7\\xbb\\x8f\\xe5\\x85\\xb8\\xe7\\x94\\xa8\\xe4\\xbe\\x8b/15.struct.sol\":642:664  !todolist[i].completed */\n      iszero\n        /* \"\\xe7\\xbb\\x8f\\xe5\\x85\\xb8\\xe7\\x94\\xa8\\xe4\\xbe\\x8b/15.struct.sol\":618:626  todolist */\n      0x00\n        /* \"\\xe7\\xbb\\x8f\\xe5\\x85\\xb8\\xe7\\x94\\xa8\\xe4\\xbe\\x8b/15.struct.sol\":627:628  i */\n      dup3\n        /* \"\\xe7\\xbb\\x8f\\xe5\\x85\\xb8\\xe7\\x94\\xa8\\xe4\\xbe\\x8b/15.struct.sol\":618:629  todolist[i] */\n      dup2\n      sload\n      dup2\n      lt\n      tag_48\n      jumpi\n      tag_49\n      tag_40\n      jump\t// in\n    tag_49:\n    tag_48:\n      swap1\n      0x00\n      mstore\n      keccak256(0x00, 0x20)\n      swap1\n      0x02\n      mul\n      add\n        /* \"\\xe7\\xbb\\x8f\\xe5\\x85\\xb8\\xe7\\x94\\xa8\\xe4\\xbe\\x8b/15.struct.sol\":618:639  todolist[i].completed */\n      0x01\n      add\n      0x00\n        /* \"\\xe7\\xbb\\x8f\\xe5\\x85\\xb8\\xe7\\x94\\xa8\\xe4\\xbe\\x8b/15.struct.sol\":618:664  todolist[i].completed = !todolist[i].completed */\n      0x0100\n      exp\n      dup2\n      sload\n      dup2\n      0xff\n      mul\n      not\n      and\n      swap1\n      dup4\n      iszero\n      iszero\n      mul\n      or\n      swap1\n      sstore\n      pop\n        /* \"\\xe7\\xbb\\x8f\\xe5\\x85\\xb8\\xe7\\x94\\xa8\\xe4\\xbe\\x8b/15.struct.sol\":532:680  if(keccak256(bytes(todolist[i].text)) == keccak256(bytes((_text)))){... */\n    tag_44:\n        /* \"\\xe7\\xbb\\x8f\\xe5\\x85\\xb8\\xe7\\x94\\xa8\\xe4\\xbe\\x8b/15.struct.sol\":512:515  i++ */\n      dup1\n      dup1\n      0x01\n      add\n      swap2\n      pop\n      pop\n        /* \"\\xe7\\xbb\\x8f\\xe5\\x85\\xb8\\xe7\\x94\\xa8\\xe4\\xbe\\x8b/15.struct.sol\":474:691  for (uint256 i = 0 ;i<todolist.length;i++) {... */\n      jump(tag_33)\n    tag_34:\n      pop\n        /* \"\\xe7\\xbb\\x8f\\xe5\\x85\\xb8\\xe7\\x94\\xa8\\xe4\\xbe\\x8b/15.struct.sol\":409:698  function updateCompleted(string calldata _text) public{... */\n      pop\n      pop\n      jump\t// out\n        /* \"\\xe7\\xbb\\x8f\\xe5\\x85\\xb8\\xe7\\x94\\xa8\\xe4\\xbe\\x8b/15.struct.sol\":187:284  function create(string calldata _text) public {... */\n    tag_19:\n        /* \"\\xe7\\xbb\\x8f\\xe5\\x85\\xb8\\xe7\\x94\\xa8\\xe4\\xbe\\x8b/15.struct.sol\":244:252  todolist */\n      0x00\n        /* \"\\xe7\\xbb\\x8f\\xe5\\x85\\xb8\\xe7\\x94\\xa8\\xe4\\xbe\\x8b/15.struct.sol\":258:275  Todo(_text,false) */\n      mload(0x40)\n      dup1\n      0x40\n      add\n      0x40\n      mstore\n      dup1\n        /* \"\\xe7\\xbb\\x8f\\xe5\\x85\\xb8\\xe7\\x94\\xa8\\xe4\\xbe\\x8b/15.struct.sol\":263:268  _text */\n      dup5\n      dup5\n        /* \"\\xe7\\xbb\\x8f\\xe5\\x85\\xb8\\xe7\\x94\\xa8\\xe4\\xbe\\x8b/15.struct.sol\":258:275  Todo(_text,false) */\n      dup1\n      dup1\n      0x1f\n      add\n      0x20\n      dup1\n      swap2\n      div\n      mul\n      0x20\n      add\n      mload(0x40)\n      swap1\n      dup2\n      add\n      0x40\n      mstore\n      dup1\n      swap4\n      swap3\n      swap2\n      swap1\n      dup2\n      dup2\n      mstore\n      0x20\n      add\n      dup4\n      dup4\n      dup1\n      dup3\n      dup5\n      calldatacopy\n      0x00\n      dup2\n      dup5\n      add\n      mstore\n      not(0x1f)\n      0x1f\n      dup3\n      add\n      and\n      swap1\n      pop\n      dup1\n      dup4\n      add\n      swap3\n      pop\n      pop\n      pop\n      pop\n      pop\n      pop\n      pop\n      dup2\n      mstore\n      0x20\n      add\n        /* \"\\xe7\\xbb\\x8f\\xe5\\x85\\xb8\\xe7\\x94\\xa8\\xe4\\xbe\\x8b/15.struct.sol\":269:274  false */\n      0x00\n        /* \"\\xe7\\xbb\\x8f\\xe5\\x85\\xb8\\xe7\\x94\\xa8\\xe4\\xbe\\x8b/15.struct.sol\":258:275  Todo(_text,false) */\n      iszero\n      iszero\n      dup2\n      mstore\n      pop\n        /* \"\\xe7\\xbb\\x8f\\xe5\\x85\\xb8\\xe7\\x94\\xa8\\xe4\\xbe\\x8b/15.struct.sol\":244:276  todolist.push(Todo(_text,false)) */\n      swap1\n      dup1\n      0x01\n      dup2\n      sload\n      add\n      dup1\n      dup3\n      sstore\n      dup1\n      swap2\n      pop\n      pop\n      0x01\n      swap1\n      sub\n      swap1\n      0x00\n      mstore\n      keccak256(0x00, 0x20)\n      swap1\n      0x02\n      mul\n      add\n      0x00\n      swap1\n      swap2\n      swap1\n      swap2\n      swap1\n      swap2\n      pop\n      0x00\n      dup3\n      add\n      mload\n      dup2\n      0x00\n      add\n      swap1\n      dup2\n      tag_53\n      swap2\n      swap1\n      tag_54\n      jump\t// in\n    tag_53:\n      pop\n      0x20\n      dup3\n      add\n      mload\n      dup2\n      0x01\n      add\n      exp(0x0100, 0x00)\n      dup2\n      sload\n      dup2\n      0xff\n      mul\n      not\n      and\n      swap1\n      dup4\n      iszero\n      iszero\n      mul\n      or\n      swap1\n      sstore\n      pop\n      pop\n      pop\n        /* \"\\xe7\\xbb\\x8f\\xe5\\x85\\xb8\\xe7\\x94\\xa8\\xe4\\xbe\\x8b/15.struct.sol\":187:284  function create(string calldata _text) public {... */\n      pop\n      pop\n      jump\t// out\n        /* \"\\xe7\\xbb\\x8f\\xe5\\x85\\xb8\\xe7\\x94\\xa8\\xe4\\xbe\\x8b/15.struct.sol\":290:403  function updateText(uint256 _index,string calldata _text) public {... */\n    tag_23:\n        /* \"\\xe7\\xbb\\x8f\\xe5\\x85\\xb8\\xe7\\x94\\xa8\\xe4\\xbe\\x8b/15.struct.sol\":390:395  _text */\n      dup2\n      dup2\n        /* \"\\xe7\\xbb\\x8f\\xe5\\x85\\xb8\\xe7\\x94\\xa8\\xe4\\xbe\\x8b/15.struct.sol\":366:374  todolist */\n      0x00\n        /* \"\\xe7\\xbb\\x8f\\xe5\\x85\\xb8\\xe7\\x94\\xa8\\xe4\\xbe\\x8b/15.struct.sol\":375:381  _index */\n      dup6\n        /* \"\\xe7\\xbb\\x8f\\xe5\\x85\\xb8\\xe7\\x94\\xa8\\xe4\\xbe\\x8b/15.struct.sol\":366:382  todolist[_index] */\n      dup2\n      sload\n      dup2\n      lt\n      tag_56\n      jumpi\n      tag_57\n      tag_40\n      jump\t// in\n    tag_57:\n    tag_56:\n      swap1\n      0x00\n      mstore\n      keccak256(0x00, 0x20)\n      swap1\n      0x02\n      mul\n      add\n        /* \"\\xe7\\xbb\\x8f\\xe5\\x85\\xb8\\xe7\\x94\\xa8\\xe4\\xbe\\x8b/15.struct.sol\":366:387  todolist[_index].text */\n      0x00\n      add\n        /* \"\\xe7\\xbb\\x8f\\xe5\\x85\\xb8\\xe7\\x94\\xa8\\xe4\\xbe\\x8b/15.struct.sol\":366:395  todolist[_index].text = _text */\n      swap2\n      dup3\n      tag_59\n      swap3\n      swap2\n      swap1\n      tag_60\n      jump\t// in\n    tag_59:\n      pop\n        /* \"\\xe7\\xbb\\x8f\\xe5\\x85\\xb8\\xe7\\x94\\xa8\\xe4\\xbe\\x8b/15.struct.sol\":290:403  function updateText(uint256 _index,string calldata _text) public {... */\n      pop\n      pop\n      pop\n      jump\t// out\n        /* \"#utility.yul\":88:205   */\n    tag_62:\n        /* \"#utility.yul\":197:198   */\n      0x00\n        /* \"#utility.yul\":194:195   */\n      dup1\n        /* \"#utility.yul\":187:199   */\n      revert\n        /* \"#utility.yul\":211:328   */\n    tag_63:\n        /* \"#utility.yul\":320:321   */\n      0x00\n        /* \"#utility.yul\":317:318   */\n      dup1\n        /* \"#utility.yul\":310:322   */\n      revert\n        /* \"#utility.yul\":334:411   */\n    tag_64:\n        /* \"#utility.yul\":371:378   */\n      0x00\n        /* \"#utility.yul\":400:405   */\n      dup2\n        /* \"#utility.yul\":389:405   */\n      swap1\n      pop\n        /* \"#utility.yul\":334:411   */\n      swap2\n      swap1\n      pop\n      jump\t// out\n        /* \"#utility.yul\":417:539   */\n    tag_65:\n        /* \"#utility.yul\":490:514   */\n      tag_107\n        /* \"#utility.yul\":508:513   */\n      dup2\n        /* \"#utility.yul\":490:514   */\n      tag_64\n      jump\t// in\n    tag_107:\n        /* \"#utility.yul\":483:488   */\n      dup2\n        /* \"#utility.yul\":480:515   */\n      eq\n        /* \"#utility.yul\":470:533   */\n      tag_108\n      jumpi\n        /* \"#utility.yul\":529:530   */\n      0x00\n        /* \"#utility.yul\":526:527   */\n      dup1\n        /* \"#utility.yul\":519:531   */\n      revert\n        /* \"#utility.yul\":470:533   */\n    tag_108:\n        /* \"#utility.yul\":417:539   */\n      pop\n      jump\t// out\n        /* \"#utility.yul\":545:684   */\n    tag_66:\n        /* \"#utility.yul\":591:596   */\n      0x00\n        /* \"#utility.yul\":629:635   */\n      dup2\n        /* \"#utility.yul\":616:636   */\n      calldataload\n        /* \"#utility.yul\":607:636   */\n      swap1\n      pop\n        /* \"#utility.yul\":645:678   */\n      tag_110\n        /* \"#utility.yul\":672:677   */\n      dup2\n        /* \"#utility.yul\":645:678   */\n      tag_65\n      jump\t// in\n    tag_110:\n        /* \"#utility.yul\":545:684   */\n      swap3\n      swap2\n      pop\n      pop\n      jump\t// out\n        /* \"#utility.yul\":690:1019   */\n    tag_9:\n        /* \"#utility.yul\":749:755   */\n      0x00\n        /* \"#utility.yul\":798:800   */\n      0x20\n        /* \"#utility.yul\":786:795   */\n      dup3\n        /* \"#utility.yul\":777:784   */\n      dup5\n        /* \"#utility.yul\":773:796   */\n      sub\n        /* \"#utility.yul\":769:801   */\n      slt\n        /* \"#utility.yul\":766:885   */\n      iszero\n      tag_112\n      jumpi\n        /* \"#utility.yul\":804:883   */\n      tag_113\n      tag_62\n      jump\t// in\n    tag_113:\n        /* \"#utility.yul\":766:885   */\n    tag_112:\n        /* \"#utility.yul\":924:925   */\n      0x00\n        /* \"#utility.yul\":949:1002   */\n      tag_114\n        /* \"#utility.yul\":994:1001   */\n      dup5\n        /* \"#utility.yul\":985:991   */\n      dup3\n        /* \"#utility.yul\":974:983   */\n      dup6\n        /* \"#utility.yul\":970:992   */\n      add\n        /* \"#utility.yul\":949:1002   */\n      tag_66\n      jump\t// in\n    tag_114:\n        /* \"#utility.yul\":939:1002   */\n      swap2\n      pop\n        /* \"#utility.yul\":895:1012   */\n      pop\n        /* \"#utility.yul\":690:1019   */\n      swap3\n      swap2\n      pop\n      pop\n      jump\t// out\n        /* \"#utility.yul\":1025:1124   */\n    tag_67:\n        /* \"#utility.yul\":1077:1083   */\n      0x00\n        /* \"#utility.yul\":1111:1116   */\n      dup2\n        /* \"#utility.yul\":1105:1117   */\n      mload\n        /* \"#utility.yul\":1095:1117   */\n      swap1\n      pop\n        /* \"#utility.yul\":1025:1124   */\n      swap2\n      swap1\n      pop\n      jump\t// out\n        /* \"#utility.yul\":1130:1299   */\n    tag_68:\n        /* \"#utility.yul\":1214:1225   */\n      0x00\n        /* \"#utility.yul\":1248:1254   */\n      dup3\n        /* \"#utility.yul\":1243:1246   */\n      dup3\n        /* \"#utility.yul\":1236:1255   */\n      mstore\n        /* \"#utility.yul\":1288:1292   */\n      0x20\n        /* \"#utility.yul\":1283:1286   */\n      dup3\n        /* \"#utility.yul\":1279:1293   */\n      add\n        /* \"#utility.yul\":1264:1293   */\n      swap1\n      pop\n        /* \"#utility.yul\":1130:1299   */\n      swap3\n      swap2\n      pop\n      pop\n      jump\t// out\n        /* \"#utility.yul\":1305:1444   */\n    tag_69:\n        /* \"#utility.yul\":1394:1400   */\n      dup3\n        /* \"#utility.yul\":1389:1392   */\n      dup2\n        /* \"#utility.yul\":1384:1387   */\n      dup4\n        /* \"#utility.yul\":1378:1401   */\n      mcopy\n        /* \"#utility.yul\":1435:1436   */\n      0x00\n        /* \"#utility.yul\":1426:1432   */\n      dup4\n        /* \"#utility.yul\":1421:1424   */\n      dup4\n        /* \"#utility.yul\":1417:1433   */\n      add\n        /* \"#utility.yul\":1410:1437   */\n      mstore\n        /* \"#utility.yul\":1305:1444   */\n      pop\n      pop\n      pop\n      jump\t// out\n        /* \"#utility.yul\":1450:1552   */\n    tag_70:\n        /* \"#utility.yul\":1491:1497   */\n      0x00\n        /* \"#utility.yul\":1542:1544   */\n      0x1f\n        /* \"#utility.yul\":1538:1545   */\n      not\n        /* \"#utility.yul\":1533:1535   */\n      0x1f\n        /* \"#utility.yul\":1526:1531   */\n      dup4\n        /* \"#utility.yul\":1522:1536   */\n      add\n        /* \"#utility.yul\":1518:1546   */\n      and\n        /* \"#utility.yul\":1508:1546   */\n      swap1\n      pop\n        /* \"#utility.yul\":1450:1552   */\n      swap2\n      swap1\n      pop\n      jump\t// out\n        /* \"#utility.yul\":1558:1935   */\n    tag_71:\n        /* \"#utility.yul\":1646:1649   */\n      0x00\n        /* \"#utility.yul\":1674:1713   */\n      tag_120\n        /* \"#utility.yul\":1707:1712   */\n      dup3\n        /* \"#utility.yul\":1674:1713   */\n      tag_67\n      jump\t// in\n    tag_120:\n        /* \"#utility.yul\":1729:1800   */\n      tag_121\n        /* \"#utility.yul\":1793:1799   */\n      dup2\n        /* \"#utility.yul\":1788:1791   */\n      dup6\n        /* \"#utility.yul\":1729:1800   */\n      tag_68\n      jump\t// in\n    tag_121:\n        /* \"#utility.yul\":1722:1800   */\n      swap4\n      pop\n        /* \"#utility.yul\":1809:1874   */\n      tag_122\n        /* \"#utility.yul\":1867:1873   */\n      dup2\n        /* \"#utility.yul\":1862:1865   */\n      dup6\n        /* \"#utility.yul\":1855:1859   */\n      0x20\n        /* \"#utility.yul\":1848:1853   */\n      dup7\n        /* \"#utility.yul\":1844:1860   */\n      add\n        /* \"#utility.yul\":1809:1874   */\n      tag_69\n      jump\t// in\n    tag_122:\n        /* \"#utility.yul\":1899:1928   */\n      tag_123\n        /* \"#utility.yul\":1921:1927   */\n      dup2\n        /* \"#utility.yul\":1899:1928   */\n      tag_70\n      jump\t// in\n    tag_123:\n        /* \"#utility.yul\":1894:1897   */\n      dup5\n        /* \"#utility.yul\":1890:1929   */\n      add\n        /* \"#utility.yul\":1883:1929   */\n      swap2\n      pop\n        /* \"#utility.yul\":1650:1935   */\n      pop\n        /* \"#utility.yul\":1558:1935   */\n      swap3\n      swap2\n      pop\n      pop\n      jump\t// out\n        /* \"#utility.yul\":1941:2031   */\n    tag_72:\n        /* \"#utility.yul\":1975:1982   */\n      0x00\n        /* \"#utility.yul\":2018:2023   */\n      dup2\n        /* \"#utility.yul\":2011:2024   */\n      iszero\n        /* \"#utility.yul\":2004:2025   */\n      iszero\n        /* \"#utility.yul\":1993:2025   */\n      swap1\n      pop\n        /* \"#utility.yul\":1941:2031   */\n      swap2\n      swap1\n      pop\n      jump\t// out\n        /* \"#utility.yul\":2037:2146   */\n    tag_73:\n        /* \"#utility.yul\":2118:2139   */\n      tag_126\n        /* \"#utility.yul\":2133:2138   */\n      dup2\n        /* \"#utility.yul\":2118:2139   */\n      tag_72\n      jump\t// in\n    tag_126:\n        /* \"#utility.yul\":2113:2116   */\n      dup3\n        /* \"#utility.yul\":2106:2140   */\n      mstore\n        /* \"#utility.yul\":2037:2146   */\n      pop\n      pop\n      jump\t// out\n        /* \"#utility.yul\":2152:2563   */\n    tag_12:\n        /* \"#utility.yul\":2287:2291   */\n      0x00\n        /* \"#utility.yul\":2325:2327   */\n      0x40\n        /* \"#utility.yul\":2314:2323   */\n      dup3\n        /* \"#utility.yul\":2310:2328   */\n      add\n        /* \"#utility.yul\":2302:2328   */\n      swap1\n      pop\n        /* \"#utility.yul\":2374:2383   */\n      dup2\n        /* \"#utility.yul\":2368:2372   */\n      dup2\n        /* \"#utility.yul\":2364:2384   */\n      sub\n        /* \"#utility.yul\":2360:2361   */\n      0x00\n        /* \"#utility.yul\":2349:2358   */\n      dup4\n        /* \"#utility.yul\":2345:2362   */\n      add\n        /* \"#utility.yul\":2338:2385   */\n      mstore\n        /* \"#utility.yul\":2402:2480   */\n      tag_128\n        /* \"#utility.yul\":2475:2479   */\n      dup2\n        /* \"#utility.yul\":2466:2472   */\n      dup6\n        /* \"#utility.yul\":2402:2480   */\n      tag_71\n      jump\t// in\n    tag_128:\n        /* \"#utility.yul\":2394:2480   */\n      swap1\n      pop\n        /* \"#utility.yul\":2490:2556   */\n      tag_129\n        /* \"#utility.yul\":2552:2554   */\n      0x20\n        /* \"#utility.yul\":2541:2550   */\n      dup4\n        /* \"#utility.yul\":2537:2555   */\n      add\n        /* \"#utility.yul\":2528:2534   */\n      dup5\n        /* \"#utility.yul\":2490:2556   */\n      tag_73\n      jump\t// in\n    tag_129:\n        /* \"#utility.yul\":2152:2563   */\n      swap4\n      swap3\n      pop\n      pop\n      pop\n      jump\t// out\n        /* \"#utility.yul\":2569:2686   */\n    tag_74:\n        /* \"#utility.yul\":2678:2679   */\n      0x00\n        /* \"#utility.yul\":2675:2676   */\n      dup1\n        /* \"#utility.yul\":2668:2680   */\n      revert\n        /* \"#utility.yul\":2692:2809   */\n    tag_75:\n        /* \"#utility.yul\":2801:2802   */\n      0x00\n        /* \"#utility.yul\":2798:2799   */\n      dup1\n        /* \"#utility.yul\":2791:2803   */\n      revert\n        /* \"#utility.yul\":2815:2932   */\n    tag_76:\n        /* \"#utility.yul\":2924:2925   */\n      0x00\n        /* \"#utility.yul\":2921:2922   */\n      dup1\n        /* \"#utility.yul\":2914:2926   */\n      revert\n        /* \"#utility.yul\":2952:3505   */\n    tag_77:\n        /* \"#utility.yul\":3010:3018   */\n      0x00\n        /* \"#utility.yul\":3020:3026   */\n      dup1\n        /* \"#utility.yul\":3070:3073   */\n      dup4\n        /* \"#utility.yul\":3063:3067   */\n      0x1f\n        /* \"#utility.yul\":3055:3061   */\n      dup5\n        /* \"#utility.yul\":3051:3068   */\n      add\n        /* \"#utility.yul\":3047:3074   */\n      slt\n        /* \"#utility.yul\":3037:3159   */\n      tag_134\n      jumpi\n        /* \"#utility.yul\":3078:3157   */\n      tag_135\n      tag_74\n      jump\t// in\n    tag_135:\n        /* \"#utility.yul\":3037:3159   */\n    tag_134:\n        /* \"#utility.yul\":3191:3197   */\n      dup3\n        /* \"#utility.yul\":3178:3198   */\n      calldataload\n        /* \"#utility.yul\":3168:3198   */\n      swap1\n      pop\n        /* \"#utility.yul\":3221:3239   */\n      0xffffffffffffffff\n        /* \"#utility.yul\":3213:3219   */\n      dup2\n        /* \"#utility.yul\":3210:3240   */\n      gt\n        /* \"#utility.yul\":3207:3324   */\n      iszero\n      tag_136\n      jumpi\n        /* \"#utility.yul\":3243:3322   */\n      tag_137\n      tag_75\n      jump\t// in\n    tag_137:\n        /* \"#utility.yul\":3207:3324   */\n    tag_136:\n        /* \"#utility.yul\":3357:3361   */\n      0x20\n        /* \"#utility.yul\":3349:3355   */\n      dup4\n        /* \"#utility.yul\":3345:3362   */\n      add\n        /* \"#utility.yul\":3333:3362   */\n      swap2\n      pop\n        /* \"#utility.yul\":3411:3414   */\n      dup4\n        /* \"#utility.yul\":3403:3407   */\n      0x01\n        /* \"#utility.yul\":3395:3401   */\n      dup3\n        /* \"#utility.yul\":3391:3408   */\n      mul\n        /* \"#utility.yul\":3381:3389   */\n      dup4\n        /* \"#utility.yul\":3377:3409   */\n      add\n        /* \"#utility.yul\":3374:3415   */\n      gt\n        /* \"#utility.yul\":3371:3499   */\n      iszero\n      tag_138\n      jumpi\n        /* \"#utility.yul\":3418:3497   */\n      tag_139\n      tag_76\n      jump\t// in\n    tag_139:\n        /* \"#utility.yul\":3371:3499   */\n    tag_138:\n        /* \"#utility.yul\":2952:3505   */\n      swap3\n      pop\n      swap3\n      swap1\n      pop\n      jump\t// out\n        /* \"#utility.yul\":3511:4040   */\n    tag_15:\n        /* \"#utility.yul\":3582:3588   */\n      0x00\n        /* \"#utility.yul\":3590:3596   */\n      dup1\n        /* \"#utility.yul\":3639:3641   */\n      0x20\n        /* \"#utility.yul\":3627:3636   */\n      dup4\n        /* \"#utility.yul\":3618:3625   */\n      dup6\n        /* \"#utility.yul\":3614:3637   */\n      sub\n        /* \"#utility.yul\":3610:3642   */\n      slt\n        /* \"#utility.yul\":3607:3726   */\n      iszero\n      tag_141\n      jumpi\n        /* \"#utility.yul\":3645:3724   */\n      tag_142\n      tag_62\n      jump\t// in\n    tag_142:\n        /* \"#utility.yul\":3607:3726   */\n    tag_141:\n        /* \"#utility.yul\":3793:3794   */\n      0x00\n        /* \"#utility.yul\":3782:3791   */\n      dup4\n        /* \"#utility.yul\":3778:3795   */\n      add\n        /* \"#utility.yul\":3765:3796   */\n      calldataload\n        /* \"#utility.yul\":3823:3841   */\n      0xffffffffffffffff\n        /* \"#utility.yul\":3815:3821   */\n      dup2\n        /* \"#utility.yul\":3812:3842   */\n      gt\n        /* \"#utility.yul\":3809:3926   */\n      iszero\n      tag_143\n      jumpi\n        /* \"#utility.yul\":3845:3924   */\n      tag_144\n      tag_63\n      jump\t// in\n    tag_144:\n        /* \"#utility.yul\":3809:3926   */\n    tag_143:\n        /* \"#utility.yul\":3958:4023   */\n      tag_145\n        /* \"#utility.yul\":4015:4022   */\n      dup6\n        /* \"#utility.yul\":4006:4012   */\n      dup3\n        /* \"#utility.yul\":3995:4004   */\n      dup7\n        /* \"#utility.yul\":3991:4013   */\n      add\n        /* \"#utility.yul\":3958:4023   */\n      tag_77\n      jump\t// in\n    tag_145:\n        /* \"#utility.yul\":3940:4023   */\n      swap3\n      pop\n      swap3\n      pop\n        /* \"#utility.yul\":3736:4033   */\n      pop\n        /* \"#utility.yul\":3511:4040   */\n      swap3\n      pop\n      swap3\n      swap1\n      pop\n      jump\t// out\n        /* \"#utility.yul\":4046:4720   */\n    tag_22:\n        /* \"#utility.yul\":4126:4132   */\n      0x00\n        /* \"#utility.yul\":4134:4140   */\n      dup1\n        /* \"#utility.yul\":4142:4148   */\n      0x00\n        /* \"#utility.yul\":4191:4193   */\n      0x40\n        /* \"#utility.yul\":4179:4188   */\n      dup5\n        /* \"#utility.yul\":4170:4177   */\n      dup7\n        /* \"#utility.yul\":4166:4189   */\n      sub\n        /* \"#utility.yul\":4162:4194   */\n      slt\n        /* \"#utility.yul\":4159:4278   */\n      iszero\n      tag_147\n      jumpi\n        /* \"#utility.yul\":4197:4276   */\n      tag_148\n      tag_62\n      jump\t// in\n    tag_148:\n        /* \"#utility.yul\":4159:4278   */\n    tag_147:\n        /* \"#utility.yul\":4317:4318   */\n      0x00\n        /* \"#utility.yul\":4342:4395   */\n      tag_149\n        /* \"#utility.yul\":4387:4394   */\n      dup7\n        /* \"#utility.yul\":4378:4384   */\n      dup3\n        /* \"#utility.yul\":4367:4376   */\n      dup8\n        /* \"#utility.yul\":4363:4385   */\n      add\n        /* \"#utility.yul\":4342:4395   */\n      tag_66\n      jump\t// in\n    tag_149:\n        /* \"#utility.yul\":4332:4395   */\n      swap4\n      pop\n        /* \"#utility.yul\":4288:4405   */\n      pop\n        /* \"#utility.yul\":4472:4474   */\n      0x20\n        /* \"#utility.yul\":4461:4470   */\n      dup5\n        /* \"#utility.yul\":4457:4475   */\n      add\n        /* \"#utility.yul\":4444:4476   */\n      calldataload\n        /* \"#utility.yul\":4503:4521   */\n      0xffffffffffffffff\n        /* \"#utility.yul\":4495:4501   */\n      dup2\n        /* \"#utility.yul\":4492:4522   */\n      gt\n        /* \"#utility.yul\":4489:4606   */\n      iszero\n      tag_150\n      jumpi\n        /* \"#utility.yul\":4525:4604   */\n      tag_151\n      tag_63\n      jump\t// in\n    tag_151:\n        /* \"#utility.yul\":4489:4606   */\n    tag_150:\n        /* \"#utility.yul\":4638:4703   */\n      tag_152\n        /* \"#utility.yul\":4695:4702   */\n      dup7\n        /* \"#utility.yul\":4686:4692   */\n      dup3\n        /* \"#utility.yul\":4675:4684   */\n      dup8\n        /* \"#utility.yul\":4671:4693   */\n      add\n        /* \"#utility.yul\":4638:4703   */\n      tag_77\n      jump\t// in\n    tag_152:\n        /* \"#utility.yul\":4620:4703   */\n      swap3\n      pop\n      swap3\n      pop\n        /* \"#utility.yul\":4415:4713   */\n      pop\n        /* \"#utility.yul\":4046:4720   */\n      swap3\n      pop\n      swap3\n      pop\n      swap3\n      jump\t// out\n        /* \"#utility.yul\":4726:4906   */\n    tag_78:\n        /* \"#utility.yul\":4774:4851   */\n      0x4e487b7100000000000000000000000000000000000000000000000000000000\n        /* \"#utility.yul\":4771:4772   */\n      0x00\n        /* \"#utility.yul\":4764:4852   */\n      mstore\n        /* \"#utility.yul\":4871:4875   */\n      0x22\n        /* \"#utility.yul\":4868:4869   */\n      0x04\n        /* \"#utility.yul\":4861:4876   */\n      mstore\n        /* \"#utility.yul\":4895:4899   */\n      0x24\n        /* \"#utility.yul\":4892:4893   */\n      0x00\n        /* \"#utility.yul\":4885:4900   */\n      revert\n        /* \"#utility.yul\":4912:5232   */\n    tag_27:\n        /* \"#utility.yul\":4956:4962   */\n      0x00\n        /* \"#utility.yul\":4993:4994   */\n      0x02\n        /* \"#utility.yul\":4987:4991   */\n      dup3\n        /* \"#utility.yul\":4983:4995   */\n      div\n        /* \"#utility.yul\":4973:4995   */\n      swap1\n      pop\n        /* \"#utility.yul\":5040:5041   */\n      0x01\n        /* \"#utility.yul\":5034:5038   */\n      dup3\n        /* \"#utility.yul\":5030:5042   */\n      and\n        /* \"#utility.yul\":5061:5079   */\n      dup1\n        /* \"#utility.yul\":5051:5132   */\n      tag_155\n      jumpi\n        /* \"#utility.yul\":5117:5121   */\n      0x7f\n        /* \"#utility.yul\":5109:5115   */\n      dup3\n        /* \"#utility.yul\":5105:5122   */\n      and\n        /* \"#utility.yul\":5095:5122   */\n      swap2\n      pop\n        /* \"#utility.yul\":5051:5132   */\n    tag_155:\n        /* \"#utility.yul\":5179:5181   */\n      0x20\n        /* \"#utility.yul\":5171:5177   */\n      dup3\n        /* \"#utility.yul\":5168:5182   */\n      lt\n        /* \"#utility.yul\":5148:5166   */\n      dup2\n        /* \"#utility.yul\":5145:5183   */\n      sub\n        /* \"#utility.yul\":5142:5226   */\n      tag_156\n      jumpi\n        /* \"#utility.yul\":5198:5216   */\n      tag_157\n      tag_78\n      jump\t// in\n    tag_157:\n        /* \"#utility.yul\":5142:5226   */\n    tag_156:\n        /* \"#utility.yul\":4963:5232   */\n      pop\n        /* \"#utility.yul\":4912:5232   */\n      swap2\n      swap1\n      pop\n      jump\t// out\n        /* \"#utility.yul\":5238:5385   */\n    tag_79:\n        /* \"#utility.yul\":5339:5350   */\n      0x00\n        /* \"#utility.yul\":5376:5379   */\n      dup2\n        /* \"#utility.yul\":5361:5379   */\n      swap1\n      pop\n        /* \"#utility.yul\":5238:5385   */\n      swap3\n      swap2\n      pop\n      pop\n      jump\t// out\n        /* \"#utility.yul\":5391:5539   */\n    tag_80:\n        /* \"#utility.yul\":5489:5495   */\n      dup3\n        /* \"#utility.yul\":5484:5487   */\n      dup2\n        /* \"#utility.yul\":5479:5482   */\n      dup4\n        /* \"#utility.yul\":5466:5496   */\n      calldatacopy\n        /* \"#utility.yul\":5530:5531   */\n      0x00\n        /* \"#utility.yul\":5521:5527   */\n      dup4\n        /* \"#utility.yul\":5516:5519   */\n      dup4\n        /* \"#utility.yul\":5512:5528   */\n      add\n        /* \"#utility.yul\":5505:5532   */\n      mstore\n        /* \"#utility.yul\":5391:5539   */\n      pop\n      pop\n      pop\n      jump\t// out\n        /* \"#utility.yul\":5567:5894   */\n    tag_81:\n        /* \"#utility.yul\":5681:5684   */\n      0x00\n        /* \"#utility.yul\":5702:5790   */\n      tag_161\n        /* \"#utility.yul\":5783:5789   */\n      dup4\n        /* \"#utility.yul\":5778:5781   */\n      dup6\n        /* \"#utility.yul\":5702:5790   */\n      tag_79\n      jump\t// in\n    tag_161:\n        /* \"#utility.yul\":5695:5790   */\n      swap4\n      pop\n        /* \"#utility.yul\":5800:5856   */\n      tag_162\n        /* \"#utility.yul\":5849:5855   */\n      dup4\n        /* \"#utility.yul\":5844:5847   */\n      dup6\n        /* \"#utility.yul\":5837:5842   */\n      dup5\n        /* \"#utility.yul\":5800:5856   */\n      tag_80\n      jump\t// in\n    tag_162:\n        /* \"#utility.yul\":5881:5887   */\n      dup3\n        /* \"#utility.yul\":5876:5879   */\n      dup5\n        /* \"#utility.yul\":5872:5888   */\n      add\n        /* \"#utility.yul\":5865:5888   */\n      swap1\n      pop\n        /* \"#utility.yul\":5567:5894   */\n      swap4\n      swap3\n      pop\n      pop\n      pop\n      jump\t// out\n        /* \"#utility.yul\":5900:6191   */\n    tag_37:\n        /* \"#utility.yul\":6040:6043   */\n      0x00\n        /* \"#utility.yul\":6062:6165   */\n      tag_164\n        /* \"#utility.yul\":6161:6164   */\n      dup3\n        /* \"#utility.yul\":6152:6158   */\n      dup5\n        /* \"#utility.yul\":6144:6150   */\n      dup7\n        /* \"#utility.yul\":6062:6165   */\n      tag_81\n      jump\t// in\n    tag_164:\n        /* \"#utility.yul\":6055:6165   */\n      swap2\n      pop\n        /* \"#utility.yul\":6182:6185   */\n      dup2\n        /* \"#utility.yul\":6175:6185   */\n      swap1\n      pop\n        /* \"#utility.yul\":5900:6191   */\n      swap4\n      swap3\n      pop\n      pop\n      pop\n      jump\t// out\n        /* \"#utility.yul\":6197:6377   */\n    tag_40:\n        /* \"#utility.yul\":6245:6322   */\n      0x4e487b7100000000000000000000000000000000000000000000000000000000\n        /* \"#utility.yul\":6242:6243   */\n      0x00\n        /* \"#utility.yul\":6235:6323   */\n      mstore\n        /* \"#utility.yul\":6342:6346   */\n      0x32\n        /* \"#utility.yul\":6339:6340   */\n      0x04\n        /* \"#utility.yul\":6332:6347   */\n      mstore\n        /* \"#utility.yul\":6366:6370   */\n      0x24\n        /* \"#utility.yul\":6363:6364   */\n      0x00\n        /* \"#utility.yul\":6356:6371   */\n      revert\n        /* \"#utility.yul\":6383:6527   */\n    tag_82:\n        /* \"#utility.yul\":6435:6439   */\n      0x00\n        /* \"#utility.yul\":6458:6461   */\n      dup2\n        /* \"#utility.yul\":6450:6461   */\n      swap1\n      pop\n        /* \"#utility.yul\":6481:6484   */\n      dup2\n        /* \"#utility.yul\":6478:6479   */\n      0x00\n        /* \"#utility.yul\":6471:6485   */\n      mstore\n        /* \"#utility.yul\":6515:6519   */\n      0x20\n        /* \"#utility.yul\":6512:6513   */\n      0x00\n        /* \"#utility.yul\":6502:6520   */\n      keccak256\n        /* \"#utility.yul\":6494:6520   */\n      swap1\n      pop\n        /* \"#utility.yul\":6383:6527   */\n      swap2\n      swap1\n      pop\n      jump\t// out\n        /* \"#utility.yul\":6555:7433   */\n    tag_83:\n        /* \"#utility.yul\":6660:6663   */\n      0x00\n        /* \"#utility.yul\":6697:6702   */\n      dup2\n        /* \"#utility.yul\":6691:6703   */\n      sload\n        /* \"#utility.yul\":6726:6762   */\n      tag_168\n        /* \"#utility.yul\":6752:6761   */\n      dup2\n        /* \"#utility.yul\":6726:6762   */\n      tag_27\n      jump\t// in\n    tag_168:\n        /* \"#utility.yul\":6778:6866   */\n      tag_169\n        /* \"#utility.yul\":6859:6865   */\n      dup2\n        /* \"#utility.yul\":6854:6857   */\n      dup7\n        /* \"#utility.yul\":6778:6866   */\n      tag_79\n      jump\t// in\n    tag_169:\n        /* \"#utility.yul\":6771:6866   */\n      swap5\n      pop\n        /* \"#utility.yul\":6897:6898   */\n      0x01\n        /* \"#utility.yul\":6886:6895   */\n      dup3\n        /* \"#utility.yul\":6882:6899   */\n      and\n        /* \"#utility.yul\":6913:6914   */\n      0x00\n        /* \"#utility.yul\":6908:7074   */\n      dup2\n      eq\n      tag_171\n      jumpi\n        /* \"#utility.yul\":7088:7089   */\n      0x01\n        /* \"#utility.yul\":7083:7427   */\n      dup2\n      eq\n      tag_172\n      jumpi\n        /* \"#utility.yul\":6875:7427   */\n      jump(tag_170)\n        /* \"#utility.yul\":6908:7074   */\n    tag_171:\n        /* \"#utility.yul\":6992:6996   */\n      0xff\n        /* \"#utility.yul\":6988:6997   */\n      not\n        /* \"#utility.yul\":6977:6986   */\n      dup4\n        /* \"#utility.yul\":6973:6998   */\n      and\n        /* \"#utility.yul\":6968:6971   */\n      dup7\n        /* \"#utility.yul\":6961:6999   */\n      mstore\n        /* \"#utility.yul\":7054:7060   */\n      dup2\n        /* \"#utility.yul\":7047:7061   */\n      iszero\n        /* \"#utility.yul\":7040:7062   */\n      iszero\n        /* \"#utility.yul\":7032:7038   */\n      dup3\n        /* \"#utility.yul\":7028:7063   */\n      mul\n        /* \"#utility.yul\":7023:7026   */\n      dup7\n        /* \"#utility.yul\":7019:7064   */\n      add\n        /* \"#utility.yul\":7012:7064   */\n      swap4\n      pop\n        /* \"#utility.yul\":6908:7074   */\n      jump(tag_170)\n        /* \"#utility.yul\":7083:7427   */\n    tag_172:\n        /* \"#utility.yul\":7150:7191   */\n      tag_173\n        /* \"#utility.yul\":7185:7190   */\n      dup6\n        /* \"#utility.yul\":7150:7191   */\n      tag_82\n      jump\t// in\n    tag_173:\n        /* \"#utility.yul\":7213:7214   */\n      0x00\n        /* \"#utility.yul\":7227:7381   */\n    tag_174:\n        /* \"#utility.yul\":7241:7247   */\n      dup4\n        /* \"#utility.yul\":7238:7239   */\n      dup2\n        /* \"#utility.yul\":7235:7248   */\n      lt\n        /* \"#utility.yul\":7227:7381   */\n      iszero\n      tag_176\n      jumpi\n        /* \"#utility.yul\":7315:7322   */\n      dup2\n        /* \"#utility.yul\":7309:7323   */\n      sload\n        /* \"#utility.yul\":7305:7306   */\n      dup2\n        /* \"#utility.yul\":7300:7303   */\n      dup10\n        /* \"#utility.yul\":7296:7307   */\n      add\n        /* \"#utility.yul\":7289:7324   */\n      mstore\n        /* \"#utility.yul\":7365:7366   */\n      0x01\n        /* \"#utility.yul\":7356:7363   */\n      dup3\n        /* \"#utility.yul\":7352:7367   */\n      add\n        /* \"#utility.yul\":7341:7367   */\n      swap2\n      pop\n        /* \"#utility.yul\":7263:7267   */\n      0x20\n        /* \"#utility.yul\":7260:7261   */\n      dup2\n        /* \"#utility.yul\":7256:7268   */\n      add\n        /* \"#utility.yul\":7251:7268   */\n      swap1\n      pop\n        /* \"#utility.yul\":7227:7381   */\n      jump(tag_174)\n    tag_176:\n        /* \"#utility.yul\":7410:7416   */\n      dup4\n        /* \"#utility.yul\":7405:7408   */\n      dup9\n        /* \"#utility.yul\":7401:7417   */\n      add\n        /* \"#utility.yul\":7394:7417   */\n      swap6\n      pop\n        /* \"#utility.yul\":7090:7427   */\n      pop\n      pop\n        /* \"#utility.yul\":6875:7427   */\n    tag_170:\n      pop\n        /* \"#utility.yul\":6664:7433   */\n      pop\n      pop\n        /* \"#utility.yul\":6555:7433   */\n      swap3\n      swap2\n      pop\n      pop\n      jump\t// out\n        /* \"#utility.yul\":7439:7712   */\n    tag_43:\n        /* \"#utility.yul\":7570:7573   */\n      0x00\n        /* \"#utility.yul\":7592:7686   */\n      tag_178\n        /* \"#utility.yul\":7682:7685   */\n      dup3\n        /* \"#utility.yul\":7673:7679   */\n      dup5\n        /* \"#utility.yul\":7592:7686   */\n      tag_83\n      jump\t// in\n    tag_178:\n        /* \"#utility.yul\":7585:7686   */\n      swap2\n      pop\n        /* \"#utility.yul\":7703:7706   */\n      dup2\n        /* \"#utility.yul\":7696:7706   */\n      swap1\n      pop\n        /* \"#utility.yul\":7439:7712   */\n      swap3\n      swap2\n      pop\n      pop\n      jump\t// out\n        /* \"#utility.yul\":7718:7898   */\n    tag_84:\n        /* \"#utility.yul\":7766:7843   */\n      0x4e487b7100000000000000000000000000000000000000000000000000000000\n        /* \"#utility.yul\":7763:7764   */\n      0x00\n        /* \"#utility.yul\":7756:7844   */\n      mstore\n        /* \"#utility.yul\":7863:7867   */\n      0x41\n        /* \"#utility.yul\":7860:7861   */\n      0x04\n        /* \"#utility.yul\":7853:7868   */\n      mstore\n        /* \"#utility.yul\":7887:7891   */\n      0x24\n        /* \"#utility.yul\":7884:7885   */\n      0x00\n        /* \"#utility.yul\":7877:7892   */\n      revert\n        /* \"#utility.yul\":7904:8045   */\n    tag_85:\n        /* \"#utility.yul\":7953:7957   */\n      0x00\n        /* \"#utility.yul\":7976:7979   */\n      dup2\n        /* \"#utility.yul\":7968:7979   */\n      swap1\n      pop\n        /* \"#utility.yul\":7999:8002   */\n      dup2\n        /* \"#utility.yul\":7996:7997   */\n      0x00\n        /* \"#utility.yul\":7989:8003   */\n      mstore\n        /* \"#utility.yul\":8033:8037   */\n      0x20\n        /* \"#utility.yul\":8030:8031   */\n      0x00\n        /* \"#utility.yul\":8020:8038   */\n      keccak256\n        /* \"#utility.yul\":8012:8038   */\n      swap1\n      pop\n        /* \"#utility.yul\":7904:8045   */\n      swap2\n      swap1\n      pop\n      jump\t// out\n        /* \"#utility.yul\":8051:8144   */\n    tag_86:\n        /* \"#utility.yul\":8088:8094   */\n      0x00\n        /* \"#utility.yul\":8135:8137   */\n      0x20\n        /* \"#utility.yul\":8130:8132   */\n      0x1f\n        /* \"#utility.yul\":8123:8128   */\n      dup4\n        /* \"#utility.yul\":8119:8133   */\n      add\n        /* \"#utility.yul\":8115:8138   */\n      div\n        /* \"#utility.yul\":8105:8138   */\n      swap1\n      pop\n        /* \"#utility.yul\":8051:8144   */\n      swap2\n      swap1\n      pop\n      jump\t// out\n        /* \"#utility.yul\":8150:8257   */\n    tag_87:\n        /* \"#utility.yul\":8194:8202   */\n      0x00\n        /* \"#utility.yul\":8244:8249   */\n      dup3\n        /* \"#utility.yul\":8238:8242   */\n      dup3\n        /* \"#utility.yul\":8234:8250   */\n      shl\n        /* \"#utility.yul\":8213:8250   */\n      swap1\n      pop\n        /* \"#utility.yul\":8150:8257   */\n      swap3\n      swap2\n      pop\n      pop\n      jump\t// out\n        /* \"#utility.yul\":8263:8656   */\n    tag_88:\n        /* \"#utility.yul\":8332:8338   */\n      0x00\n        /* \"#utility.yul\":8382:8383   */\n      0x08\n        /* \"#utility.yul\":8370:8380   */\n      dup4\n        /* \"#utility.yul\":8366:8384   */\n      mul\n        /* \"#utility.yul\":8405:8502   */\n      tag_184\n        /* \"#utility.yul\":8435:8501   */\n      0xffffffffffffffffffffffffffffffffffffffffffffffffffffffffffffffff\n        /* \"#utility.yul\":8424:8433   */\n      dup3\n        /* \"#utility.yul\":8405:8502   */\n      tag_87\n      jump\t// in\n    tag_184:\n        /* \"#utility.yul\":8523:8562   */\n      tag_185\n        /* \"#utility.yul\":8553:8561   */\n      dup7\n        /* \"#utility.yul\":8542:8551   */\n      dup4\n        /* \"#utility.yul\":8523:8562   */\n      tag_87\n      jump\t// in\n    tag_185:\n        /* \"#utility.yul\":8511:8562   */\n      swap6\n      pop\n        /* \"#utility.yul\":8595:8599   */\n      dup1\n        /* \"#utility.yul\":8591:8600   */\n      not\n        /* \"#utility.yul\":8584:8589   */\n      dup5\n        /* \"#utility.yul\":8580:8601   */\n      and\n        /* \"#utility.yul\":8571:8601   */\n      swap4\n      pop\n        /* \"#utility.yul\":8644:8648   */\n      dup1\n        /* \"#utility.yul\":8634:8642   */\n      dup7\n        /* \"#utility.yul\":8630:8649   */\n      and\n        /* \"#utility.yul\":8623:8628   */\n      dup5\n        /* \"#utility.yul\":8620:8650   */\n      or\n        /* \"#utility.yul\":8610:8650   */\n      swap3\n      pop\n        /* \"#utility.yul\":8339:8656   */\n      pop\n      pop\n        /* \"#utility.yul\":8263:8656   */\n      swap4\n      swap3\n      pop\n      pop\n      pop\n      jump\t// out\n        /* \"#utility.yul\":8662:8722   */\n    tag_89:\n        /* \"#utility.yul\":8690:8693   */\n      0x00\n        /* \"#utility.yul\":8711:8716   */\n      dup2\n        /* \"#utility.yul\":8704:8716   */\n      swap1\n      pop\n        /* \"#utility.yul\":8662:8722   */\n      swap2\n      swap1\n      pop\n      jump\t// out\n        /* \"#utility.yul\":8728:8870   */\n    tag_90:\n        /* \"#utility.yul\":8778:8787   */\n      0x00\n        /* \"#utility.yul\":8811:8864   */\n      tag_188\n        /* \"#utility.yul\":8829:8863   */\n      tag_189\n        /* \"#utility.yul\":8838:8862   */\n      tag_190\n        /* \"#utility.yul\":8856:8861   */\n      dup5\n        /* \"#utility.yul\":8838:8862   */\n      tag_64\n      jump\t// in\n    tag_190:\n        /* \"#utility.yul\":8829:8863   */\n      tag_89\n      jump\t// in\n    tag_189:\n        /* \"#utility.yul\":8811:8864   */\n      tag_64\n      jump\t// in\n    tag_188:\n        /* \"#utility.yul\":8798:8864   */\n      swap1\n      pop\n        /* \"#utility.yul\":8728:8870   */\n      swap2\n      swap1\n      pop\n      jump\t// out\n        /* \"#utility.yul\":8876:8951   */\n    tag_91:\n        /* \"#utility.yul\":8919:8922   */\n      0x00\n        /* \"#utility.yul\":8940:8945   */\n      dup2\n        /* \"#utility.yul\":8933:8945   */\n      swap1\n      pop\n        /* \"#utility.yul\":8876:8951   */\n      swap2\n      swap1\n      pop\n      jump\t// out\n        /* \"#utility.yul\":8957:9226   */\n    tag_92:\n        /* \"#utility.yul\":9067:9106   */\n      tag_193\n        /* \"#utility.yul\":9098:9105   */\n      dup4\n        /* \"#utility.yul\":9067:9106   */\n      tag_90\n      jump\t// in\n    tag_193:\n        /* \"#utility.yul\":9128:9219   */\n      tag_194\n        /* \"#utility.yul\":9177:9218   */\n      tag_195\n        /* \"#utility.yul\":9201:9217   */\n      dup3\n        /* \"#utility.yul\":9177:9218   */\n      tag_91\n      jump\t// in\n    tag_195:\n        /* \"#utility.yul\":9169:9175   */\n      dup5\n        /* \"#utility.yul\":9162:9166   */\n      dup5\n        /* \"#utility.yul\":9156:9167   */\n      sload\n        /* \"#utility.yul\":9128:9219   */\n      tag_88\n      jump\t// in\n    tag_194:\n        /* \"#utility.yul\":9122:9126   */\n      dup3\n        /* \"#utility.yul\":9115:9220   */\n      sstore\n        /* \"#utility.yul\":9033:9226   */\n      pop\n        /* \"#utility.yul\":8957:9226   */\n      pop\n      pop\n      pop\n      jump\t// out\n        /* \"#utility.yul\":9232:9305   */\n    tag_93:\n        /* \"#utility.yul\":9277:9280   */\n      0x00\n        /* \"#utility.yul\":9232:9305   */\n      swap1\n      jump\t// out\n        /* \"#utility.yul\":9311:9500   */\n    tag_94:\n        /* \"#utility.yul\":9388:9420   */\n      tag_198\n      tag_93\n      jump\t// in\n    tag_198:\n        /* \"#utility.yul\":9429:9494   */\n      tag_199\n        /* \"#utility.yul\":9487:9493   */\n      dup2\n        /* \"#utility.yul\":9479:9485   */\n      dup5\n        /* \"#utility.yul\":9473:9477   */\n      dup5\n        /* \"#utility.yul\":9429:9494   */\n      tag_92\n      jump\t// in\n    tag_199:\n        /* \"#utility.yul\":9364:9500   */\n      pop\n        /* \"#utility.yul\":9311:9500   */\n      pop\n      pop\n      jump\t// out\n        /* \"#utility.yul\":9506:9692   */\n    tag_95:\n        /* \"#utility.yul\":9566:9686   */\n    tag_201:\n        /* \"#utility.yul\":9583:9586   */\n      dup2\n        /* \"#utility.yul\":9576:9581   */\n      dup2\n        /* \"#utility.yul\":9573:9587   */\n      lt\n        /* \"#utility.yul\":9566:9686   */\n      iszero\n      tag_203\n      jumpi\n        /* \"#utility.yul\":9637:9676   */\n      tag_204\n        /* \"#utility.yul\":9674:9675   */\n      0x00\n        /* \"#utility.yul\":9667:9672   */\n      dup3\n        /* \"#utility.yul\":9637:9676   */\n      tag_94\n      jump\t// in\n    tag_204:\n        /* \"#utility.yul\":9610:9611   */\n      0x01\n        /* \"#utility.yul\":9603:9608   */\n      dup2\n        /* \"#utility.yul\":9599:9612   */\n      add\n        /* \"#utility.yul\":9590:9612   */\n      swap1\n      pop\n        /* \"#utility.yul\":9566:9686   */\n      jump(tag_201)\n    tag_203:\n        /* \"#utility.yul\":9506:9692   */\n      pop\n      pop\n      jump\t// out\n        /* \"#utility.yul\":9698:10241   */\n    tag_96:\n        /* \"#utility.yul\":9799:9801   */\n      0x1f\n        /* \"#utility.yul\":9794:9797   */\n      dup3\n        /* \"#utility.yul\":9791:9802   */\n      gt\n        /* \"#utility.yul\":9788:10234   */\n      iszero\n      tag_206\n      jumpi\n        /* \"#utility.yul\":9833:9871   */\n      tag_207\n        /* \"#utility.yul\":9865:9870   */\n      dup2\n        /* \"#utility.yul\":9833:9871   */\n      tag_85\n      jump\t// in\n    tag_207:\n        /* \"#utility.yul\":9917:9946   */\n      tag_208\n        /* \"#utility.yul\":9935:9945   */\n      dup5\n        /* \"#utility.yul\":9917:9946   */\n      tag_86\n      jump\t// in\n    tag_208:\n        /* \"#utility.yul\":9907:9915   */\n      dup2\n        /* \"#utility.yul\":9903:9947   */\n      add\n        /* \"#utility.yul\":10100:10102   */\n      0x20\n        /* \"#utility.yul\":10088:10098   */\n      dup6\n        /* \"#utility.yul\":10085:10103   */\n      lt\n        /* \"#utility.yul\":10082:10131   */\n      iszero\n      tag_209\n      jumpi\n        /* \"#utility.yul\":10121:10129   */\n      dup2\n        /* \"#utility.yul\":10106:10129   */\n      swap1\n      pop\n        /* \"#utility.yul\":10082:10131   */\n    tag_209:\n        /* \"#utility.yul\":10144:10224   */\n      tag_210\n        /* \"#utility.yul\":10200:10222   */\n      tag_211\n        /* \"#utility.yul\":10218:10221   */\n      dup6\n        /* \"#utility.yul\":10200:10222   */\n      tag_86\n      jump\t// in\n    tag_211:\n        /* \"#utility.yul\":10190:10198   */\n      dup4\n        /* \"#utility.yul\":10186:10223   */\n      add\n        /* \"#utility.yul\":10173:10184   */\n      dup3\n        /* \"#utility.yul\":10144:10224   */\n      tag_95\n      jump\t// in\n    tag_210:\n        /* \"#utility.yul\":9803:10234   */\n      pop\n      pop\n        /* \"#utility.yul\":9788:10234   */\n    tag_206:\n        /* \"#utility.yul\":9698:10241   */\n      pop\n      pop\n      pop\n      jump\t// out\n        /* \"#utility.yul\":10247:10364   */\n    tag_97:\n        /* \"#utility.yul\":10301:10309   */\n      0x00\n        /* \"#utility.yul\":10351:10356   */\n      dup3\n        /* \"#utility.yul\":10345:10349   */\n      dup3\n        /* \"#utility.yul\":10341:10357   */\n      shr\n        /* \"#utility.yul\":10320:10357   */\n      swap1\n      pop\n        /* \"#utility.yul\":10247:10364   */\n      swap3\n      swap2\n      pop\n      pop\n      jump\t// out\n        /* \"#utility.yul\":10370:10539   */\n    tag_98:\n        /* \"#utility.yul\":10414:10420   */\n      0x00\n        /* \"#utility.yul\":10447:10498   */\n      tag_214\n        /* \"#utility.yul\":10495:10496   */\n      0x00\n        /* \"#utility.yul\":10491:10497   */\n      not\n        /* \"#utility.yul\":10483:10488   */\n      dup5\n        /* \"#utility.yul\":10480:10481   */\n      0x08\n        /* \"#utility.yul\":10476:10489   */\n      mul\n        /* \"#utility.yul\":10447:10498   */\n      tag_97\n      jump\t// in\n    tag_214:\n        /* \"#utility.yul\":10443:10499   */\n      not\n        /* \"#utility.yul\":10528:10532   */\n      dup1\n        /* \"#utility.yul\":10522:10526   */\n      dup4\n        /* \"#utility.yul\":10518:10533   */\n      and\n        /* \"#utility.yul\":10508:10533   */\n      swap2\n      pop\n        /* \"#utility.yul\":10421:10539   */\n      pop\n        /* \"#utility.yul\":10370:10539   */\n      swap3\n      swap2\n      pop\n      pop\n      jump\t// out\n        /* \"#utility.yul\":10544:10839   */\n    tag_99:\n        /* \"#utility.yul\":10620:10624   */\n      0x00\n        /* \"#utility.yul\":10766:10795   */\n      tag_216\n        /* \"#utility.yul\":10791:10794   */\n      dup4\n        /* \"#utility.yul\":10785:10789   */\n      dup4\n        /* \"#utility.yul\":10766:10795   */\n      tag_98\n      jump\t// in\n    tag_216:\n        /* \"#utility.yul\":10758:10795   */\n      swap2\n      pop\n        /* \"#utility.yul\":10828:10831   */\n      dup3\n        /* \"#utility.yul\":10825:10826   */\n      0x02\n        /* \"#utility.yul\":10821:10832   */\n      mul\n        /* \"#utility.yul\":10815:10819   */\n      dup3\n        /* \"#utility.yul\":10812:10833   */\n      or\n        /* \"#utility.yul\":10804:10833   */\n      swap1\n      pop\n        /* \"#utility.yul\":10544:10839   */\n      swap3\n      swap2\n      pop\n      pop\n      jump\t// out\n        /* \"#utility.yul\":10844:12239   */\n    tag_54:\n        /* \"#utility.yul\":10961:10998   */\n      tag_218\n        /* \"#utility.yul\":10994:10997   */\n      dup3\n        /* \"#utility.yul\":10961:10998   */\n      tag_67\n      jump\t// in\n    tag_218:\n        /* \"#utility.yul\":11063:11081   */\n      0xffffffffffffffff\n        /* \"#utility.yul\":11055:11061   */\n      dup2\n        /* \"#utility.yul\":11052:11082   */\n      gt\n        /* \"#utility.yul\":11049:11105   */\n      iszero\n      tag_219\n      jumpi\n        /* \"#utility.yul\":11085:11103   */\n      tag_220\n      tag_84\n      jump\t// in\n    tag_220:\n        /* \"#utility.yul\":11049:11105   */\n    tag_219:\n        /* \"#utility.yul\":11129:11167   */\n      tag_221\n        /* \"#utility.yul\":11161:11165   */\n      dup3\n        /* \"#utility.yul\":11155:11166   */\n      sload\n        /* \"#utility.yul\":11129:11167   */\n      tag_27\n      jump\t// in\n    tag_221:\n        /* \"#utility.yul\":11214:11281   */\n      tag_222\n        /* \"#utility.yul\":11274:11280   */\n      dup3\n        /* \"#utility.yul\":11266:11272   */\n      dup3\n        /* \"#utility.yul\":11260:11264   */\n      dup6\n        /* \"#utility.yul\":11214:11281   */\n      tag_96\n      jump\t// in\n    tag_222:\n        /* \"#utility.yul\":11308:11309   */\n      0x00\n        /* \"#utility.yul\":11332:11336   */\n      0x20\n        /* \"#utility.yul\":11319:11336   */\n      swap1\n      pop\n        /* \"#utility.yul\":11364:11366   */\n      0x1f\n        /* \"#utility.yul\":11356:11362   */\n      dup4\n        /* \"#utility.yul\":11353:11367   */\n      gt\n        /* \"#utility.yul\":11381:11382   */\n      0x01\n        /* \"#utility.yul\":11376:11994   */\n      dup2\n      eq\n      tag_224\n      jumpi\n        /* \"#utility.yul\":12038:12039   */\n      0x00\n        /* \"#utility.yul\":12055:12061   */\n      dup5\n        /* \"#utility.yul\":12052:12129   */\n      iszero\n      tag_225\n      jumpi\n        /* \"#utility.yul\":12104:12113   */\n      dup3\n        /* \"#utility.yul\":12099:12102   */\n      dup8\n        /* \"#utility.yul\":12095:12114   */\n      add\n        /* \"#utility.yul\":12089:12115   */\n      mload\n        /* \"#utility.yul\":12080:12115   */\n      swap1\n      pop\n        /* \"#utility.yul\":12052:12129   */\n    tag_225:\n        /* \"#utility.yul\":12155:12222   */\n      tag_226\n        /* \"#utility.yul\":12215:12221   */\n      dup6\n        /* \"#utility.yul\":12208:12213   */\n      dup3\n        /* \"#utility.yul\":12155:12222   */\n      tag_99\n      jump\t// in\n    tag_226:\n        /* \"#utility.yul\":12149:12153   */\n      dup7\n        /* \"#utility.yul\":12142:12223   */\n      sstore\n        /* \"#utility.yul\":12011:12233   */\n      pop\n        /* \"#utility.yul\":11346:12233   */\n      jump(tag_223)\n        /* \"#utility.yul\":11376:11994   */\n    tag_224:\n        /* \"#utility.yul\":11428:11432   */\n      0x1f\n        /* \"#utility.yul\":11424:11433   */\n      not\n        /* \"#utility.yul\":11416:11422   */\n      dup5\n        /* \"#utility.yul\":11412:11434   */\n      and\n        /* \"#utility.yul\":11462:11499   */\n      tag_227\n        /* \"#utility.yul\":11494:11498   */\n      dup7\n        /* \"#utility.yul\":11462:11499   */\n      tag_85\n      jump\t// in\n    tag_227:\n        /* \"#utility.yul\":11521:11522   */\n      0x00\n        /* \"#utility.yul\":11535:11743   */\n    tag_228:\n        /* \"#utility.yul\":11549:11556   */\n      dup3\n        /* \"#utility.yul\":11546:11547   */\n      dup2\n        /* \"#utility.yul\":11543:11557   */\n      lt\n        /* \"#utility.yul\":11535:11743   */\n      iszero\n      tag_230\n      jumpi\n        /* \"#utility.yul\":11628:11637   */\n      dup5\n        /* \"#utility.yul\":11623:11626   */\n      dup10\n        /* \"#utility.yul\":11619:11638   */\n      add\n        /* \"#utility.yul\":11613:11639   */\n      mload\n        /* \"#utility.yul\":11605:11611   */\n      dup3\n        /* \"#utility.yul\":11598:11640   */\n      sstore\n        /* \"#utility.yul\":11679:11680   */\n      0x01\n        /* \"#utility.yul\":11671:11677   */\n      dup3\n        /* \"#utility.yul\":11667:11681   */\n      add\n        /* \"#utility.yul\":11657:11681   */\n      swap2\n      pop\n        /* \"#utility.yul\":11726:11728   */\n      0x20\n        /* \"#utility.yul\":11715:11724   */\n      dup6\n        /* \"#utility.yul\":11711:11729   */\n      add\n        /* \"#utility.yul\":11698:11729   */\n      swap5\n      pop\n        /* \"#utility.yul\":11572:11576   */\n      0x20\n        /* \"#utility.yul\":11569:11570   */\n      dup2\n        /* \"#utility.yul\":11565:11577   */\n      add\n        /* \"#utility.yul\":11560:11577   */\n      swap1\n      pop\n        /* \"#utility.yul\":11535:11743   */\n      jump(tag_228)\n    tag_230:\n        /* \"#utility.yul\":11771:11777   */\n      dup7\n        /* \"#utility.yul\":11762:11769   */\n      dup4\n        /* \"#utility.yul\":11759:11778   */\n      lt\n        /* \"#utility.yul\":11756:11935   */\n      iszero\n      tag_231\n      jumpi\n        /* \"#utility.yul\":11829:11838   */\n      dup5\n        /* \"#utility.yul\":11824:11827   */\n      dup10\n        /* \"#utility.yul\":11820:11839   */\n      add\n        /* \"#utility.yul\":11814:11840   */\n      mload\n        /* \"#utility.yul\":11872:11920   */\n      tag_232\n        /* \"#utility.yul\":11914:11918   */\n      0x1f\n        /* \"#utility.yul\":11906:11912   */\n      dup10\n        /* \"#utility.yul\":11902:11919   */\n      and\n        /* \"#utility.yul\":11891:11900   */\n      dup3\n        /* \"#utility.yul\":11872:11920   */\n      tag_98\n      jump\t// in\n    tag_232:\n        /* \"#utility.yul\":11864:11870   */\n      dup4\n        /* \"#utility.yul\":11857:11921   */\n      sstore\n        /* \"#utility.yul\":11779:11935   */\n      pop\n        /* \"#utility.yul\":11756:11935   */\n    tag_231:\n        /* \"#utility.yul\":11981:11982   */\n      0x01\n        /* \"#utility.yul\":11977:11978   */\n      0x02\n        /* \"#utility.yul\":11969:11975   */\n      dup9\n        /* \"#utility.yul\":11965:11979   */\n      mul\n        /* \"#utility.yul\":11961:11983   */\n      add\n        /* \"#utility.yul\":11955:11959   */\n      dup9\n        /* \"#utility.yul\":11948:11984   */\n      sstore\n        /* \"#utility.yul\":11383:11994   */\n      pop\n      pop\n      pop\n        /* \"#utility.yul\":11346:12233   */\n    tag_223:\n      pop\n        /* \"#utility.yul\":10936:12239   */\n      pop\n      pop\n      pop\n        /* \"#utility.yul\":10844:12239   */\n      pop\n      pop\n      jump\t// out\n        /* \"#utility.yul\":12245:12342   */\n    tag_100:\n        /* \"#utility.yul\":12304:12310   */\n      0x00\n        /* \"#utility.yul\":12332:12335   */\n      dup3\n        /* \"#utility.yul\":12322:12335   */\n      swap1\n      pop\n        /* \"#utility.yul\":12245:12342   */\n      swap3\n      swap2\n      pop\n      pop\n      jump\t// out\n        /* \"#utility.yul\":12348:13751   */\n    tag_60:\n        /* \"#utility.yul\":12472:12516   */\n      tag_235\n        /* \"#utility.yul\":12512:12515   */\n      dup4\n        /* \"#utility.yul\":12507:12510   */\n      dup4\n        /* \"#utility.yul\":12472:12516   */\n      tag_100\n      jump\t// in\n    tag_235:\n        /* \"#utility.yul\":12581:12599   */\n      0xffffffffffffffff\n        /* \"#utility.yul\":12573:12579   */\n      dup2\n        /* \"#utility.yul\":12570:12600   */\n      gt\n        /* \"#utility.yul\":12567:12623   */\n      iszero\n      tag_236\n      jumpi\n        /* \"#utility.yul\":12603:12621   */\n      tag_237\n      tag_84\n      jump\t// in\n    tag_237:\n        /* \"#utility.yul\":12567:12623   */\n    tag_236:\n        /* \"#utility.yul\":12647:12685   */\n      tag_238\n        /* \"#utility.yul\":12679:12683   */\n      dup3\n        /* \"#utility.yul\":12673:12684   */\n      sload\n        /* \"#utility.yul\":12647:12685   */\n      tag_27\n      jump\t// in\n    tag_238:\n        /* \"#utility.yul\":12732:12799   */\n      tag_239\n        /* \"#utility.yul\":12792:12798   */\n      dup3\n        /* \"#utility.yul\":12784:12790   */\n      dup3\n        /* \"#utility.yul\":12778:12782   */\n      dup6\n        /* \"#utility.yul\":12732:12799   */\n      tag_96\n      jump\t// in\n    tag_239:\n        /* \"#utility.yul\":12826:12827   */\n      0x00\n        /* \"#utility.yul\":12855:12857   */\n      0x1f\n        /* \"#utility.yul\":12847:12853   */\n      dup4\n        /* \"#utility.yul\":12844:12858   */\n      gt\n        /* \"#utility.yul\":12872:12873   */\n      0x01\n        /* \"#utility.yul\":12867:13499   */\n      dup2\n      eq\n      tag_241\n      jumpi\n        /* \"#utility.yul\":13543:13544   */\n      0x00\n        /* \"#utility.yul\":13560:13566   */\n      dup5\n        /* \"#utility.yul\":13557:13641   */\n      iszero\n      tag_242\n      jumpi\n        /* \"#utility.yul\":13616:13625   */\n      dup3\n        /* \"#utility.yul\":13611:13614   */\n      dup8\n        /* \"#utility.yul\":13607:13626   */\n      add\n        /* \"#utility.yul\":13594:13627   */\n      calldataload\n        /* \"#utility.yul\":13585:13627   */\n      swap1\n      pop\n        /* \"#utility.yul\":13557:13641   */\n    tag_242:\n        /* \"#utility.yul\":13667:13734   */\n      tag_243\n        /* \"#utility.yul\":13727:13733   */\n      dup6\n        /* \"#utility.yul\":13720:13725   */\n      dup3\n        /* \"#utility.yul\":13667:13734   */\n      tag_99\n      jump\t// in\n    tag_243:\n        /* \"#utility.yul\":13661:13665   */\n      dup7\n        /* \"#utility.yul\":13654:13735   */\n      sstore\n        /* \"#utility.yul\":13516:13745   */\n      pop\n        /* \"#utility.yul\":12837:13745   */\n      jump(tag_240)\n        /* \"#utility.yul\":12867:13499   */\n    tag_241:\n        /* \"#utility.yul\":12919:12923   */\n      0x1f\n        /* \"#utility.yul\":12915:12924   */\n      not\n        /* \"#utility.yul\":12907:12913   */\n      dup5\n        /* \"#utility.yul\":12903:12925   */\n      and\n        /* \"#utility.yul\":12953:12990   */\n      tag_244\n        /* \"#utility.yul\":12985:12989   */\n      dup7\n        /* \"#utility.yul\":12953:12990   */\n      tag_85\n      jump\t// in\n    tag_244:\n        /* \"#utility.yul\":13012:13013   */\n      0x00\n        /* \"#utility.yul\":13026:13241   */\n    tag_245:\n        /* \"#utility.yul\":13040:13047   */\n      dup3\n        /* \"#utility.yul\":13037:13038   */\n      dup2\n        /* \"#utility.yul\":13034:13048   */\n      lt\n        /* \"#utility.yul\":13026:13241   */\n      iszero\n      tag_247\n      jumpi\n        /* \"#utility.yul\":13126:13135   */\n      dup5\n        /* \"#utility.yul\":13121:13124   */\n      dup10\n        /* \"#utility.yul\":13117:13136   */\n      add\n        /* \"#utility.yul\":13104:13137   */\n      calldataload\n        /* \"#utility.yul\":13096:13102   */\n      dup3\n        /* \"#utility.yul\":13089:13138   */\n      sstore\n        /* \"#utility.yul\":13177:13178   */\n      0x01\n        /* \"#utility.yul\":13169:13175   */\n      dup3\n        /* \"#utility.yul\":13165:13179   */\n      add\n        /* \"#utility.yul\":13155:13179   */\n      swap2\n      pop\n        /* \"#utility.yul\":13224:13226   */\n      0x20\n        /* \"#utility.yul\":13213:13222   */\n      dup6\n        /* \"#utility.yul\":13209:13227   */\n      add\n        /* \"#utility.yul\":13196:13227   */\n      swap5\n      pop\n        /* \"#utility.yul\":13063:13067   */\n      0x20\n        /* \"#utility.yul\":13060:13061   */\n      dup2\n        /* \"#utility.yul\":13056:13068   */\n      add\n        /* \"#utility.yul\":13051:13068   */\n      swap1\n      pop\n        /* \"#utility.yul\":13026:13241   */\n      jump(tag_245)\n    tag_247:\n        /* \"#utility.yul\":13269:13275   */\n      dup7\n        /* \"#utility.yul\":13260:13267   */\n      dup4\n        /* \"#utility.yul\":13257:13276   */\n      lt\n        /* \"#utility.yul\":13254:13440   */\n      iszero\n      tag_248\n      jumpi\n        /* \"#utility.yul\":13334:13343   */\n      dup5\n        /* \"#utility.yul\":13329:13332   */\n      dup10\n        /* \"#utility.yul\":13325:13344   */\n      add\n        /* \"#utility.yul\":13312:13345   */\n      calldataload\n        /* \"#utility.yul\":13377:13425   */\n      tag_249\n        /* \"#utility.yul\":13419:13423   */\n      0x1f\n        /* \"#utility.yul\":13411:13417   */\n      dup10\n        /* \"#utility.yul\":13407:13424   */\n      and\n        /* \"#utility.yul\":13396:13405   */\n      dup3\n        /* \"#utility.yul\":13377:13425   */\n      tag_98\n      jump\t// in\n    tag_249:\n        /* \"#utility.yul\":13369:13375   */\n      dup4\n        /* \"#utility.yul\":13362:13426   */\n      sstore\n        /* \"#utility.yul\":13277:13440   */\n      pop\n        /* \"#utility.yul\":13254:13440   */\n    tag_248:\n        /* \"#utility.yul\":13486:13487   */\n      0x01\n        /* \"#utility.yul\":13482:13483   */\n      0x02\n        /* \"#utility.yul\":13474:13480   */\n      dup9\n        /* \"#utility.yul\":13470:13484   */\n      mul\n        /* \"#utility.yul\":13466:13488   */\n      add\n        /* \"#utility.yul\":13460:13464   */\n      dup9\n        /* \"#utility.yul\":13453:13489   */\n      sstore\n        /* \"#utility.yul\":12874:13499   */\n      pop\n      pop\n      pop\n        /* \"#utility.yul\":12837:13745   */\n    tag_240:\n      pop\n        /* \"#utility.yul\":12447:13751   */\n      pop\n      pop\n      pop\n        /* \"#utility.yul\":12348:13751   */\n      pop\n      pop\n      pop\n      jump\t// out\n\n    auxdata: 0xa264697066735822122058983a6558fa1a2bcf50e8f7bea2e642279d9ede232b4d3ef570dbc11071441b64736f6c634300081a0033\n}\n",
				"bytecode": {
					"linkReferences": {},
					"object": "6080604052348015600e575f80fd5b50610ab28061001c5f395ff3fe608060405234801561000f575f80fd5b506004361061004a575f3560e01c80630f8fa3261461004e5780638e3269931461007f578063b6a46b3b1461009b578063cd111614146100b7575b5f80fd5b6100686004803603810190610063919061039a565b6100d3565b60405161007692919061044f565b60405180910390f35b610099600480360381019061009491906104de565b610193565b005b6100b560048036038101906100b091906104de565b61026f565b005b6100d160048036038101906100cc9190610529565b610329565b005b5f81815481106100e1575f80fd5b905f5260205f2090600202015f91509050805f018054610100906105b3565b80601f016020809104026020016040519081016040528092919081815260200182805461012c906105b3565b80156101775780601f1061014e57610100808354040283529160200191610177565b820191905f5260205f20905b81548152906001019060200180831161015a57829003601f168201915b505050505090806001015f9054906101000a900460ff16905082565b5f5b5f8054905081101561026a5782826040516101b192919061061f565b60405180910390205f82815481106101cc576101cb610637565b5b905f5260205f2090600202015f016040516101e791906106f6565b60405180910390200361025d575f818154811061020757610206610637565b5b905f5260205f2090600202016001015f9054906101000a900460ff16155f828154811061023757610236610637565b5b905f5260205f2090600202016001015f6101000a81548160ff0219169083151502179055505b8080600101915050610195565b505050565b5f604051806040016040528084848080601f0160208091040260200160405190810160405280939291908181526020018383808284375f81840152601f19601f8201169050808301925050505050505081526020015f1515815250908060018154018082558091505060019003905f5260205f2090600202015f909190919091505f820151815f01908161030391906108d6565b506020820151816001015f6101000a81548160ff02191690831515021790555050505050565b81815f858154811061033e5761033d610637565b5b905f5260205f2090600202015f0191826103599291906109af565b50505050565b5f80fd5b5f80fd5b5f819050919050565b61037981610367565b8114610383575f80fd5b50565b5f8135905061039481610370565b92915050565b5f602082840312156103af576103ae61035f565b5b5f6103bc84828501610386565b91505092915050565b5f81519050919050565b5f82825260208201905092915050565b8281835e5f83830152505050565b5f601f19601f8301169050919050565b5f610407826103c5565b61041181856103cf565b93506104218185602086016103df565b61042a816103ed565b840191505092915050565b5f8115159050919050565b61044981610435565b82525050565b5f6040820190508181035f83015261046781856103fd565b90506104766020830184610440565b9392505050565b5f80fd5b5f80fd5b5f80fd5b5f8083601f84011261049e5761049d61047d565b5b8235905067ffffffffffffffff8111156104bb576104ba610481565b5b6020830191508360018202830111156104d7576104d6610485565b5b9250929050565b5f80602083850312156104f4576104f361035f565b5b5f83013567ffffffffffffffff81111561051157610510610363565b5b61051d85828601610489565b92509250509250929050565b5f805f604084860312156105405761053f61035f565b5b5f61054d86828701610386565b935050602084013567ffffffffffffffff81111561056e5761056d610363565b5b61057a86828701610489565b92509250509250925092565b7f4e487b71000000000000000000000000000000000000000000000000000000005f52602260045260245ffd5b5f60028204905060018216806105ca57607f821691505b6020821081036105dd576105dc610586565b5b50919050565b5f81905092915050565b828183375f83830152505050565b5f61060683856105e3565b93506106138385846105ed565b82840190509392505050565b5f61062b8284866105fb565b91508190509392505050565b7f4e487b71000000000000000000000000000000000000000000000000000000005f52603260045260245ffd5b5f819050815f5260205f209050919050565b5f8154610682816105b3565b61068c81866105e3565b9450600182165f81146106a657600181146106bb576106ed565b60ff19831686528115158202860193506106ed565b6106c485610664565b5f5b838110156106e5578154818901526001820191506020810190506106c6565b838801955050505b50505092915050565b5f6107018284610676565b915081905092915050565b7f4e487b71000000000000000000000000000000000000000000000000000000005f52604160045260245ffd5b5f819050815f5260205f209050919050565b5f6020601f8301049050919050565b5f82821b905092915050565b5f600883026107957fffffffffffffffffffffffffffffffffffffffffffffffffffffffffffffffff8261075a565b61079f868361075a565b95508019841693508086168417925050509392505050565b5f819050919050565b5f6107da6107d56107d084610367565b6107b7565b610367565b9050919050565b5f819050919050565b6107f3836107c0565b6108076107ff826107e1565b848454610766565b825550505050565b5f90565b61081b61080f565b6108268184846107ea565b505050565b5b818110156108495761083e5f82610813565b60018101905061082c565b5050565b601f82111561088e5761085f81610739565b6108688461074b565b81016020851015610877578190505b61088b6108838561074b565b83018261082b565b50505b505050565b5f82821c905092915050565b5f6108ae5f1984600802610893565b1980831691505092915050565b5f6108c6838361089f565b9150826002028217905092915050565b6108df826103c5565b67ffffffffffffffff8111156108f8576108f761070c565b5b61090282546105b3565b61090d82828561084d565b5f60209050601f83116001811461093e575f841561092c578287015190505b61093685826108bb565b86555061099d565b601f19841661094c86610739565b5f5b828110156109735784890151825560018201915060208501945060208101905061094e565b86831015610990578489015161098c601f89168261089f565b8355505b6001600288020188555050505b505050505050565b5f82905092915050565b6109b983836109a5565b67ffffffffffffffff8111156109d2576109d161070c565b5b6109dc82546105b3565b6109e782828561084d565b5f601f831160018114610a14575f8415610a02578287013590505b610a0c85826108bb565b865550610a73565b601f198416610a2286610739565b5f5b82811015610a4957848901358255600182019150602085019450602081019050610a24565b86831015610a665784890135610a62601f89168261089f565b8355505b6001600288020188555050505b5050505050505056fea264697066735822122058983a6558fa1a2bcf50e8f7bea2e642279d9ede232b4d3ef570dbc11071441b64736f6c634300081a0033",
					"opcodes": "PUSH1 0x80 PUSH1 0x40 MSTORE CALLVALUE DUP1 ISZERO PUSH1 0xE JUMPI PUSH0 DUP1 REVERT JUMPDEST POP PUSH2 0xAB2 DUP1 PUSH2 0x1C PUSH0 CODECOPY PUSH0 RETURN INVALID PUSH1 0x80 PUSH1 0x40 MSTORE CALLVALUE DUP1 ISZERO PUSH2 0xF JUMPI PUSH0 DUP1 REVERT JUMPDEST POP PUSH1 0x4 CALLDATASIZE LT PUSH2 0x4A JUMPI PUSH0 CALLDATALOAD PUSH1 0xE0 SHR DUP1 PUSH4 0xF8FA326 EQ PUSH2 0x4E JUMPI DUP1 PUSH4 0x8E326993 EQ PUSH2 0x7F JUMPI DUP1 PUSH4 0xB6A46B3B EQ PUSH2 0x9B JUMPI DUP1 PUSH4 0xCD111614 EQ PUSH2 0xB7 JUMPI JUMPDEST PUSH0 DUP1 REVERT JUMPDEST PUSH2 0x68 PUSH1 0x4 DUP1 CALLDATASIZE SUB DUP2 ADD SWAP1 PUSH2 0x63 SWAP2 SWAP1 PUSH2 0x39A JUMP JUMPDEST PUSH2 0xD3 JUMP JUMPDEST PUSH1 0x40 MLOAD PUSH2 0x76 SWAP3 SWAP2 SWAP1 PUSH2 0x44F JUMP JUMPDEST PUSH1 0x40 MLOAD DUP1 SWAP2 SUB SWAP1 RETURN JUMPDEST PUSH2 0x99 PUSH1 0x4 DUP1 CALLDATASIZE SUB DUP2 ADD SWAP1 PUSH2 0x94 SWAP2 SWAP1 PUSH2 0x4DE JUMP JUMPDEST PUSH2 0x193 JUMP JUMPDEST STOP JUMPDEST PUSH2 0xB5 PUSH1 0x4 DUP1 CALLDATASIZE SUB DUP2 ADD SWAP1 PUSH2 0xB0 SWAP2 SWAP1 PUSH2 0x4DE JUMP JUMPDEST PUSH2 0x26F JUMP JUMPDEST STOP JUMPDEST PUSH2 0xD1 PUSH1 0x4 DUP1 CALLDATASIZE SUB DUP2 ADD SWAP1 PUSH2 0xCC SWAP2 SWAP1 PUSH2 0x529 JUMP JUMPDEST PUSH2 0x329 JUMP JUMPDEST STOP JUMPDEST PUSH0 DUP2 DUP2 SLOAD DUP2 LT PUSH2 0xE1 JUMPI PUSH0 DUP1 REVERT JUMPDEST SWAP1 PUSH0 MSTORE PUSH1 0x20 PUSH0 KECCAK256 SWAP1 PUSH1 0x2 MUL ADD PUSH0 SWAP2 POP SWAP1 POP DUP1 PUSH0 ADD DUP1 SLOAD PUSH2 0x100 SWAP1 PUSH2 0x5B3 JUMP JUMPDEST DUP1 PUSH1 0x1F ADD PUSH1 0x20 DUP1 SWAP2 DIV MUL PUSH1 0x20 ADD PUSH1 0x40 MLOAD SWAP1 DUP2 ADD PUSH1 0x40 MSTORE DUP1 SWAP3 SWAP2 SWAP1 DUP2 DUP2 MSTORE PUSH1 0x20 ADD DUP3 DUP1 SLOAD PUSH2 0x12C SWAP1 PUSH2 0x5B3 JUMP JUMPDEST DUP1 ISZERO PUSH2 0x177 JUMPI DUP1 PUSH1 0x1F LT PUSH2 0x14E JUMPI PUSH2 0x100 DUP1 DUP4 SLOAD DIV MUL DUP4 MSTORE SWAP2 PUSH1 0x20 ADD SWAP2 PUSH2 0x177 JUMP JUMPDEST DUP3 ADD SWAP2 SWAP1 PUSH0 MSTORE PUSH1 0x20 PUSH0 KECCAK256 SWAP1 JUMPDEST DUP2 SLOAD DUP2 MSTORE SWAP1 PUSH1 0x1 ADD SWAP1 PUSH1 0x20 ADD DUP1 DUP4 GT PUSH2 0x15A JUMPI DUP3 SWAP1 SUB PUSH1 0x1F AND DUP3 ADD SWAP2 JUMPDEST POP POP POP POP POP SWAP1 DUP1 PUSH1 0x1 ADD PUSH0 SWAP1 SLOAD SWAP1 PUSH2 0x100 EXP SWAP1 DIV PUSH1 0xFF AND SWAP1 POP DUP3 JUMP JUMPDEST PUSH0 JUMPDEST PUSH0 DUP1 SLOAD SWAP1 POP DUP2 LT ISZERO PUSH2 0x26A JUMPI DUP3 DUP3 PUSH1 0x40 MLOAD PUSH2 0x1B1 SWAP3 SWAP2 SWAP1 PUSH2 0x61F JUMP JUMPDEST PUSH1 0x40 MLOAD DUP1 SWAP2 SUB SWAP1 KECCAK256 PUSH0 DUP3 DUP2 SLOAD DUP2 LT PUSH2 0x1CC JUMPI PUSH2 0x1CB PUSH2 0x637 JUMP JUMPDEST JUMPDEST SWAP1 PUSH0 MSTORE PUSH1 0x20 PUSH0 KECCAK256 SWAP1 PUSH1 0x2 MUL ADD PUSH0 ADD PUSH1 0x40 MLOAD PUSH2 0x1E7 SWAP2 SWAP1 PUSH2 0x6F6 JUMP JUMPDEST PUSH1 0x40 MLOAD DUP1 SWAP2 SUB SWAP1 KECCAK256 SUB PUSH2 0x25D JUMPI PUSH0 DUP2 DUP2 SLOAD DUP2 LT PUSH2 0x207 JUMPI PUSH2 0x206 PUSH2 0x637 JUMP JUMPDEST JUMPDEST SWAP1 PUSH0 MSTORE PUSH1 0x20 PUSH0 KECCAK256 SWAP1 PUSH1 0x2 MUL ADD PUSH1 0x1 ADD PUSH0 SWAP1 SLOAD SWAP1 PUSH2 0x100 EXP SWAP1 DIV PUSH1 0xFF AND ISZERO PUSH0 DUP3 DUP2 SLOAD DUP2 LT PUSH2 0x237 JUMPI PUSH2 0x236 PUSH2 0x637 JUMP JUMPDEST JUMPDEST SWAP1 PUSH0 MSTORE PUSH1 0x20 PUSH0 KECCAK256 SWAP1 PUSH1 0x2 MUL ADD PUSH1 0x1 ADD PUSH0 PUSH2 0x100 EXP DUP2 SLOAD DUP2 PUSH1 0xFF MUL NOT AND SWAP1 DUP4 ISZERO ISZERO MUL OR SWAP1 SSTORE POP JUMPDEST DUP1 DUP1 PUSH1 0x1 ADD SWAP2 POP POP PUSH2 0x195 JUMP JUMPDEST POP POP POP JUMP JUMPDEST PUSH0 PUSH1 0x40 MLOAD DUP1 PUSH1 0x40 ADD PUSH1 0x40 MSTORE DUP1 DUP5 DUP5 DUP1 DUP1 PUSH1 0x1F ADD PUSH1 0x20 DUP1 SWAP2 DIV MUL PUSH1 0x20 ADD PUSH1 0x40 MLOAD SWAP1 DUP2 ADD PUSH1 0x40 MSTORE DUP1 SWAP4 SWAP3 SWAP2 SWAP1 DUP2 DUP2 MSTORE PUSH1 0x20 ADD DUP4 DUP4 DUP1 DUP3 DUP5 CALLDATACOPY PUSH0 DUP2 DUP5 ADD MSTORE PUSH1 0x1F NOT PUSH1 0x1F DUP3 ADD AND SWAP1 POP DUP1 DUP4 ADD SWAP3 POP POP POP POP POP POP POP DUP2 MSTORE PUSH1 0x20 ADD PUSH0 ISZERO ISZERO DUP2 MSTORE POP SWAP1 DUP1 PUSH1 0x1 DUP2 SLOAD ADD DUP1 DUP3 SSTORE DUP1 SWAP2 POP POP PUSH1 0x1 SWAP1 SUB SWAP1 PUSH0 MSTORE PUSH1 0x20 PUSH0 KECCAK256 SWAP1 PUSH1 0x2 MUL ADD PUSH0 SWAP1 SWAP2 SWAP1 SWAP2 SWAP1 SWAP2 POP PUSH0 DUP3 ADD MLOAD DUP2 PUSH0 ADD SWAP1 DUP2 PUSH2 0x303 SWAP2 SWAP1 PUSH2 0x8D6 JUMP JUMPDEST POP PUSH1 0x20 DUP3 ADD MLOAD DUP2 PUSH1 0x1 ADD PUSH0 PUSH2 0x100 EXP DUP2 SLOAD DUP2 PUSH1 0xFF MUL NOT AND SWAP1 DUP4 ISZERO ISZERO MUL OR SWAP1 SSTORE POP POP POP POP POP JUMP JUMPDEST DUP2 DUP2 PUSH0 DUP6 DUP2 SLOAD DUP2 LT PUSH2 0x33E JUMPI PUSH2 0x33D PUSH2 0x637 JUMP JUMPDEST JUMPDEST SWAP1 PUSH0 MSTORE PUSH1 0x20 PUSH0 KECCAK256 SWAP1 PUSH1 0x2 MUL ADD PUSH0 ADD SWAP2 DUP3 PUSH2 0x359 SWAP3 SWAP2 SWAP1 PUSH2 0x9AF JUMP JUMPDEST POP POP POP POP JUMP JUMPDEST PUSH0 DUP1 REVERT JUMPDEST PUSH0 DUP1 REVERT JUMPDEST PUSH0 DUP2 SWAP1 POP SWAP2 SWAP1 POP JUMP JUMPDEST PUSH2 0x379 DUP2 PUSH2 0x367 JUMP JUMPDEST DUP2 EQ PUSH2 0x383 JUMPI PUSH0 DUP1 REVERT JUMPDEST POP JUMP JUMPDEST PUSH0 DUP2 CALLDATALOAD SWAP1 POP PUSH2 0x394 DUP2 PUSH2 0x370 JUMP JUMPDEST SWAP3 SWAP2 POP POP JUMP JUMPDEST PUSH0 PUSH1 0x20 DUP3 DUP5 SUB SLT ISZERO PUSH2 0x3AF JUMPI PUSH2 0x3AE PUSH2 0x35F JUMP JUMPDEST JUMPDEST PUSH0 PUSH2 0x3BC DUP5 DUP3 DUP6 ADD PUSH2 0x386 JUMP JUMPDEST SWAP2 POP POP SWAP3 SWAP2 POP POP JUMP JUMPDEST PUSH0 DUP2 MLOAD SWAP1 POP SWAP2 SWAP1 POP JUMP JUMPDEST PUSH0 DUP3 DUP3 MSTORE PUSH1 0x20 DUP3 ADD SWAP1 POP SWAP3 SWAP2 POP POP JUMP JUMPDEST DUP3 DUP2 DUP4 MCOPY PUSH0 DUP4 DUP4 ADD MSTORE POP POP POP JUMP JUMPDEST PUSH0 PUSH1 0x1F NOT PUSH1 0x1F DUP4 ADD AND SWAP1 POP SWAP2 SWAP1 POP JUMP JUMPDEST PUSH0 PUSH2 0x407 DUP3 PUSH2 0x3C5 JUMP JUMPDEST PUSH2 0x411 DUP2 DUP6 PUSH2 0x3CF JUMP JUMPDEST SWAP4 POP PUSH2 0x421 DUP2 DUP6 PUSH1 0x20 DUP7 ADD PUSH2 0x3DF JUMP JUMPDEST PUSH2 0x42A DUP2 PUSH2 0x3ED JUMP JUMPDEST DUP5 ADD SWAP2 POP POP SWAP3 SWAP2 POP POP JUMP JUMPDEST PUSH0 DUP2 ISZERO ISZERO SWAP1 POP SWAP2 SWAP1 POP JUMP JUMPDEST PUSH2 0x449 DUP2 PUSH2 0x435 JUMP JUMPDEST DUP3 MSTORE POP POP JUMP JUMPDEST PUSH0 PUSH1 0x40 DUP3 ADD SWAP1 POP DUP2 DUP2 SUB PUSH0 DUP4 ADD MSTORE PUSH2 0x467 DUP2 DUP6 PUSH2 0x3FD JUMP JUMPDEST SWAP1 POP PUSH2 0x476 PUSH1 0x20 DUP4 ADD DUP5 PUSH2 0x440 JUMP JUMPDEST SWAP4 SWAP3 POP POP POP JUMP JUMPDEST PUSH0 DUP1 REVERT JUMPDEST PUSH0 DUP1 REVERT JUMPDEST PUSH0 DUP1 REVERT JUMPDEST PUSH0 DUP1 DUP4 PUSH1 0x1F DUP5 ADD SLT PUSH2 0x49E JUMPI PUSH2 0x49D PUSH2 0x47D JUMP JUMPDEST JUMPDEST DUP3 CALLDATALOAD SWAP1 POP PUSH8 0xFFFFFFFFFFFFFFFF DUP2 GT ISZERO PUSH2 0x4BB JUMPI PUSH2 0x4BA PUSH2 0x481 JUMP JUMPDEST JUMPDEST PUSH1 0x20 DUP4 ADD SWAP2 POP DUP4 PUSH1 0x1 DUP3 MUL DUP4 ADD GT ISZERO PUSH2 0x4D7 JUMPI PUSH2 0x4D6 PUSH2 0x485 JUMP JUMPDEST JUMPDEST SWAP3 POP SWAP3 SWAP1 POP JUMP JUMPDEST PUSH0 DUP1 PUSH1 0x20 DUP4 DUP6 SUB SLT ISZERO PUSH2 0x4F4 JUMPI PUSH2 0x4F3 PUSH2 0x35F JUMP JUMPDEST JUMPDEST PUSH0 DUP4 ADD CALLDATALOAD PUSH8 0xFFFFFFFFFFFFFFFF DUP2 GT ISZERO PUSH2 0x511 JUMPI PUSH2 0x510 PUSH2 0x363 JUMP JUMPDEST JUMPDEST PUSH2 0x51D DUP6 DUP3 DUP7 ADD PUSH2 0x489 JUMP JUMPDEST SWAP3 POP SWAP3 POP POP SWAP3 POP SWAP3 SWAP1 POP JUMP JUMPDEST PUSH0 DUP1 PUSH0 PUSH1 0x40 DUP5 DUP7 SUB SLT ISZERO PUSH2 0x540 JUMPI PUSH2 0x53F PUSH2 0x35F JUMP JUMPDEST JUMPDEST PUSH0 PUSH2 0x54D DUP7 DUP3 DUP8 ADD PUSH2 0x386 JUMP JUMPDEST SWAP4 POP POP PUSH1 0x20 DUP5 ADD CALLDATALOAD PUSH8 0xFFFFFFFFFFFFFFFF DUP2 GT ISZERO PUSH2 0x56E JUMPI PUSH2 0x56D PUSH2 0x363 JUMP JUMPDEST JUMPDEST PUSH2 0x57A DUP7 DUP3 DUP8 ADD PUSH2 0x489 JUMP JUMPDEST SWAP3 POP SWAP3 POP POP SWAP3 POP SWAP3 POP SWAP3 JUMP JUMPDEST PUSH32 0x4E487B7100000000000000000000000000000000000000000000000000000000 PUSH0 MSTORE PUSH1 0x22 PUSH1 0x4 MSTORE PUSH1 0x24 PUSH0 REVERT JUMPDEST PUSH0 PUSH1 0x2 DUP3 DIV SWAP1 POP PUSH1 0x1 DUP3 AND DUP1 PUSH2 0x5CA JUMPI PUSH1 0x7F DUP3 AND SWAP2 POP JUMPDEST PUSH1 0x20 DUP3 LT DUP2 SUB PUSH2 0x5DD JUMPI PUSH2 0x5DC PUSH2 0x586 JUMP JUMPDEST JUMPDEST POP SWAP2 SWAP1 POP JUMP JUMPDEST PUSH0 DUP2 SWAP1 POP SWAP3 SWAP2 POP POP JUMP JUMPDEST DUP3 DUP2 DUP4 CALLDATACOPY PUSH0 DUP4 DUP4 ADD MSTORE POP POP POP JUMP JUMPDEST PUSH0 PUSH2 0x606 DUP4 DUP6 PUSH2 0x5E3 JUMP JUMPDEST SWAP4 POP PUSH2 0x613 DUP4 DUP6 DUP5 PUSH2 0x5ED JUMP JUMPDEST DUP3 DUP5 ADD SWAP1 POP SWAP4 SWAP3 POP POP POP JUMP JUMPDEST PUSH0 PUSH2 0x62B DUP3 DUP5 DUP7 PUSH2 0x5FB JUMP JUMPDEST SWAP2 POP DUP2 SWAP1 POP SWAP4 SWAP3 POP POP POP JUMP JUMPDEST PUSH32 0x4E487B7100000000000000000000000000000000000000000000000000000000 PUSH0 MSTORE PUSH1 0x32 PUSH1 0x4 MSTORE PUSH1 0x24 PUSH0 REVERT JUMPDEST PUSH0 DUP2 SWAP1 POP DUP2 PUSH0 MSTORE PUSH1 0x20 PUSH0 KECCAK256 SWAP1 POP SWAP2 SWAP1 POP JUMP JUMPDEST PUSH0 DUP2 SLOAD PUSH2 0x682 DUP2 PUSH2 0x5B3 JUMP JUMPDEST PUSH2 0x68C DUP2 DUP7 PUSH2 0x5E3 JUMP JUMPDEST SWAP5 POP PUSH1 0x1 DUP3 AND PUSH0 DUP2 EQ PUSH2 0x6A6 JUMPI PUSH1 0x1 DUP2 EQ PUSH2 0x6BB JUMPI PUSH2 0x6ED JUMP JUMPDEST PUSH1 0xFF NOT DUP4 AND DUP7 MSTORE DUP2 ISZERO ISZERO DUP3 MUL DUP7 ADD SWAP4 POP PUSH2 0x6ED JUMP JUMPDEST PUSH2 0x6C4 DUP6 PUSH2 0x664 JUMP JUMPDEST PUSH0 JUMPDEST DUP4 DUP2 LT ISZERO PUSH2 0x6E5 JUMPI DUP2 SLOAD DUP2 DUP10 ADD MSTORE PUSH1 0x1 DUP3 ADD SWAP2 POP PUSH1 0x20 DUP2 ADD SWAP1 POP PUSH2 0x6C6 JUMP JUMPDEST DUP4 DUP9 ADD SWAP6 POP POP POP JUMPDEST POP POP POP SWAP3 SWAP2 POP POP JUMP JUMPDEST PUSH0 PUSH2 0x701 DUP3 DUP5 PUSH2 0x676 JUMP JUMPDEST SWAP2 POP DUP2 SWAP1 POP SWAP3 SWAP2 POP POP JUMP JUMPDEST PUSH32 0x4E487B7100000000000000000000000000000000000000000000000000000000 PUSH0 MSTORE PUSH1 0x41 PUSH1 0x4 MSTORE PUSH1 0x24 PUSH0 REVERT JUMPDEST PUSH0 DUP2 SWAP1 POP DUP2 PUSH0 MSTORE PUSH1 0x20 PUSH0 KECCAK256 SWAP1 POP SWAP2 SWAP1 POP JUMP JUMPDEST PUSH0 PUSH1 0x20 PUSH1 0x1F DUP4 ADD DIV SWAP1 POP SWAP2 SWAP1 POP JUMP JUMPDEST PUSH0 DUP3 DUP3 SHL SWAP1 POP SWAP3 SWAP2 POP POP JUMP JUMPDEST PUSH0 PUSH1 0x8 DUP4 MUL PUSH2 0x795 PUSH32 0xFFFFFFFFFFFFFFFFFFFFFFFFFFFFFFFFFFFFFFFFFFFFFFFFFFFFFFFFFFFFFFFF DUP3 PUSH2 0x75A JUMP JUMPDEST PUSH2 0x79F DUP7 DUP4 PUSH2 0x75A JUMP JUMPDEST SWAP6 POP DUP1 NOT DUP5 AND SWAP4 POP DUP1 DUP7 AND DUP5 OR SWAP3 POP POP POP SWAP4 SWAP3 POP POP POP JUMP JUMPDEST PUSH0 DUP2 SWAP1 POP SWAP2 SWAP1 POP JUMP JUMPDEST PUSH0 PUSH2 0x7DA PUSH2 0x7D5 PUSH2 0x7D0 DUP5 PUSH2 0x367 JUMP JUMPDEST PUSH2 0x7B7 JUMP JUMPDEST PUSH2 0x367 JUMP JUMPDEST SWAP1 POP SWAP2 SWAP1 POP JUMP JUMPDEST PUSH0 DUP2 SWAP1 POP SWAP2 SWAP1 POP JUMP JUMPDEST PUSH2 0x7F3 DUP4 PUSH2 0x7C0 JUMP JUMPDEST PUSH2 0x807 PUSH2 0x7FF DUP3 PUSH2 0x7E1 JUMP JUMPDEST DUP5 DUP5 SLOAD PUSH2 0x766 JUMP JUMPDEST DUP3 SSTORE POP POP POP POP JUMP JUMPDEST PUSH0 SWAP1 JUMP JUMPDEST PUSH2 0x81B PUSH2 0x80F JUMP JUMPDEST PUSH2 0x826 DUP2 DUP5 DUP5 PUSH2 0x7EA JUMP JUMPDEST POP POP POP JUMP JUMPDEST JUMPDEST DUP2 DUP2 LT ISZERO PUSH2 0x849 JUMPI PUSH2 0x83E PUSH0 DUP3 PUSH2 0x813 JUMP JUMPDEST PUSH1 0x1 DUP2 ADD SWAP1 POP PUSH2 0x82C JUMP JUMPDEST POP POP JUMP JUMPDEST PUSH1 0x1F DUP3 GT ISZERO PUSH2 0x88E JUMPI PUSH2 0x85F DUP2 PUSH2 0x739 JUMP JUMPDEST PUSH2 0x868 DUP5 PUSH2 0x74B JUMP JUMPDEST DUP2 ADD PUSH1 0x20 DUP6 LT ISZERO PUSH2 0x877 JUMPI DUP2 SWAP1 POP JUMPDEST PUSH2 0x88B PUSH2 0x883 DUP6 PUSH2 0x74B JUMP JUMPDEST DUP4 ADD DUP3 PUSH2 0x82B JUMP JUMPDEST POP POP JUMPDEST POP POP POP JUMP JUMPDEST PUSH0 DUP3 DUP3 SHR SWAP1 POP SWAP3 SWAP2 POP POP JUMP JUMPDEST PUSH0 PUSH2 0x8AE PUSH0 NOT DUP5 PUSH1 0x8 MUL PUSH2 0x893 JUMP JUMPDEST NOT DUP1 DUP4 AND SWAP2 POP POP SWAP3 SWAP2 POP POP JUMP JUMPDEST PUSH0 PUSH2 0x8C6 DUP4 DUP4 PUSH2 0x89F JUMP JUMPDEST SWAP2 POP DUP3 PUSH1 0x2 MUL DUP3 OR SWAP1 POP SWAP3 SWAP2 POP POP JUMP JUMPDEST PUSH2 0x8DF DUP3 PUSH2 0x3C5 JUMP JUMPDEST PUSH8 0xFFFFFFFFFFFFFFFF DUP2 GT ISZERO PUSH2 0x8F8 JUMPI PUSH2 0x8F7 PUSH2 0x70C JUMP JUMPDEST JUMPDEST PUSH2 0x902 DUP3 SLOAD PUSH2 0x5B3 JUMP JUMPDEST PUSH2 0x90D DUP3 DUP3 DUP6 PUSH2 0x84D JUMP JUMPDEST PUSH0 PUSH1 0x20 SWAP1 POP PUSH1 0x1F DUP4 GT PUSH1 0x1 DUP2 EQ PUSH2 0x93E JUMPI PUSH0 DUP5 ISZERO PUSH2 0x92C JUMPI DUP3 DUP8 ADD MLOAD SWAP1 POP JUMPDEST PUSH2 0x936 DUP6 DUP3 PUSH2 0x8BB JUMP JUMPDEST DUP7 SSTORE POP PUSH2 0x99D JUMP JUMPDEST PUSH1 0x1F NOT DUP5 AND PUSH2 0x94C DUP7 PUSH2 0x739 JUMP JUMPDEST PUSH0 JUMPDEST DUP3 DUP2 LT ISZERO PUSH2 0x973 JUMPI DUP5 DUP10 ADD MLOAD DUP3 SSTORE PUSH1 0x1 DUP3 ADD SWAP2 POP PUSH1 0x20 DUP6 ADD SWAP5 POP PUSH1 0x20 DUP2 ADD SWAP1 POP PUSH2 0x94E JUMP JUMPDEST DUP7 DUP4 LT ISZERO PUSH2 0x990 JUMPI DUP5 DUP10 ADD MLOAD PUSH2 0x98C PUSH1 0x1F DUP10 AND DUP3 PUSH2 0x89F JUMP JUMPDEST DUP4 SSTORE POP JUMPDEST PUSH1 0x1 PUSH1 0x2 DUP9 MUL ADD DUP9 SSTORE POP POP POP JUMPDEST POP POP POP POP POP POP JUMP JUMPDEST PUSH0 DUP3 SWAP1 POP SWAP3 SWAP2 POP POP JUMP JUMPDEST PUSH2 0x9B9 DUP4 DUP4 PUSH2 0x9A5 JUMP JUMPDEST PUSH8 0xFFFFFFFFFFFFFFFF DUP2 GT ISZERO PUSH2 0x9D2 JUMPI PUSH2 0x9D1 PUSH2 0x70C JUMP JUMPDEST JUMPDEST PUSH2 0x9DC DUP3 SLOAD PUSH2 0x5B3 JUMP JUMPDEST PUSH2 0x9E7 DUP3 DUP3 DUP6 PUSH2 0x84D JUMP JUMPDEST PUSH0 PUSH1 0x1F DUP4 GT PUSH1 0x1 DUP2 EQ PUSH2 0xA14 JUMPI PUSH0 DUP5 ISZERO PUSH2 0xA02 JUMPI DUP3 DUP8 ADD CALLDATALOAD SWAP1 POP JUMPDEST PUSH2 0xA0C DUP6 DUP3 PUSH2 0x8BB JUMP JUMPDEST DUP7 SSTORE POP PUSH2 0xA73 JUMP JUMPDEST PUSH1 0x1F NOT DUP5 AND PUSH2 0xA22 DUP7 PUSH2 0x739 JUMP JUMPDEST PUSH0 JUMPDEST DUP3 DUP2 LT ISZERO PUSH2 0xA49 JUMPI DUP5 DUP10 ADD CALLDATALOAD DUP3 SSTORE PUSH1 0x1 DUP3 ADD SWAP2 POP PUSH1 0x20 DUP6 ADD SWAP5 POP PUSH1 0x20 DUP2 ADD SWAP1 POP PUSH2 0xA24 JUMP JUMPDEST DUP7 DUP4 LT ISZERO PUSH2 0xA66 JUMPI DUP5 DUP10 ADD CALLDATALOAD PUSH2 0xA62 PUSH1 0x1F DUP10 AND DUP3 PUSH2 0x89F JUMP JUMPDEST DUP4 SSTORE POP JUMPDEST PUSH1 0x1 PUSH1 0x2 DUP9 MUL ADD DUP9 SSTORE POP POP POP JUMPDEST POP POP POP POP POP POP POP JUMP INVALID LOG2 PUSH5 0x6970667358 0x22 SLT KECCAK256 PC SWAP9 GASPRICE PUSH6 0x58FA1A2BCF50 0xE8 0xF7 0xBE LOG2 0xE6 TIMESTAMP 0x27 SWAP14 SWAP15 0xDE 0x23 0x2B 0x4D RETURNDATACOPY CREATE2 PUSH17 0xDBC11071441B64736F6C634300081A0033 "
				},
				"gasEstimates": {
					"creation": {
						"codeDepositCost": "547600",
						"executionCost": "579",
						"totalCost": "548179"
					},
					"external": {
						"create(string)": "infinite",
						"todolist(uint256)": "infinite",
						"updateCompleted(string)": "infinite",
						"updateText(uint256,string)": "infinite"
					}
				},
				"methodIdentifiers": {
					"create(string)": "b6a46b3b",
					"todolist(uint256)": "0f8fa326",
					"updateCompleted(string)": "8e326993",
					"updateText(uint256,string)": "cd111614"
				}
			},
			"storageLayout": {
				"storage": [
					{
						"astId": 10,
						"contract": "经典用例/15.struct.sol:structtt",
						"label": "todolist",
						"offset": 0,
						"slot": "0",
						"type": "t_array(t_struct(Todo)6_storage)dyn_storage"
					}
				],
				"types": {
					"t_array(t_struct(Todo)6_storage)dyn_storage": {
						"base": "t_struct(Todo)6_storage",
						"encoding": "dynamic_array",
						"label": "struct structtt.Todo[]",
						"numberOfBytes": "32"
					},
					"t_bool": {
						"encoding": "inplace",
						"label": "bool",
						"numberOfBytes": "1"
					},
					"t_string_storage": {
						"encoding": "bytes",
						"label": "string",
						"numberOfBytes": "32"
					},
					"t_struct(Todo)6_storage": {
						"encoding": "inplace",
						"label": "struct structtt.Todo",
						"members": [
							{
								"astId": 3,
								"contract": "经典用例/15.struct.sol:structtt",
								"label": "text",
								"offset": 0,
								"slot": "0",
								"type": "t_string_storage"
							},
							{
								"astId": 5,
								"contract": "经典用例/15.struct.sol:structtt",
								"label": "completed",
								"offset": 0,
								"slot": "1",
								"type": "t_bool"
							}
						],
						"numberOfBytes": "64"
					}
				}
			},
			"userdoc": {
				"kind": "user",
				"methods": {},
				"version": 1
			}
		}
	}
}