{
	"经典用例/14.Enum.sol": {
		"Enummmm": {
			"abi": [
				{
					"inputs": [],
					"name": "cancel",
					"outputs": [],
					"stateMutability": "nonpayable",
					"type": "function"
				},
				{
					"inputs": [],
					"name": "get",
					"outputs": [
						{
							"internalType": "enum Enummmm.State",
							"name": "",
							"type": "uint8"
						}
					],
					"stateMutability": "view",
					"type": "function"
				},
				{
					"inputs": [],
					"name": "reset",
					"outputs": [],
					"stateMutability": "nonpayable",
					"type": "function"
				},
				{
					"inputs": [
						{
							"internalType": "enum Enummmm.State",
							"name": "_state",
							"type": "uint8"
						}
					],
					"name": "set",
					"outputs": [],
					"stateMutability": "nonpayable",
					"type": "function"
				},
				{
					"inputs": [],
					"name": "state",
					"outputs": [
						{
							"internalType": "enum Enummmm.State",
							"name": "",
							"type": "uint8"
						}
					],
					"stateMutability": "view",
					"type": "function"
				}
			],
			"devdoc": {
				"kind": "dev",
				"methods": {},
				"version": 1
			},
			"evm": {
				"assembly": "    /* \"\\xe7\\xbb\\x8f\\xe5\\x85\\xb8\\xe7\\x94\\xa8\\xe4\\xbe\\x8b/14.Enum.sol\":60:506  contract Enummmm{... */\n  mstore(0x40, 0x80)\n  callvalue\n  dup1\n  iszero\n  tag_1\n  jumpi\n  0x00\n  dup1\n  revert\ntag_1:\n  pop\n  dataSize(sub_0)\n  dup1\n  dataOffset(sub_0)\n  0x00\n  codecopy\n  0x00\n  return\nstop\n\nsub_0: assembly {\n        /* \"\\xe7\\xbb\\x8f\\xe5\\x85\\xb8\\xe7\\x94\\xa8\\xe4\\xbe\\x8b/14.Enum.sol\":60:506  contract Enummmm{... */\n      mstore(0x40, 0x80)\n      callvalue\n      dup1\n      iszero\n      tag_1\n      jumpi\n      0x00\n      dup1\n      revert\n    tag_1:\n      pop\n      jumpi(tag_2, lt(calldatasize, 0x04))\n      shr(0xe0, calldataload(0x00))\n      dup1\n      0x24b8ba5f\n      eq\n      tag_3\n      jumpi\n      dup1\n      0x6d4ce63c\n      eq\n      tag_4\n      jumpi\n      dup1\n      0xc19d93fb\n      eq\n      tag_5\n      jumpi\n      dup1\n      0xd826f88f\n      eq\n      tag_6\n      jumpi\n      dup1\n      0xea8a1af0\n      eq\n      tag_7\n      jumpi\n    tag_2:\n      0x00\n      dup1\n      revert\n        /* \"\\xe7\\xbb\\x8f\\xe5\\x85\\xb8\\xe7\\x94\\xa8\\xe4\\xbe\\x8b/14.Enum.sol\":304:371  function set(State _state) public {... */\n    tag_3:\n      tag_8\n      0x04\n      dup1\n      calldatasize\n      sub\n      dup2\n      add\n      swap1\n      tag_9\n      swap2\n      swap1\n      tag_10\n      jump\t// in\n    tag_9:\n      tag_11\n      jump\t// in\n    tag_8:\n      stop\n        /* \"\\xe7\\xbb\\x8f\\xe5\\x85\\xb8\\xe7\\x94\\xa8\\xe4\\xbe\\x8b/14.Enum.sol\":224:298  function get() public view returns (State){... */\n    tag_4:\n      tag_12\n      tag_13\n      jump\t// in\n    tag_12:\n      mload(0x40)\n      tag_14\n      swap2\n      swap1\n      tag_15\n      jump\t// in\n    tag_14:\n      mload(0x40)\n      dup1\n      swap2\n      sub\n      swap1\n      return\n        /* \"\\xe7\\xbb\\x8f\\xe5\\x85\\xb8\\xe7\\x94\\xa8\\xe4\\xbe\\x8b/14.Enum.sol\":199:217  State public state */\n    tag_5:\n      tag_16\n      tag_17\n      jump\t// in\n    tag_16:\n      mload(0x40)\n      tag_18\n      swap2\n      swap1\n      tag_15\n      jump\t// in\n    tag_18:\n      mload(0x40)\n      dup1\n      swap2\n      sub\n      swap1\n      return\n        /* \"\\xe7\\xbb\\x8f\\xe5\\x85\\xb8\\xe7\\x94\\xa8\\xe4\\xbe\\x8b/14.Enum.sol\":449:503  function reset()public {... */\n    tag_6:\n      tag_19\n      tag_20\n      jump\t// in\n    tag_19:\n      stop\n        /* \"\\xe7\\xbb\\x8f\\xe5\\x85\\xb8\\xe7\\x94\\xa8\\xe4\\xbe\\x8b/14.Enum.sol\":377:443  function cancel() public {... */\n    tag_7:\n      tag_21\n      tag_22\n      jump\t// in\n    tag_21:\n      stop\n        /* \"\\xe7\\xbb\\x8f\\xe5\\x85\\xb8\\xe7\\x94\\xa8\\xe4\\xbe\\x8b/14.Enum.sol\":304:371  function set(State _state) public {... */\n    tag_11:\n        /* \"\\xe7\\xbb\\x8f\\xe5\\x85\\xb8\\xe7\\x94\\xa8\\xe4\\xbe\\x8b/14.Enum.sol\":357:363  _state */\n      dup1\n        /* \"\\xe7\\xbb\\x8f\\xe5\\x85\\xb8\\xe7\\x94\\xa8\\xe4\\xbe\\x8b/14.Enum.sol\":349:354  state */\n      0x00\n      dup1\n        /* \"\\xe7\\xbb\\x8f\\xe5\\x85\\xb8\\xe7\\x94\\xa8\\xe4\\xbe\\x8b/14.Enum.sol\":349:363  state = _state */\n      0x0100\n      exp\n      dup2\n      sload\n      dup2\n      0xff\n      mul\n      not\n      and\n      swap1\n      dup4\n      0x04\n      dup2\n      gt\n      iszero\n      tag_24\n      jumpi\n      tag_25\n      tag_26\n      jump\t// in\n    tag_25:\n    tag_24:\n      mul\n      or\n      swap1\n      sstore\n      pop\n        /* \"\\xe7\\xbb\\x8f\\xe5\\x85\\xb8\\xe7\\x94\\xa8\\xe4\\xbe\\x8b/14.Enum.sol\":304:371  function set(State _state) public {... */\n      pop\n      jump\t// out\n        /* \"\\xe7\\xbb\\x8f\\xe5\\x85\\xb8\\xe7\\x94\\xa8\\xe4\\xbe\\x8b/14.Enum.sol\":224:298  function get() public view returns (State){... */\n    tag_13:\n        /* \"\\xe7\\xbb\\x8f\\xe5\\x85\\xb8\\xe7\\x94\\xa8\\xe4\\xbe\\x8b/14.Enum.sol\":260:265  State */\n      0x00\n        /* \"\\xe7\\xbb\\x8f\\xe5\\x85\\xb8\\xe7\\x94\\xa8\\xe4\\xbe\\x8b/14.Enum.sol\":284:289  state */\n      dup1\n      0x00\n      swap1\n      sload\n      swap1\n      0x0100\n      exp\n      swap1\n      div\n      0xff\n      and\n        /* \"\\xe7\\xbb\\x8f\\xe5\\x85\\xb8\\xe7\\x94\\xa8\\xe4\\xbe\\x8b/14.Enum.sol\":277:289  return state */\n      swap1\n      pop\n        /* \"\\xe7\\xbb\\x8f\\xe5\\x85\\xb8\\xe7\\x94\\xa8\\xe4\\xbe\\x8b/14.Enum.sol\":224:298  function get() public view returns (State){... */\n      swap1\n      jump\t// out\n        /* \"\\xe7\\xbb\\x8f\\xe5\\x85\\xb8\\xe7\\x94\\xa8\\xe4\\xbe\\x8b/14.Enum.sol\":199:217  State public state */\n    tag_17:\n      0x00\n      dup1\n      sload\n      swap1\n      0x0100\n      exp\n      swap1\n      div\n      0xff\n      and\n      dup2\n      jump\t// out\n        /* \"\\xe7\\xbb\\x8f\\xe5\\x85\\xb8\\xe7\\x94\\xa8\\xe4\\xbe\\x8b/14.Enum.sol\":449:503  function reset()public {... */\n    tag_20:\n        /* \"\\xe7\\xbb\\x8f\\xe5\\x85\\xb8\\xe7\\x94\\xa8\\xe4\\xbe\\x8b/14.Enum.sol\":490:495  state */\n      0x00\n      dup1\n        /* \"\\xe7\\xbb\\x8f\\xe5\\x85\\xb8\\xe7\\x94\\xa8\\xe4\\xbe\\x8b/14.Enum.sol\":483:495  delete state */\n      0x0100\n      exp\n      dup2\n      sload\n      swap1\n      0xff\n      mul\n      not\n      and\n      swap1\n      sstore\n        /* \"\\xe7\\xbb\\x8f\\xe5\\x85\\xb8\\xe7\\x94\\xa8\\xe4\\xbe\\x8b/14.Enum.sol\":449:503  function reset()public {... */\n      jump\t// out\n        /* \"\\xe7\\xbb\\x8f\\xe5\\x85\\xb8\\xe7\\x94\\xa8\\xe4\\xbe\\x8b/14.Enum.sol\":377:443  function cancel() public {... */\n    tag_22:\n        /* \"\\xe7\\xbb\\x8f\\xe5\\x85\\xb8\\xe7\\x94\\xa8\\xe4\\xbe\\x8b/14.Enum.sol\":421:435  State.Canceled */\n      0x04\n        /* \"\\xe7\\xbb\\x8f\\xe5\\x85\\xb8\\xe7\\x94\\xa8\\xe4\\xbe\\x8b/14.Enum.sol\":413:418  state */\n      0x00\n      dup1\n        /* \"\\xe7\\xbb\\x8f\\xe5\\x85\\xb8\\xe7\\x94\\xa8\\xe4\\xbe\\x8b/14.Enum.sol\":413:435  state = State.Canceled */\n      0x0100\n      exp\n      dup2\n      sload\n      dup2\n      0xff\n      mul\n      not\n      and\n      swap1\n      dup4\n      0x04\n      dup2\n      gt\n      iszero\n      tag_30\n      jumpi\n      tag_31\n      tag_26\n      jump\t// in\n    tag_31:\n    tag_30:\n      mul\n      or\n      swap1\n      sstore\n      pop\n        /* \"\\xe7\\xbb\\x8f\\xe5\\x85\\xb8\\xe7\\x94\\xa8\\xe4\\xbe\\x8b/14.Enum.sol\":377:443  function cancel() public {... */\n      jump\t// out\n        /* \"#utility.yul\":88:205   */\n    tag_33:\n        /* \"#utility.yul\":197:198   */\n      0x00\n        /* \"#utility.yul\":194:195   */\n      dup1\n        /* \"#utility.yul\":187:199   */\n      revert\n        /* \"#utility.yul\":334:440   */\n    tag_35:\n        /* \"#utility.yul\":414:415   */\n      0x05\n        /* \"#utility.yul\":407:412   */\n      dup2\n        /* \"#utility.yul\":404:416   */\n      lt\n        /* \"#utility.yul\":394:434   */\n      tag_46\n      jumpi\n        /* \"#utility.yul\":430:431   */\n      0x00\n        /* \"#utility.yul\":427:428   */\n      dup1\n        /* \"#utility.yul\":420:432   */\n      revert\n        /* \"#utility.yul\":394:434   */\n    tag_46:\n        /* \"#utility.yul\":334:440   */\n      pop\n      jump\t// out\n        /* \"#utility.yul\":446:599   */\n    tag_36:\n        /* \"#utility.yul\":499:504   */\n      0x00\n        /* \"#utility.yul\":537:543   */\n      dup2\n        /* \"#utility.yul\":524:544   */\n      calldataload\n        /* \"#utility.yul\":515:544   */\n      swap1\n      pop\n        /* \"#utility.yul\":553:593   */\n      tag_48\n        /* \"#utility.yul\":587:592   */\n      dup2\n        /* \"#utility.yul\":553:593   */\n      tag_35\n      jump\t// in\n    tag_48:\n        /* \"#utility.yul\":446:599   */\n      swap3\n      swap2\n      pop\n      pop\n      jump\t// out\n        /* \"#utility.yul\":605:948   */\n    tag_10:\n        /* \"#utility.yul\":671:677   */\n      0x00\n        /* \"#utility.yul\":720:722   */\n      0x20\n        /* \"#utility.yul\":708:717   */\n      dup3\n        /* \"#utility.yul\":699:706   */\n      dup5\n        /* \"#utility.yul\":695:718   */\n      sub\n        /* \"#utility.yul\":691:723   */\n      slt\n        /* \"#utility.yul\":688:807   */\n      iszero\n      tag_50\n      jumpi\n        /* \"#utility.yul\":726:805   */\n      tag_51\n      tag_33\n      jump\t// in\n    tag_51:\n        /* \"#utility.yul\":688:807   */\n    tag_50:\n        /* \"#utility.yul\":846:847   */\n      0x00\n        /* \"#utility.yul\":871:931   */\n      tag_52\n        /* \"#utility.yul\":923:930   */\n      dup5\n        /* \"#utility.yul\":914:920   */\n      dup3\n        /* \"#utility.yul\":903:912   */\n      dup6\n        /* \"#utility.yul\":899:921   */\n      add\n        /* \"#utility.yul\":871:931   */\n      tag_36\n      jump\t// in\n    tag_52:\n        /* \"#utility.yul\":861:931   */\n      swap2\n      pop\n        /* \"#utility.yul\":817:941   */\n      pop\n        /* \"#utility.yul\":605:948   */\n      swap3\n      swap2\n      pop\n      pop\n      jump\t// out\n        /* \"#utility.yul\":954:1134   */\n    tag_26:\n        /* \"#utility.yul\":1002:1079   */\n      0x4e487b7100000000000000000000000000000000000000000000000000000000\n        /* \"#utility.yul\":999:1000   */\n      0x00\n        /* \"#utility.yul\":992:1080   */\n      mstore\n        /* \"#utility.yul\":1099:1103   */\n      0x21\n        /* \"#utility.yul\":1096:1097   */\n      0x04\n        /* \"#utility.yul\":1089:1104   */\n      mstore\n        /* \"#utility.yul\":1123:1127   */\n      0x24\n        /* \"#utility.yul\":1120:1121   */\n      0x00\n        /* \"#utility.yul\":1113:1128   */\n      revert\n        /* \"#utility.yul\":1140:1252   */\n    tag_37:\n        /* \"#utility.yul\":1220:1221   */\n      0x05\n        /* \"#utility.yul\":1213:1218   */\n      dup2\n        /* \"#utility.yul\":1210:1222   */\n      lt\n        /* \"#utility.yul\":1200:1246   */\n      tag_55\n      jumpi\n        /* \"#utility.yul\":1226:1244   */\n      tag_56\n      tag_26\n      jump\t// in\n    tag_56:\n        /* \"#utility.yul\":1200:1246   */\n    tag_55:\n        /* \"#utility.yul\":1140:1252   */\n      pop\n      jump\t// out\n        /* \"#utility.yul\":1258:1383   */\n    tag_38:\n        /* \"#utility.yul\":1302:1309   */\n      0x00\n        /* \"#utility.yul\":1331:1336   */\n      dup2\n        /* \"#utility.yul\":1320:1336   */\n      swap1\n      pop\n        /* \"#utility.yul\":1337:1377   */\n      tag_58\n        /* \"#utility.yul\":1371:1376   */\n      dup3\n        /* \"#utility.yul\":1337:1377   */\n      tag_37\n      jump\t// in\n    tag_58:\n        /* \"#utility.yul\":1258:1383   */\n      swap2\n      swap1\n      pop\n      jump\t// out\n        /* \"#utility.yul\":1389:1514   */\n    tag_39:\n        /* \"#utility.yul\":1444:1453   */\n      0x00\n        /* \"#utility.yul\":1477:1508   */\n      tag_60\n        /* \"#utility.yul\":1502:1507   */\n      dup3\n        /* \"#utility.yul\":1477:1508   */\n      tag_38\n      jump\t// in\n    tag_60:\n        /* \"#utility.yul\":1464:1508   */\n      swap1\n      pop\n        /* \"#utility.yul\":1389:1514   */\n      swap2\n      swap1\n      pop\n      jump\t// out\n        /* \"#utility.yul\":1520:1661   */\n    tag_40:\n        /* \"#utility.yul\":1612:1654   */\n      tag_62\n        /* \"#utility.yul\":1648:1653   */\n      dup2\n        /* \"#utility.yul\":1612:1654   */\n      tag_39\n      jump\t// in\n    tag_62:\n        /* \"#utility.yul\":1607:1610   */\n      dup3\n        /* \"#utility.yul\":1600:1655   */\n      mstore\n        /* \"#utility.yul\":1520:1661   */\n      pop\n      pop\n      jump\t// out\n        /* \"#utility.yul\":1667:1899   */\n    tag_15:\n        /* \"#utility.yul\":1765:1769   */\n      0x00\n        /* \"#utility.yul\":1803:1805   */\n      0x20\n        /* \"#utility.yul\":1792:1801   */\n      dup3\n        /* \"#utility.yul\":1788:1806   */\n      add\n        /* \"#utility.yul\":1780:1806   */\n      swap1\n      pop\n        /* \"#utility.yul\":1816:1892   */\n      tag_64\n        /* \"#utility.yul\":1889:1890   */\n      0x00\n        /* \"#utility.yul\":1878:1887   */\n      dup4\n        /* \"#utility.yul\":1874:1891   */\n      add\n        /* \"#utility.yul\":1865:1871   */\n      dup5\n        /* \"#utility.yul\":1816:1892   */\n      tag_40\n      jump\t// in\n    tag_64:\n        /* \"#utility.yul\":1667:1899   */\n      swap3\n      swap2\n      pop\n      pop\n      jump\t// out\n\n    auxdata: 0xa264697066735822122036f27b93f3800fa36cf96c93286d52e00eb1d5d32106be9052176f8fa4807c3964736f6c634300081a0033\n}\n",
				"bytecode": {
					"linkReferences": {},
					"object": "6080604052348015600e575f80fd5b506102658061001c5f395ff3fe608060405234801561000f575f80fd5b5060043610610055575f3560e01c806324b8ba5f146100595780636d4ce63c14610075578063c19d93fb14610093578063d826f88f146100b1578063ea8a1af0146100bb575b5f80fd5b610073600480360381019061006e9190610178565b6100c5565b005b61007d6100f0565b60405161008a9190610216565b60405180910390f35b61009b610104565b6040516100a89190610216565b60405180910390f35b6100b9610114565b005b6100c3610126565b005b805f806101000a81548160ff021916908360048111156100e8576100e76101a3565b5b021790555050565b5f805f9054906101000a900460ff16905090565b5f8054906101000a900460ff1681565b5f806101000a81549060ff0219169055565b60045f806101000a81548160ff0219169083600481111561014a576101496101a3565b5b0217905550565b5f80fd5b60058110610161575f80fd5b50565b5f8135905061017281610155565b92915050565b5f6020828403121561018d5761018c610151565b5b5f61019a84828501610164565b91505092915050565b7f4e487b71000000000000000000000000000000000000000000000000000000005f52602160045260245ffd5b600581106101e1576101e06101a3565b5b50565b5f8190506101f1826101d0565b919050565b5f610200826101e4565b9050919050565b610210816101f6565b82525050565b5f6020820190506102295f830184610207565b9291505056fea264697066735822122036f27b93f3800fa36cf96c93286d52e00eb1d5d32106be9052176f8fa4807c3964736f6c634300081a0033",
					"opcodes": "PUSH1 0x80 PUSH1 0x40 MSTORE CALLVALUE DUP1 ISZERO PUSH1 0xE JUMPI PUSH0 DUP1 REVERT JUMPDEST POP PUSH2 0x265 DUP1 PUSH2 0x1C PUSH0 CODECOPY PUSH0 RETURN INVALID PUSH1 0x80 PUSH1 0x40 MSTORE CALLVALUE DUP1 ISZERO PUSH2 0xF JUMPI PUSH0 DUP1 REVERT JUMPDEST POP PUSH1 0x4 CALLDATASIZE LT PUSH2 0x55 JUMPI PUSH0 CALLDATALOAD PUSH1 0xE0 SHR DUP1 PUSH4 0x24B8BA5F EQ PUSH2 0x59 JUMPI DUP1 PUSH4 0x6D4CE63C EQ PUSH2 0x75 JUMPI DUP1 PUSH4 0xC19D93FB EQ PUSH2 0x93 JUMPI DUP1 PUSH4 0xD826F88F EQ PUSH2 0xB1 JUMPI DUP1 PUSH4 0xEA8A1AF0 EQ PUSH2 0xBB JUMPI JUMPDEST PUSH0 DUP1 REVERT JUMPDEST PUSH2 0x73 PUSH1 0x4 DUP1 CALLDATASIZE SUB DUP2 ADD SWAP1 PUSH2 0x6E SWAP2 SWAP1 PUSH2 0x178 JUMP JUMPDEST PUSH2 0xC5 JUMP JUMPDEST STOP JUMPDEST PUSH2 0x7D PUSH2 0xF0 JUMP JUMPDEST PUSH1 0x40 MLOAD PUSH2 0x8A SWAP2 SWAP1 PUSH2 0x216 JUMP JUMPDEST PUSH1 0x40 MLOAD DUP1 SWAP2 SUB SWAP1 RETURN JUMPDEST PUSH2 0x9B PUSH2 0x104 JUMP JUMPDEST PUSH1 0x40 MLOAD PUSH2 0xA8 SWAP2 SWAP1 PUSH2 0x216 JUMP JUMPDEST PUSH1 0x40 MLOAD DUP1 SWAP2 SUB SWAP1 RETURN JUMPDEST PUSH2 0xB9 PUSH2 0x114 JUMP JUMPDEST STOP JUMPDEST PUSH2 0xC3 PUSH2 0x126 JUMP JUMPDEST STOP JUMPDEST DUP1 PUSH0 DUP1 PUSH2 0x100 EXP DUP2 SLOAD DUP2 PUSH1 0xFF MUL NOT AND SWAP1 DUP4 PUSH1 0x4 DUP2 GT ISZERO PUSH2 0xE8 JUMPI PUSH2 0xE7 PUSH2 0x1A3 JUMP JUMPDEST JUMPDEST MUL OR SWAP1 SSTORE POP POP JUMP JUMPDEST PUSH0 DUP1 PUSH0 SWAP1 SLOAD SWAP1 PUSH2 0x100 EXP SWAP1 DIV PUSH1 0xFF AND SWAP1 POP SWAP1 JUMP JUMPDEST PUSH0 DUP1 SLOAD SWAP1 PUSH2 0x100 EXP SWAP1 DIV PUSH1 0xFF AND DUP2 JUMP JUMPDEST PUSH0 DUP1 PUSH2 0x100 EXP DUP2 SLOAD SWAP1 PUSH1 0xFF MUL NOT AND SWAP1 SSTORE JUMP JUMPDEST PUSH1 0x4 PUSH0 DUP1 PUSH2 0x100 EXP DUP2 SLOAD DUP2 PUSH1 0xFF MUL NOT AND SWAP1 DUP4 PUSH1 0x4 DUP2 GT ISZERO PUSH2 0x14A JUMPI PUSH2 0x149 PUSH2 0x1A3 JUMP JUMPDEST JUMPDEST MUL OR SWAP1 SSTORE POP JUMP JUMPDEST PUSH0 DUP1 REVERT JUMPDEST PUSH1 0x5 DUP2 LT PUSH2 0x161 JUMPI PUSH0 DUP1 REVERT JUMPDEST POP JUMP JUMPDEST PUSH0 DUP2 CALLDATALOAD SWAP1 POP PUSH2 0x172 DUP2 PUSH2 0x155 JUMP JUMPDEST SWAP3 SWAP2 POP POP JUMP JUMPDEST PUSH0 PUSH1 0x20 DUP3 DUP5 SUB SLT ISZERO PUSH2 0x18D JUMPI PUSH2 0x18C PUSH2 0x151 JUMP JUMPDEST JUMPDEST PUSH0 PUSH2 0x19A DUP5 DUP3 DUP6 ADD PUSH2 0x164 JUMP JUMPDEST SWAP2 POP POP SWAP3 SWAP2 POP POP JUMP JUMPDEST PUSH32 0x4E487B7100000000000000000000000000000000000000000000000000000000 PUSH0 MSTORE PUSH1 0x21 PUSH1 0x4 MSTORE PUSH1 0x24 PUSH0 REVERT JUMPDEST PUSH1 0x5 DUP2 LT PUSH2 0x1E1 JUMPI PUSH2 0x1E0 PUSH2 0x1A3 JUMP JUMPDEST JUMPDEST POP JUMP JUMPDEST PUSH0 DUP2 SWAP1 POP PUSH2 0x1F1 DUP3 PUSH2 0x1D0 JUMP JUMPDEST SWAP2 SWAP1 POP JUMP JUMPDEST PUSH0 PUSH2 0x200 DUP3 PUSH2 0x1E4 JUMP JUMPDEST SWAP1 POP SWAP2 SWAP1 POP JUMP JUMPDEST PUSH2 0x210 DUP2 PUSH2 0x1F6 JUMP JUMPDEST DUP3 MSTORE POP POP JUMP JUMPDEST PUSH0 PUSH1 0x20 DUP3 ADD SWAP1 POP PUSH2 0x229 PUSH0 DUP4 ADD DUP5 PUSH2 0x207 JUMP JUMPDEST SWAP3 SWAP2 POP POP JUMP INVALID LOG2 PUSH5 0x6970667358 0x22 SLT KECCAK256 CALLDATASIZE CALLCODE PUSH28 0x93F3800FA36CF96C93286D52E00EB1D5D32106BE9052176F8FA4807C CODECOPY PUSH5 0x736F6C6343 STOP ADDMOD BYTE STOP CALLER "
				},
				"gasEstimates": {
					"creation": {
						"codeDepositCost": "122600",
						"executionCost": "169",
						"totalCost": "122769"
					},
					"external": {
						"cancel()": "24495",
						"get()": "2561",
						"reset()": "24428",
						"set(uint8)": "24623",
						"state()": "2573"
					}
				},
				"methodIdentifiers": {
					"cancel()": "ea8a1af0",
					"get()": "6d4ce63c",
					"reset()": "d826f88f",
					"set(uint8)": "24b8ba5f",
					"state()": "c19d93fb"
				}
			},
			"storageLayout": {
				"storage": [
					{
						"astId": 10,
						"contract": "经典用例/14.Enum.sol:Enummmm",
						"label": "state",
						"offset": 0,
						"slot": "0",
						"type": "t_enum(State)7"
					}
				],
				"types": {
					"t_enum(State)7": {
						"encoding": "inplace",
						"label": "enum Enummmm.State",
						"numberOfBytes": "1"
					}
				}
			},
			"userdoc": {
				"kind": "user",
				"methods": {},
				"version": 1
			}
		}
	}
}