{
	"data": {
		"bytecode": {
			"linkReferences": {},
			"object": "60806040526040518060400160405280600b81526020017f57726170706572204554480000000000000000000000000000000000000000008152505f908161004791906102d8565b506040518060400160405280600481526020017f57455448000000000000000000000000000000000000000000000000000000008152506001908161008c91906102d8565b50348015610098575f80fd5b506103a7565b5f81519050919050565b7f4e487b71000000000000000000000000000000000000000000000000000000005f52604160045260245ffd5b7f4e487b71000000000000000000000000000000000000000000000000000000005f52602260045260245ffd5b5f600282049050600182168061011957607f821691505b60208210810361012c5761012b6100d5565b5b50919050565b5f819050815f5260205f209050919050565b5f6020601f8301049050919050565b5f82821b905092915050565b5f6008830261018e7fffffffffffffffffffffffffffffffffffffffffffffffffffffffffffffffff82610153565b6101988683610153565b95508019841693508086168417925050509392505050565b5f819050919050565b5f819050919050565b5f6101dc6101d76101d2846101b0565b6101b9565b6101b0565b9050919050565b5f819050919050565b6101f5836101c2565b610209610201826101e3565b84845461015f565b825550505050565b5f90565b61021d610211565b6102288184846101ec565b505050565b5b8181101561024b576102405f82610215565b60018101905061022e565b5050565b601f8211156102905761026181610132565b61026a84610144565b81016020851015610279578190505b61028d61028585610144565b83018261022d565b50505b505050565b5f82821c905092915050565b5f6102b05f1984600802610295565b1980831691505092915050565b5f6102c883836102a1565b9150826002028217905092915050565b6102e18261009e565b67ffffffffffffffff8111156102fa576102f96100a8565b5b6103048254610102565b61030f82828561024f565b5f60209050601f831160018114610340575f841561032e578287015190505b61033885826102bd565b86555061039f565b601f19841661034e86610132565b5f5b8281101561037557848901518255600182019150602085019450602081019050610350565b86831015610392578489015161038e601f8916826102a1565b8355505b6001600288020188555050505b505050505050565b610f2b806103b45f395ff3fe60806040526004361061009f575f3560e01c806395d89b411161006357806395d89b41146101c0578063a9059cbb146101ea578063b69ef8a814610226578063d0e30db014610250578063dd62ed3e1461026e578063f3fef3a3146102aa576100ae565b806306fdde03146100b8578063095ea7b3146100e257806318160ddd1461011e57806323b872dd1461014857806370a0823114610184576100ae565b366100ae576100ac6102e6565b005b6100b66102e6565b005b3480156100c3575f80fd5b506100cc61037a565b6040516100d99190610a5f565b60405180910390f35b3480156100ed575f80fd5b5061010860048036038101906101039190610b10565b610405565b6040516101159190610b68565b60405180910390f35b348015610129575f80fd5b506101326104c8565b60405161013f9190610b90565b60405180910390f35b348015610153575f80fd5b5061016e60048036038101906101699190610ba9565b6104cf565b60405161017b9190610b68565b60405180910390f35b34801561018f575f80fd5b506101aa60048036038101906101a59190610bf9565b6107b9565b6040516101b79190610b90565b60405180910390f35b3480156101cb575f80fd5b506101d46107ce565b6040516101e19190610a5f565b60405180910390f35b3480156101f5575f80fd5b50610210600480360381019061020b9190610b10565b61085a565b60405161021d9190610b68565b60405180910390f35b348015610231575f80fd5b5061023a61086e565b6040516102479190610b90565b60405180910390f35b6102586102e6565b6040516102659190610b68565b60405180910390f35b348015610279575f80fd5b50610294600480360381019061028f9190610c24565b610874565b6040516102a19190610b90565b60405180910390f35b3480156102b5575f80fd5b506102d060048036038101906102cb9190610b10565b610894565b6040516102dd9190610b68565b60405180910390f35b5f3460035f3373ffffffffffffffffffffffffffffffffffffffff1673ffffffffffffffffffffffffffffffffffffffff1681526020019081526020015f205f8282546103339190610c8f565b925050819055507fe1fffcc4923d04b559f4d29a8bfc6cda04eb5b0d3c460751c2402c5c5cc9109c333460405161036b929190610cd1565b60405180910390a16001905090565b5f805461038690610d25565b80601f01602080910402602001604051908101604052809291908181526020018280546103b290610d25565b80156103fd5780601f106103d4576101008083540402835291602001916103fd565b820191905f5260205f20905b8154815290600101906020018083116103e057829003601f168201915b505050505081565b5f8160045f3373ffffffffffffffffffffffffffffffffffffffff1673ffffffffffffffffffffffffffffffffffffffff1681526020019081526020015f205f8573ffffffffffffffffffffffffffffffffffffffff1673ffffffffffffffffffffffffffffffffffffffff1681526020019081526020015f20819055507f6e11fb1b7f119e3f2fa29896ef5fdf8b8a2d0d4df6fe90ba8668e7d8b2ffa25e3384846040516104b693929190610d55565b60405180910390a16001905092915050565b5f47905090565b5f8160035f8673ffffffffffffffffffffffffffffffffffffffff1673ffffffffffffffffffffffffffffffffffffffff1681526020019081526020015f20541015610550576040517f08c379a000000000000000000000000000000000000000000000000000000000815260040161054790610dd4565b60405180910390fd5b3373ffffffffffffffffffffffffffffffffffffffff168473ffffffffffffffffffffffffffffffffffffffff16146106cd578160045f8673ffffffffffffffffffffffffffffffffffffffff1673ffffffffffffffffffffffffffffffffffffffff1681526020019081526020015f205f3373ffffffffffffffffffffffffffffffffffffffff1673ffffffffffffffffffffffffffffffffffffffff1681526020019081526020015f2054101561063e576040517f08c379a000000000000000000000000000000000000000000000000000000000815260040161063590610e3c565b60405180910390fd5b8160045f8673ffffffffffffffffffffffffffffffffffffffff1673ffffffffffffffffffffffffffffffffffffffff1681526020019081526020015f205f3373ffffffffffffffffffffffffffffffffffffffff1673ffffffffffffffffffffffffffffffffffffffff1681526020019081526020015f205f8282546106c59190610e5a565b925050819055505b8160035f8673ffffffffffffffffffffffffffffffffffffffff1673ffffffffffffffffffffffffffffffffffffffff1681526020019081526020015f205f8282546107199190610e5a565b925050819055508160035f8573ffffffffffffffffffffffffffffffffffffffff1673ffffffffffffffffffffffffffffffffffffffff1681526020019081526020015f205f82825461076c9190610c8f565b925050819055507fc0d84ce5c7ff9ca21adb0f8436ff3f4951b4bb78c4e2fae2b6837958b3946ffd8484846040516107a693929190610d55565b60405180910390a1600190509392505050565b6003602052805f5260405f205f915090505481565b600180546107db90610d25565b80601f016020809104026020016040519081016040528092919081815260200182805461080790610d25565b80156108525780601f1061082957610100808354040283529160200191610852565b820191905f5260205f20905b81548152906001019060200180831161083557829003601f168201915b505050505081565b5f6108663384846104cf565b905092915050565b60025481565b6004602052815f5260405f20602052805f5260405f205f91509150505481565b5f8160035f8573ffffffffffffffffffffffffffffffffffffffff1673ffffffffffffffffffffffffffffffffffffffff1681526020019081526020015f20541015610915576040517f08c379a000000000000000000000000000000000000000000000000000000000815260040161090c90610ed7565b60405180910390fd5b8160035f8573ffffffffffffffffffffffffffffffffffffffff1673ffffffffffffffffffffffffffffffffffffffff1681526020019081526020015f205f8282546109619190610e5a565b925050819055508273ffffffffffffffffffffffffffffffffffffffff166108fc8390811502906040515f60405180830381858888f193505050501580156109ab573d5f803e3d5ffd5b507f884edad9ce6fa2440d8a54cc123490eb96d2768479d49ff9c7366125a942436483836040516109dd929190610cd1565b60405180910390a16001905092915050565b5f81519050919050565b5f82825260208201905092915050565b8281835e5f83830152505050565b5f601f19601f8301169050919050565b5f610a31826109ef565b610a3b81856109f9565b9350610a4b818560208601610a09565b610a5481610a17565b840191505092915050565b5f6020820190508181035f830152610a778184610a27565b905092915050565b5f80fd5b5f73ffffffffffffffffffffffffffffffffffffffff82169050919050565b5f610aac82610a83565b9050919050565b610abc81610aa2565b8114610ac6575f80fd5b50565b5f81359050610ad781610ab3565b92915050565b5f819050919050565b610aef81610add565b8114610af9575f80fd5b50565b5f81359050610b0a81610ae6565b92915050565b5f8060408385031215610b2657610b25610a7f565b5b5f610b3385828601610ac9565b9250506020610b4485828601610afc565b9150509250929050565b5f8115159050919050565b610b6281610b4e565b82525050565b5f602082019050610b7b5f830184610b59565b92915050565b610b8a81610add565b82525050565b5f602082019050610ba35f830184610b81565b92915050565b5f805f60608486031215610bc057610bbf610a7f565b5b5f610bcd86828701610ac9565b9350506020610bde86828701610ac9565b9250506040610bef86828701610afc565b9150509250925092565b5f60208284031215610c0e57610c0d610a7f565b5b5f610c1b84828501610ac9565b91505092915050565b5f8060408385031215610c3a57610c39610a7f565b5b5f610c4785828601610ac9565b9250506020610c5885828601610ac9565b9150509250929050565b7f4e487b71000000000000000000000000000000000000000000000000000000005f52601160045260245ffd5b5f610c9982610add565b9150610ca483610add565b9250828201905080821115610cbc57610cbb610c62565b5b92915050565b610ccb81610aa2565b82525050565b5f604082019050610ce45f830185610cc2565b610cf16020830184610b81565b9392505050565b7f4e487b71000000000000000000000000000000000000000000000000000000005f52602260045260245ffd5b5f6002820490506001821680610d3c57607f821691505b602082108103610d4f57610d4e610cf8565b5b50919050565b5f606082019050610d685f830186610cc2565b610d756020830185610cc2565b610d826040830184610b81565b949350505050565b7f6e6f7420656e6f7567682062616c616e6365206f6620736f75726365000000005f82015250565b5f610dbe601c836109f9565b9150610dc982610d8a565b602082019050919050565b5f6020820190508181035f830152610deb81610db2565b9050919050565b7f6e6f7420656e6f75676820616c6c6f77616e63650000000000000000000000005f82015250565b5f610e266014836109f9565b9150610e3182610df2565b602082019050919050565b5f6020820190508181035f830152610e5381610e1a565b9050919050565b5f610e6482610add565b9150610e6f83610add565b9250828203905081811115610e8757610e86610c62565b5b92915050565b7f6e6f7420656e6f7567682062616c616e636500000000000000000000000000005f82015250565b5f610ec16012836109f9565b9150610ecc82610e8d565b602082019050919050565b5f6020820190508181035f830152610eee81610eb5565b905091905056fea264697066735822122000ca679ab9252b154af68f4590996dd2874c2850dd0db88cfc768bcb1f36c4ea64736f6c634300081a0033",
			"opcodes": "PUSH1 0x80 PUSH1 0x40 MSTORE PUSH1 0x40 MLOAD DUP1 PUSH1 0x40 ADD PUSH1 0x40 MSTORE DUP1 PUSH1 0xB DUP2 MSTORE PUSH1 0x20 ADD PUSH32 0x5772617070657220455448000000000000000000000000000000000000000000 DUP2 MSTORE POP PUSH0 SWAP1 DUP2 PUSH2 0x47 SWAP2 SWAP1 PUSH2 0x2D8 JUMP JUMPDEST POP PUSH1 0x40 MLOAD DUP1 PUSH1 0x40 ADD PUSH1 0x40 MSTORE DUP1 PUSH1 0x4 DUP2 MSTORE PUSH1 0x20 ADD PUSH32 0x5745544800000000000000000000000000000000000000000000000000000000 DUP2 MSTORE POP PUSH1 0x1 SWAP1 DUP2 PUSH2 0x8C SWAP2 SWAP1 PUSH2 0x2D8 JUMP JUMPDEST POP CALLVALUE DUP1 ISZERO PUSH2 0x98 JUMPI PUSH0 DUP1 REVERT JUMPDEST POP PUSH2 0x3A7 JUMP JUMPDEST PUSH0 DUP2 MLOAD SWAP1 POP SWAP2 SWAP1 POP JUMP JUMPDEST PUSH32 0x4E487B7100000000000000000000000000000000000000000000000000000000 PUSH0 MSTORE PUSH1 0x41 PUSH1 0x4 MSTORE PUSH1 0x24 PUSH0 REVERT JUMPDEST PUSH32 0x4E487B7100000000000000000000000000000000000000000000000000000000 PUSH0 MSTORE PUSH1 0x22 PUSH1 0x4 MSTORE PUSH1 0x24 PUSH0 REVERT JUMPDEST PUSH0 PUSH1 0x2 DUP3 DIV SWAP1 POP PUSH1 0x1 DUP3 AND DUP1 PUSH2 0x119 JUMPI PUSH1 0x7F DUP3 AND SWAP2 POP JUMPDEST PUSH1 0x20 DUP3 LT DUP2 SUB PUSH2 0x12C JUMPI PUSH2 0x12B PUSH2 0xD5 JUMP JUMPDEST JUMPDEST POP SWAP2 SWAP1 POP JUMP JUMPDEST PUSH0 DUP2 SWAP1 POP DUP2 PUSH0 MSTORE PUSH1 0x20 PUSH0 KECCAK256 SWAP1 POP SWAP2 SWAP1 POP JUMP JUMPDEST PUSH0 PUSH1 0x20 PUSH1 0x1F DUP4 ADD DIV SWAP1 POP SWAP2 SWAP1 POP JUMP JUMPDEST PUSH0 DUP3 DUP3 SHL SWAP1 POP SWAP3 SWAP2 POP POP JUMP JUMPDEST PUSH0 PUSH1 0x8 DUP4 MUL PUSH2 0x18E PUSH32 0xFFFFFFFFFFFFFFFFFFFFFFFFFFFFFFFFFFFFFFFFFFFFFFFFFFFFFFFFFFFFFFFF DUP3 PUSH2 0x153 JUMP JUMPDEST PUSH2 0x198 DUP7 DUP4 PUSH2 0x153 JUMP JUMPDEST SWAP6 POP DUP1 NOT DUP5 AND SWAP4 POP DUP1 DUP7 AND DUP5 OR SWAP3 POP POP POP SWAP4 SWAP3 POP POP POP JUMP JUMPDEST PUSH0 DUP2 SWAP1 POP SWAP2 SWAP1 POP JUMP JUMPDEST PUSH0 DUP2 SWAP1 POP SWAP2 SWAP1 POP JUMP JUMPDEST PUSH0 PUSH2 0x1DC PUSH2 0x1D7 PUSH2 0x1D2 DUP5 PUSH2 0x1B0 JUMP JUMPDEST PUSH2 0x1B9 JUMP JUMPDEST PUSH2 0x1B0 JUMP JUMPDEST SWAP1 POP SWAP2 SWAP1 POP JUMP JUMPDEST PUSH0 DUP2 SWAP1 POP SWAP2 SWAP1 POP JUMP JUMPDEST PUSH2 0x1F5 DUP4 PUSH2 0x1C2 JUMP JUMPDEST PUSH2 0x209 PUSH2 0x201 DUP3 PUSH2 0x1E3 JUMP JUMPDEST DUP5 DUP5 SLOAD PUSH2 0x15F JUMP JUMPDEST DUP3 SSTORE POP POP POP POP JUMP JUMPDEST PUSH0 SWAP1 JUMP JUMPDEST PUSH2 0x21D PUSH2 0x211 JUMP JUMPDEST PUSH2 0x228 DUP2 DUP5 DUP5 PUSH2 0x1EC JUMP JUMPDEST POP POP POP JUMP JUMPDEST JUMPDEST DUP2 DUP2 LT ISZERO PUSH2 0x24B JUMPI PUSH2 0x240 PUSH0 DUP3 PUSH2 0x215 JUMP JUMPDEST PUSH1 0x1 DUP2 ADD SWAP1 POP PUSH2 0x22E JUMP JUMPDEST POP POP JUMP JUMPDEST PUSH1 0x1F DUP3 GT ISZERO PUSH2 0x290 JUMPI PUSH2 0x261 DUP2 PUSH2 0x132 JUMP JUMPDEST PUSH2 0x26A DUP5 PUSH2 0x144 JUMP JUMPDEST DUP2 ADD PUSH1 0x20 DUP6 LT ISZERO PUSH2 0x279 JUMPI DUP2 SWAP1 POP JUMPDEST PUSH2 0x28D PUSH2 0x285 DUP6 PUSH2 0x144 JUMP JUMPDEST DUP4 ADD DUP3 PUSH2 0x22D JUMP JUMPDEST POP POP JUMPDEST POP POP POP JUMP JUMPDEST PUSH0 DUP3 DUP3 SHR SWAP1 POP SWAP3 SWAP2 POP POP JUMP JUMPDEST PUSH0 PUSH2 0x2B0 PUSH0 NOT DUP5 PUSH1 0x8 MUL PUSH2 0x295 JUMP JUMPDEST NOT DUP1 DUP4 AND SWAP2 POP POP SWAP3 SWAP2 POP POP JUMP JUMPDEST PUSH0 PUSH2 0x2C8 DUP4 DUP4 PUSH2 0x2A1 JUMP JUMPDEST SWAP2 POP DUP3 PUSH1 0x2 MUL DUP3 OR SWAP1 POP SWAP3 SWAP2 POP POP JUMP JUMPDEST PUSH2 0x2E1 DUP3 PUSH2 0x9E JUMP JUMPDEST PUSH8 0xFFFFFFFFFFFFFFFF DUP2 GT ISZERO PUSH2 0x2FA JUMPI PUSH2 0x2F9 PUSH2 0xA8 JUMP JUMPDEST JUMPDEST PUSH2 0x304 DUP3 SLOAD PUSH2 0x102 JUMP JUMPDEST PUSH2 0x30F DUP3 DUP3 DUP6 PUSH2 0x24F JUMP JUMPDEST PUSH0 PUSH1 0x20 SWAP1 POP PUSH1 0x1F DUP4 GT PUSH1 0x1 DUP2 EQ PUSH2 0x340 JUMPI PUSH0 DUP5 ISZERO PUSH2 0x32E JUMPI DUP3 DUP8 ADD MLOAD SWAP1 POP JUMPDEST PUSH2 0x338 DUP6 DUP3 PUSH2 0x2BD JUMP JUMPDEST DUP7 SSTORE POP PUSH2 0x39F JUMP JUMPDEST PUSH1 0x1F NOT DUP5 AND PUSH2 0x34E DUP7 PUSH2 0x132 JUMP JUMPDEST PUSH0 JUMPDEST DUP3 DUP2 LT ISZERO PUSH2 0x375 JUMPI DUP5 DUP10 ADD MLOAD DUP3 SSTORE PUSH1 0x1 DUP3 ADD SWAP2 POP PUSH1 0x20 DUP6 ADD SWAP5 POP PUSH1 0x20 DUP2 ADD SWAP1 POP PUSH2 0x350 JUMP JUMPDEST DUP7 DUP4 LT ISZERO PUSH2 0x392 JUMPI DUP5 DUP10 ADD MLOAD PUSH2 0x38E PUSH1 0x1F DUP10 AND DUP3 PUSH2 0x2A1 JUMP JUMPDEST DUP4 SSTORE POP JUMPDEST PUSH1 0x1 PUSH1 0x2 DUP9 MUL ADD DUP9 SSTORE POP POP POP JUMPDEST POP POP POP POP POP POP JUMP JUMPDEST PUSH2 0xF2B DUP1 PUSH2 0x3B4 PUSH0 CODECOPY PUSH0 RETURN INVALID PUSH1 0x80 PUSH1 0x40 MSTORE PUSH1 0x4 CALLDATASIZE LT PUSH2 0x9F JUMPI PUSH0 CALLDATALOAD PUSH1 0xE0 SHR DUP1 PUSH4 0x95D89B41 GT PUSH2 0x63 JUMPI DUP1 PUSH4 0x95D89B41 EQ PUSH2 0x1C0 JUMPI DUP1 PUSH4 0xA9059CBB EQ PUSH2 0x1EA JUMPI DUP1 PUSH4 0xB69EF8A8 EQ PUSH2 0x226 JUMPI DUP1 PUSH4 0xD0E30DB0 EQ PUSH2 0x250 JUMPI DUP1 PUSH4 0xDD62ED3E EQ PUSH2 0x26E JUMPI DUP1 PUSH4 0xF3FEF3A3 EQ PUSH2 0x2AA JUMPI PUSH2 0xAE JUMP JUMPDEST DUP1 PUSH4 0x6FDDE03 EQ PUSH2 0xB8 JUMPI DUP1 PUSH4 0x95EA7B3 EQ PUSH2 0xE2 JUMPI DUP1 PUSH4 0x18160DDD EQ PUSH2 0x11E JUMPI DUP1 PUSH4 0x23B872DD EQ PUSH2 0x148 JUMPI DUP1 PUSH4 0x70A08231 EQ PUSH2 0x184 JUMPI PUSH2 0xAE JUMP JUMPDEST CALLDATASIZE PUSH2 0xAE JUMPI PUSH2 0xAC PUSH2 0x2E6 JUMP JUMPDEST STOP JUMPDEST PUSH2 0xB6 PUSH2 0x2E6 JUMP JUMPDEST STOP JUMPDEST CALLVALUE DUP1 ISZERO PUSH2 0xC3 JUMPI PUSH0 DUP1 REVERT JUMPDEST POP PUSH2 0xCC PUSH2 0x37A JUMP JUMPDEST PUSH1 0x40 MLOAD PUSH2 0xD9 SWAP2 SWAP1 PUSH2 0xA5F JUMP JUMPDEST PUSH1 0x40 MLOAD DUP1 SWAP2 SUB SWAP1 RETURN JUMPDEST CALLVALUE DUP1 ISZERO PUSH2 0xED JUMPI PUSH0 DUP1 REVERT JUMPDEST POP PUSH2 0x108 PUSH1 0x4 DUP1 CALLDATASIZE SUB DUP2 ADD SWAP1 PUSH2 0x103 SWAP2 SWAP1 PUSH2 0xB10 JUMP JUMPDEST PUSH2 0x405 JUMP JUMPDEST PUSH1 0x40 MLOAD PUSH2 0x115 SWAP2 SWAP1 PUSH2 0xB68 JUMP JUMPDEST PUSH1 0x40 MLOAD DUP1 SWAP2 SUB SWAP1 RETURN JUMPDEST CALLVALUE DUP1 ISZERO PUSH2 0x129 JUMPI PUSH0 DUP1 REVERT JUMPDEST POP PUSH2 0x132 PUSH2 0x4C8 JUMP JUMPDEST PUSH1 0x40 MLOAD PUSH2 0x13F SWAP2 SWAP1 PUSH2 0xB90 JUMP JUMPDEST PUSH1 0x40 MLOAD DUP1 SWAP2 SUB SWAP1 RETURN JUMPDEST CALLVALUE DUP1 ISZERO PUSH2 0x153 JUMPI PUSH0 DUP1 REVERT JUMPDEST POP PUSH2 0x16E PUSH1 0x4 DUP1 CALLDATASIZE SUB DUP2 ADD SWAP1 PUSH2 0x169 SWAP2 SWAP1 PUSH2 0xBA9 JUMP JUMPDEST PUSH2 0x4CF JUMP JUMPDEST PUSH1 0x40 MLOAD PUSH2 0x17B SWAP2 SWAP1 PUSH2 0xB68 JUMP JUMPDEST PUSH1 0x40 MLOAD DUP1 SWAP2 SUB SWAP1 RETURN JUMPDEST CALLVALUE DUP1 ISZERO PUSH2 0x18F JUMPI PUSH0 DUP1 REVERT JUMPDEST POP PUSH2 0x1AA PUSH1 0x4 DUP1 CALLDATASIZE SUB DUP2 ADD SWAP1 PUSH2 0x1A5 SWAP2 SWAP1 PUSH2 0xBF9 JUMP JUMPDEST PUSH2 0x7B9 JUMP JUMPDEST PUSH1 0x40 MLOAD PUSH2 0x1B7 SWAP2 SWAP1 PUSH2 0xB90 JUMP JUMPDEST PUSH1 0x40 MLOAD DUP1 SWAP2 SUB SWAP1 RETURN JUMPDEST CALLVALUE DUP1 ISZERO PUSH2 0x1CB JUMPI PUSH0 DUP1 REVERT JUMPDEST POP PUSH2 0x1D4 PUSH2 0x7CE JUMP JUMPDEST PUSH1 0x40 MLOAD PUSH2 0x1E1 SWAP2 SWAP1 PUSH2 0xA5F JUMP JUMPDEST PUSH1 0x40 MLOAD DUP1 SWAP2 SUB SWAP1 RETURN JUMPDEST CALLVALUE DUP1 ISZERO PUSH2 0x1F5 JUMPI PUSH0 DUP1 REVERT JUMPDEST POP PUSH2 0x210 PUSH1 0x4 DUP1 CALLDATASIZE SUB DUP2 ADD SWAP1 PUSH2 0x20B SWAP2 SWAP1 PUSH2 0xB10 JUMP JUMPDEST PUSH2 0x85A JUMP JUMPDEST PUSH1 0x40 MLOAD PUSH2 0x21D SWAP2 SWAP1 PUSH2 0xB68 JUMP JUMPDEST PUSH1 0x40 MLOAD DUP1 SWAP2 SUB SWAP1 RETURN JUMPDEST CALLVALUE DUP1 ISZERO PUSH2 0x231 JUMPI PUSH0 DUP1 REVERT JUMPDEST POP PUSH2 0x23A PUSH2 0x86E JUMP JUMPDEST PUSH1 0x40 MLOAD PUSH2 0x247 SWAP2 SWAP1 PUSH2 0xB90 JUMP JUMPDEST PUSH1 0x40 MLOAD DUP1 SWAP2 SUB SWAP1 RETURN JUMPDEST PUSH2 0x258 PUSH2 0x2E6 JUMP JUMPDEST PUSH1 0x40 MLOAD PUSH2 0x265 SWAP2 SWAP1 PUSH2 0xB68 JUMP JUMPDEST PUSH1 0x40 MLOAD DUP1 SWAP2 SUB SWAP1 RETURN JUMPDEST CALLVALUE DUP1 ISZERO PUSH2 0x279 JUMPI PUSH0 DUP1 REVERT JUMPDEST POP PUSH2 0x294 PUSH1 0x4 DUP1 CALLDATASIZE SUB DUP2 ADD SWAP1 PUSH2 0x28F SWAP2 SWAP1 PUSH2 0xC24 JUMP JUMPDEST PUSH2 0x874 JUMP JUMPDEST PUSH1 0x40 MLOAD PUSH2 0x2A1 SWAP2 SWAP1 PUSH2 0xB90 JUMP JUMPDEST PUSH1 0x40 MLOAD DUP1 SWAP2 SUB SWAP1 RETURN JUMPDEST CALLVALUE DUP1 ISZERO PUSH2 0x2B5 JUMPI PUSH0 DUP1 REVERT JUMPDEST POP PUSH2 0x2D0 PUSH1 0x4 DUP1 CALLDATASIZE SUB DUP2 ADD SWAP1 PUSH2 0x2CB SWAP2 SWAP1 PUSH2 0xB10 JUMP JUMPDEST PUSH2 0x894 JUMP JUMPDEST PUSH1 0x40 MLOAD PUSH2 0x2DD SWAP2 SWAP1 PUSH2 0xB68 JUMP JUMPDEST PUSH1 0x40 MLOAD DUP1 SWAP2 SUB SWAP1 RETURN JUMPDEST PUSH0 CALLVALUE PUSH1 0x3 PUSH0 CALLER PUSH20 0xFFFFFFFFFFFFFFFFFFFFFFFFFFFFFFFFFFFFFFFF AND PUSH20 0xFFFFFFFFFFFFFFFFFFFFFFFFFFFFFFFFFFFFFFFF AND DUP2 MSTORE PUSH1 0x20 ADD SWAP1 DUP2 MSTORE PUSH1 0x20 ADD PUSH0 KECCAK256 PUSH0 DUP3 DUP3 SLOAD PUSH2 0x333 SWAP2 SWAP1 PUSH2 0xC8F JUMP JUMPDEST SWAP3 POP POP DUP2 SWAP1 SSTORE POP PUSH32 0xE1FFFCC4923D04B559F4D29A8BFC6CDA04EB5B0D3C460751C2402C5C5CC9109C CALLER CALLVALUE PUSH1 0x40 MLOAD PUSH2 0x36B SWAP3 SWAP2 SWAP1 PUSH2 0xCD1 JUMP JUMPDEST PUSH1 0x40 MLOAD DUP1 SWAP2 SUB SWAP1 LOG1 PUSH1 0x1 SWAP1 POP SWAP1 JUMP JUMPDEST PUSH0 DUP1 SLOAD PUSH2 0x386 SWAP1 PUSH2 0xD25 JUMP JUMPDEST DUP1 PUSH1 0x1F ADD PUSH1 0x20 DUP1 SWAP2 DIV MUL PUSH1 0x20 ADD PUSH1 0x40 MLOAD SWAP1 DUP2 ADD PUSH1 0x40 MSTORE DUP1 SWAP3 SWAP2 SWAP1 DUP2 DUP2 MSTORE PUSH1 0x20 ADD DUP3 DUP1 SLOAD PUSH2 0x3B2 SWAP1 PUSH2 0xD25 JUMP JUMPDEST DUP1 ISZERO PUSH2 0x3FD JUMPI DUP1 PUSH1 0x1F LT PUSH2 0x3D4 JUMPI PUSH2 0x100 DUP1 DUP4 SLOAD DIV MUL DUP4 MSTORE SWAP2 PUSH1 0x20 ADD SWAP2 PUSH2 0x3FD JUMP JUMPDEST DUP3 ADD SWAP2 SWAP1 PUSH0 MSTORE PUSH1 0x20 PUSH0 KECCAK256 SWAP1 JUMPDEST DUP2 SLOAD DUP2 MSTORE SWAP1 PUSH1 0x1 ADD SWAP1 PUSH1 0x20 ADD DUP1 DUP4 GT PUSH2 0x3E0 JUMPI DUP3 SWAP1 SUB PUSH1 0x1F AND DUP3 ADD SWAP2 JUMPDEST POP POP POP POP POP DUP2 JUMP JUMPDEST PUSH0 DUP2 PUSH1 0x4 PUSH0 CALLER PUSH20 0xFFFFFFFFFFFFFFFFFFFFFFFFFFFFFFFFFFFFFFFF AND PUSH20 0xFFFFFFFFFFFFFFFFFFFFFFFFFFFFFFFFFFFFFFFF AND DUP2 MSTORE PUSH1 0x20 ADD SWAP1 DUP2 MSTORE PUSH1 0x20 ADD PUSH0 KECCAK256 PUSH0 DUP6 PUSH20 0xFFFFFFFFFFFFFFFFFFFFFFFFFFFFFFFFFFFFFFFF AND PUSH20 0xFFFFFFFFFFFFFFFFFFFFFFFFFFFFFFFFFFFFFFFF AND DUP2 MSTORE PUSH1 0x20 ADD SWAP1 DUP2 MSTORE PUSH1 0x20 ADD PUSH0 KECCAK256 DUP2 SWAP1 SSTORE POP PUSH32 0x6E11FB1B7F119E3F2FA29896EF5FDF8B8A2D0D4DF6FE90BA8668E7D8B2FFA25E CALLER DUP5 DUP5 PUSH1 0x40 MLOAD PUSH2 0x4B6 SWAP4 SWAP3 SWAP2 SWAP1 PUSH2 0xD55 JUMP JUMPDEST PUSH1 0x40 MLOAD DUP1 SWAP2 SUB SWAP1 LOG1 PUSH1 0x1 SWAP1 POP SWAP3 SWAP2 POP POP JUMP JUMPDEST PUSH0 SELFBALANCE SWAP1 POP SWAP1 JUMP JUMPDEST PUSH0 DUP2 PUSH1 0x3 PUSH0 DUP7 PUSH20 0xFFFFFFFFFFFFFFFFFFFFFFFFFFFFFFFFFFFFFFFF AND PUSH20 0xFFFFFFFFFFFFFFFFFFFFFFFFFFFFFFFFFFFFFFFF AND DUP2 MSTORE PUSH1 0x20 ADD SWAP1 DUP2 MSTORE PUSH1 0x20 ADD PUSH0 KECCAK256 SLOAD LT ISZERO PUSH2 0x550 JUMPI PUSH1 0x40 MLOAD PUSH32 0x8C379A000000000000000000000000000000000000000000000000000000000 DUP2 MSTORE PUSH1 0x4 ADD PUSH2 0x547 SWAP1 PUSH2 0xDD4 JUMP JUMPDEST PUSH1 0x40 MLOAD DUP1 SWAP2 SUB SWAP1 REVERT JUMPDEST CALLER PUSH20 0xFFFFFFFFFFFFFFFFFFFFFFFFFFFFFFFFFFFFFFFF AND DUP5 PUSH20 0xFFFFFFFFFFFFFFFFFFFFFFFFFFFFFFFFFFFFFFFF AND EQ PUSH2 0x6CD JUMPI DUP2 PUSH1 0x4 PUSH0 DUP7 PUSH20 0xFFFFFFFFFFFFFFFFFFFFFFFFFFFFFFFFFFFFFFFF AND PUSH20 0xFFFFFFFFFFFFFFFFFFFFFFFFFFFFFFFFFFFFFFFF AND DUP2 MSTORE PUSH1 0x20 ADD SWAP1 DUP2 MSTORE PUSH1 0x20 ADD PUSH0 KECCAK256 PUSH0 CALLER PUSH20 0xFFFFFFFFFFFFFFFFFFFFFFFFFFFFFFFFFFFFFFFF AND PUSH20 0xFFFFFFFFFFFFFFFFFFFFFFFFFFFFFFFFFFFFFFFF AND DUP2 MSTORE PUSH1 0x20 ADD SWAP1 DUP2 MSTORE PUSH1 0x20 ADD PUSH0 KECCAK256 SLOAD LT ISZERO PUSH2 0x63E JUMPI PUSH1 0x40 MLOAD PUSH32 0x8C379A000000000000000000000000000000000000000000000000000000000 DUP2 MSTORE PUSH1 0x4 ADD PUSH2 0x635 SWAP1 PUSH2 0xE3C JUMP JUMPDEST PUSH1 0x40 MLOAD DUP1 SWAP2 SUB SWAP1 REVERT JUMPDEST DUP2 PUSH1 0x4 PUSH0 DUP7 PUSH20 0xFFFFFFFFFFFFFFFFFFFFFFFFFFFFFFFFFFFFFFFF AND PUSH20 0xFFFFFFFFFFFFFFFFFFFFFFFFFFFFFFFFFFFFFFFF AND DUP2 MSTORE PUSH1 0x20 ADD SWAP1 DUP2 MSTORE PUSH1 0x20 ADD PUSH0 KECCAK256 PUSH0 CALLER PUSH20 0xFFFFFFFFFFFFFFFFFFFFFFFFFFFFFFFFFFFFFFFF AND PUSH20 0xFFFFFFFFFFFFFFFFFFFFFFFFFFFFFFFFFFFFFFFF AND DUP2 MSTORE PUSH1 0x20 ADD SWAP1 DUP2 MSTORE PUSH1 0x20 ADD PUSH0 KECCAK256 PUSH0 DUP3 DUP3 SLOAD PUSH2 0x6C5 SWAP2 SWAP1 PUSH2 0xE5A JUMP JUMPDEST SWAP3 POP POP DUP2 SWAP1 SSTORE POP JUMPDEST DUP2 PUSH1 0x3 PUSH0 DUP7 PUSH20 0xFFFFFFFFFFFFFFFFFFFFFFFFFFFFFFFFFFFFFFFF AND PUSH20 0xFFFFFFFFFFFFFFFFFFFFFFFFFFFFFFFFFFFFFFFF AND DUP2 MSTORE PUSH1 0x20 ADD SWAP1 DUP2 MSTORE PUSH1 0x20 ADD PUSH0 KECCAK256 PUSH0 DUP3 DUP3 SLOAD PUSH2 0x719 SWAP2 SWAP1 PUSH2 0xE5A JUMP JUMPDEST SWAP3 POP POP DUP2 SWAP1 SSTORE POP DUP2 PUSH1 0x3 PUSH0 DUP6 PUSH20 0xFFFFFFFFFFFFFFFFFFFFFFFFFFFFFFFFFFFFFFFF AND PUSH20 0xFFFFFFFFFFFFFFFFFFFFFFFFFFFFFFFFFFFFFFFF AND DUP2 MSTORE PUSH1 0x20 ADD SWAP1 DUP2 MSTORE PUSH1 0x20 ADD PUSH0 KECCAK256 PUSH0 DUP3 DUP3 SLOAD PUSH2 0x76C SWAP2 SWAP1 PUSH2 0xC8F JUMP JUMPDEST SWAP3 POP POP DUP2 SWAP1 SSTORE POP PUSH32 0xC0D84CE5C7FF9CA21ADB0F8436FF3F4951B4BB78C4E2FAE2B6837958B3946FFD DUP5 DUP5 DUP5 PUSH1 0x40 MLOAD PUSH2 0x7A6 SWAP4 SWAP3 SWAP2 SWAP1 PUSH2 0xD55 JUMP JUMPDEST PUSH1 0x40 MLOAD DUP1 SWAP2 SUB SWAP1 LOG1 PUSH1 0x1 SWAP1 POP SWAP4 SWAP3 POP POP POP JUMP JUMPDEST PUSH1 0x3 PUSH1 0x20 MSTORE DUP1 PUSH0 MSTORE PUSH1 0x40 PUSH0 KECCAK256 PUSH0 SWAP2 POP SWAP1 POP SLOAD DUP2 JUMP JUMPDEST PUSH1 0x1 DUP1 SLOAD PUSH2 0x7DB SWAP1 PUSH2 0xD25 JUMP JUMPDEST DUP1 PUSH1 0x1F ADD PUSH1 0x20 DUP1 SWAP2 DIV MUL PUSH1 0x20 ADD PUSH1 0x40 MLOAD SWAP1 DUP2 ADD PUSH1 0x40 MSTORE DUP1 SWAP3 SWAP2 SWAP1 DUP2 DUP2 MSTORE PUSH1 0x20 ADD DUP3 DUP1 SLOAD PUSH2 0x807 SWAP1 PUSH2 0xD25 JUMP JUMPDEST DUP1 ISZERO PUSH2 0x852 JUMPI DUP1 PUSH1 0x1F LT PUSH2 0x829 JUMPI PUSH2 0x100 DUP1 DUP4 SLOAD DIV MUL DUP4 MSTORE SWAP2 PUSH1 0x20 ADD SWAP2 PUSH2 0x852 JUMP JUMPDEST DUP3 ADD SWAP2 SWAP1 PUSH0 MSTORE PUSH1 0x20 PUSH0 KECCAK256 SWAP1 JUMPDEST DUP2 SLOAD DUP2 MSTORE SWAP1 PUSH1 0x1 ADD SWAP1 PUSH1 0x20 ADD DUP1 DUP4 GT PUSH2 0x835 JUMPI DUP3 SWAP1 SUB PUSH1 0x1F AND DUP3 ADD SWAP2 JUMPDEST POP POP POP POP POP DUP2 JUMP JUMPDEST PUSH0 PUSH2 0x866 CALLER DUP5 DUP5 PUSH2 0x4CF JUMP JUMPDEST SWAP1 POP SWAP3 SWAP2 POP POP JUMP JUMPDEST PUSH1 0x2 SLOAD DUP2 JUMP JUMPDEST PUSH1 0x4 PUSH1 0x20 MSTORE DUP2 PUSH0 MSTORE PUSH1 0x40 PUSH0 KECCAK256 PUSH1 0x20 MSTORE DUP1 PUSH0 MSTORE PUSH1 0x40 PUSH0 KECCAK256 PUSH0 SWAP2 POP SWAP2 POP POP SLOAD DUP2 JUMP JUMPDEST PUSH0 DUP2 PUSH1 0x3 PUSH0 DUP6 PUSH20 0xFFFFFFFFFFFFFFFFFFFFFFFFFFFFFFFFFFFFFFFF AND PUSH20 0xFFFFFFFFFFFFFFFFFFFFFFFFFFFFFFFFFFFFFFFF AND DUP2 MSTORE PUSH1 0x20 ADD SWAP1 DUP2 MSTORE PUSH1 0x20 ADD PUSH0 KECCAK256 SLOAD LT ISZERO PUSH2 0x915 JUMPI PUSH1 0x40 MLOAD PUSH32 0x8C379A000000000000000000000000000000000000000000000000000000000 DUP2 MSTORE PUSH1 0x4 ADD PUSH2 0x90C SWAP1 PUSH2 0xED7 JUMP JUMPDEST PUSH1 0x40 MLOAD DUP1 SWAP2 SUB SWAP1 REVERT JUMPDEST DUP2 PUSH1 0x3 PUSH0 DUP6 PUSH20 0xFFFFFFFFFFFFFFFFFFFFFFFFFFFFFFFFFFFFFFFF AND PUSH20 0xFFFFFFFFFFFFFFFFFFFFFFFFFFFFFFFFFFFFFFFF AND DUP2 MSTORE PUSH1 0x20 ADD SWAP1 DUP2 MSTORE PUSH1 0x20 ADD PUSH0 KECCAK256 PUSH0 DUP3 DUP3 SLOAD PUSH2 0x961 SWAP2 SWAP1 PUSH2 0xE5A JUMP JUMPDEST SWAP3 POP POP DUP2 SWAP1 SSTORE POP DUP3 PUSH20 0xFFFFFFFFFFFFFFFFFFFFFFFFFFFFFFFFFFFFFFFF AND PUSH2 0x8FC DUP4 SWAP1 DUP2 ISZERO MUL SWAP1 PUSH1 0x40 MLOAD PUSH0 PUSH1 0x40 MLOAD DUP1 DUP4 SUB DUP2 DUP6 DUP9 DUP9 CALL SWAP4 POP POP POP POP ISZERO DUP1 ISZERO PUSH2 0x9AB JUMPI RETURNDATASIZE PUSH0 DUP1 RETURNDATACOPY RETURNDATASIZE PUSH0 REVERT JUMPDEST POP PUSH32 0x884EDAD9CE6FA2440D8A54CC123490EB96D2768479D49FF9C7366125A9424364 DUP4 DUP4 PUSH1 0x40 MLOAD PUSH2 0x9DD SWAP3 SWAP2 SWAP1 PUSH2 0xCD1 JUMP JUMPDEST PUSH1 0x40 MLOAD DUP1 SWAP2 SUB SWAP1 LOG1 PUSH1 0x1 SWAP1 POP SWAP3 SWAP2 POP POP JUMP JUMPDEST PUSH0 DUP2 MLOAD SWAP1 POP SWAP2 SWAP1 POP JUMP JUMPDEST PUSH0 DUP3 DUP3 MSTORE PUSH1 0x20 DUP3 ADD SWAP1 POP SWAP3 SWAP2 POP POP JUMP JUMPDEST DUP3 DUP2 DUP4 MCOPY PUSH0 DUP4 DUP4 ADD MSTORE POP POP POP JUMP JUMPDEST PUSH0 PUSH1 0x1F NOT PUSH1 0x1F DUP4 ADD AND SWAP1 POP SWAP2 SWAP1 POP JUMP JUMPDEST PUSH0 PUSH2 0xA31 DUP3 PUSH2 0x9EF JUMP JUMPDEST PUSH2 0xA3B DUP2 DUP6 PUSH2 0x9F9 JUMP JUMPDEST SWAP4 POP PUSH2 0xA4B DUP2 DUP6 PUSH1 0x20 DUP7 ADD PUSH2 0xA09 JUMP JUMPDEST PUSH2 0xA54 DUP2 PUSH2 0xA17 JUMP JUMPDEST DUP5 ADD SWAP2 POP POP SWAP3 SWAP2 POP POP JUMP JUMPDEST PUSH0 PUSH1 0x20 DUP3 ADD SWAP1 POP DUP2 DUP2 SUB PUSH0 DUP4 ADD MSTORE PUSH2 0xA77 DUP2 DUP5 PUSH2 0xA27 JUMP JUMPDEST SWAP1 POP SWAP3 SWAP2 POP POP JUMP JUMPDEST PUSH0 DUP1 REVERT JUMPDEST PUSH0 PUSH20 0xFFFFFFFFFFFFFFFFFFFFFFFFFFFFFFFFFFFFFFFF DUP3 AND SWAP1 POP SWAP2 SWAP1 POP JUMP JUMPDEST PUSH0 PUSH2 0xAAC DUP3 PUSH2 0xA83 JUMP JUMPDEST SWAP1 POP SWAP2 SWAP1 POP JUMP JUMPDEST PUSH2 0xABC DUP2 PUSH2 0xAA2 JUMP JUMPDEST DUP2 EQ PUSH2 0xAC6 JUMPI PUSH0 DUP1 REVERT JUMPDEST POP JUMP JUMPDEST PUSH0 DUP2 CALLDATALOAD SWAP1 POP PUSH2 0xAD7 DUP2 PUSH2 0xAB3 JUMP JUMPDEST SWAP3 SWAP2 POP POP JUMP JUMPDEST PUSH0 DUP2 SWAP1 POP SWAP2 SWAP1 POP JUMP JUMPDEST PUSH2 0xAEF DUP2 PUSH2 0xADD JUMP JUMPDEST DUP2 EQ PUSH2 0xAF9 JUMPI PUSH0 DUP1 REVERT JUMPDEST POP JUMP JUMPDEST PUSH0 DUP2 CALLDATALOAD SWAP1 POP PUSH2 0xB0A DUP2 PUSH2 0xAE6 JUMP JUMPDEST SWAP3 SWAP2 POP POP JUMP JUMPDEST PUSH0 DUP1 PUSH1 0x40 DUP4 DUP6 SUB SLT ISZERO PUSH2 0xB26 JUMPI PUSH2 0xB25 PUSH2 0xA7F JUMP JUMPDEST JUMPDEST PUSH0 PUSH2 0xB33 DUP6 DUP3 DUP7 ADD PUSH2 0xAC9 JUMP JUMPDEST SWAP3 POP POP PUSH1 0x20 PUSH2 0xB44 DUP6 DUP3 DUP7 ADD PUSH2 0xAFC JUMP JUMPDEST SWAP2 POP POP SWAP3 POP SWAP3 SWAP1 POP JUMP JUMPDEST PUSH0 DUP2 ISZERO ISZERO SWAP1 POP SWAP2 SWAP1 POP JUMP JUMPDEST PUSH2 0xB62 DUP2 PUSH2 0xB4E JUMP JUMPDEST DUP3 MSTORE POP POP JUMP JUMPDEST PUSH0 PUSH1 0x20 DUP3 ADD SWAP1 POP PUSH2 0xB7B PUSH0 DUP4 ADD DUP5 PUSH2 0xB59 JUMP JUMPDEST SWAP3 SWAP2 POP POP JUMP JUMPDEST PUSH2 0xB8A DUP2 PUSH2 0xADD JUMP JUMPDEST DUP3 MSTORE POP POP JUMP JUMPDEST PUSH0 PUSH1 0x20 DUP3 ADD SWAP1 POP PUSH2 0xBA3 PUSH0 DUP4 ADD DUP5 PUSH2 0xB81 JUMP JUMPDEST SWAP3 SWAP2 POP POP JUMP JUMPDEST PUSH0 DUP1 PUSH0 PUSH1 0x60 DUP5 DUP7 SUB SLT ISZERO PUSH2 0xBC0 JUMPI PUSH2 0xBBF PUSH2 0xA7F JUMP JUMPDEST JUMPDEST PUSH0 PUSH2 0xBCD DUP7 DUP3 DUP8 ADD PUSH2 0xAC9 JUMP JUMPDEST SWAP4 POP POP PUSH1 0x20 PUSH2 0xBDE DUP7 DUP3 DUP8 ADD PUSH2 0xAC9 JUMP JUMPDEST SWAP3 POP POP PUSH1 0x40 PUSH2 0xBEF DUP7 DUP3 DUP8 ADD PUSH2 0xAFC JUMP JUMPDEST SWAP2 POP POP SWAP3 POP SWAP3 POP SWAP3 JUMP JUMPDEST PUSH0 PUSH1 0x20 DUP3 DUP5 SUB SLT ISZERO PUSH2 0xC0E JUMPI PUSH2 0xC0D PUSH2 0xA7F JUMP JUMPDEST JUMPDEST PUSH0 PUSH2 0xC1B DUP5 DUP3 DUP6 ADD PUSH2 0xAC9 JUMP JUMPDEST SWAP2 POP POP SWAP3 SWAP2 POP POP JUMP JUMPDEST PUSH0 DUP1 PUSH1 0x40 DUP4 DUP6 SUB SLT ISZERO PUSH2 0xC3A JUMPI PUSH2 0xC39 PUSH2 0xA7F JUMP JUMPDEST JUMPDEST PUSH0 PUSH2 0xC47 DUP6 DUP3 DUP7 ADD PUSH2 0xAC9 JUMP JUMPDEST SWAP3 POP POP PUSH1 0x20 PUSH2 0xC58 DUP6 DUP3 DUP7 ADD PUSH2 0xAC9 JUMP JUMPDEST SWAP2 POP POP SWAP3 POP SWAP3 SWAP1 POP JUMP JUMPDEST PUSH32 0x4E487B7100000000000000000000000000000000000000000000000000000000 PUSH0 MSTORE PUSH1 0x11 PUSH1 0x4 MSTORE PUSH1 0x24 PUSH0 REVERT JUMPDEST PUSH0 PUSH2 0xC99 DUP3 PUSH2 0xADD JUMP JUMPDEST SWAP2 POP PUSH2 0xCA4 DUP4 PUSH2 0xADD JUMP JUMPDEST SWAP3 POP DUP3 DUP3 ADD SWAP1 POP DUP1 DUP3 GT ISZERO PUSH2 0xCBC JUMPI PUSH2 0xCBB PUSH2 0xC62 JUMP JUMPDEST JUMPDEST SWAP3 SWAP2 POP POP JUMP JUMPDEST PUSH2 0xCCB DUP2 PUSH2 0xAA2 JUMP JUMPDEST DUP3 MSTORE POP POP JUMP JUMPDEST PUSH0 PUSH1 0x40 DUP3 ADD SWAP1 POP PUSH2 0xCE4 PUSH0 DUP4 ADD DUP6 PUSH2 0xCC2 JUMP JUMPDEST PUSH2 0xCF1 PUSH1 0x20 DUP4 ADD DUP5 PUSH2 0xB81 JUMP JUMPDEST SWAP4 SWAP3 POP POP POP JUMP JUMPDEST PUSH32 0x4E487B7100000000000000000000000000000000000000000000000000000000 PUSH0 MSTORE PUSH1 0x22 PUSH1 0x4 MSTORE PUSH1 0x24 PUSH0 REVERT JUMPDEST PUSH0 PUSH1 0x2 DUP3 DIV SWAP1 POP PUSH1 0x1 DUP3 AND DUP1 PUSH2 0xD3C JUMPI PUSH1 0x7F DUP3 AND SWAP2 POP JUMPDEST PUSH1 0x20 DUP3 LT DUP2 SUB PUSH2 0xD4F JUMPI PUSH2 0xD4E PUSH2 0xCF8 JUMP JUMPDEST JUMPDEST POP SWAP2 SWAP1 POP JUMP JUMPDEST PUSH0 PUSH1 0x60 DUP3 ADD SWAP1 POP PUSH2 0xD68 PUSH0 DUP4 ADD DUP7 PUSH2 0xCC2 JUMP JUMPDEST PUSH2 0xD75 PUSH1 0x20 DUP4 ADD DUP6 PUSH2 0xCC2 JUMP JUMPDEST PUSH2 0xD82 PUSH1 0x40 DUP4 ADD DUP5 PUSH2 0xB81 JUMP JUMPDEST SWAP5 SWAP4 POP POP POP POP JUMP JUMPDEST PUSH32 0x6E6F7420656E6F7567682062616C616E6365206F6620736F7572636500000000 PUSH0 DUP3 ADD MSTORE POP JUMP JUMPDEST PUSH0 PUSH2 0xDBE PUSH1 0x1C DUP4 PUSH2 0x9F9 JUMP JUMPDEST SWAP2 POP PUSH2 0xDC9 DUP3 PUSH2 0xD8A JUMP JUMPDEST PUSH1 0x20 DUP3 ADD SWAP1 POP SWAP2 SWAP1 POP JUMP JUMPDEST PUSH0 PUSH1 0x20 DUP3 ADD SWAP1 POP DUP2 DUP2 SUB PUSH0 DUP4 ADD MSTORE PUSH2 0xDEB DUP2 PUSH2 0xDB2 JUMP JUMPDEST SWAP1 POP SWAP2 SWAP1 POP JUMP JUMPDEST PUSH32 0x6E6F7420656E6F75676820616C6C6F77616E6365000000000000000000000000 PUSH0 DUP3 ADD MSTORE POP JUMP JUMPDEST PUSH0 PUSH2 0xE26 PUSH1 0x14 DUP4 PUSH2 0x9F9 JUMP JUMPDEST SWAP2 POP PUSH2 0xE31 DUP3 PUSH2 0xDF2 JUMP JUMPDEST PUSH1 0x20 DUP3 ADD SWAP1 POP SWAP2 SWAP1 POP JUMP JUMPDEST PUSH0 PUSH1 0x20 DUP3 ADD SWAP1 POP DUP2 DUP2 SUB PUSH0 DUP4 ADD MSTORE PUSH2 0xE53 DUP2 PUSH2 0xE1A JUMP JUMPDEST SWAP1 POP SWAP2 SWAP1 POP JUMP JUMPDEST PUSH0 PUSH2 0xE64 DUP3 PUSH2 0xADD JUMP JUMPDEST SWAP2 POP PUSH2 0xE6F DUP4 PUSH2 0xADD JUMP JUMPDEST SWAP3 POP DUP3 DUP3 SUB SWAP1 POP DUP2 DUP2 GT ISZERO PUSH2 0xE87 JUMPI PUSH2 0xE86 PUSH2 0xC62 JUMP JUMPDEST JUMPDEST SWAP3 SWAP2 POP POP JUMP JUMPDEST PUSH32 0x6E6F7420656E6F7567682062616C616E63650000000000000000000000000000 PUSH0 DUP3 ADD MSTORE POP JUMP JUMPDEST PUSH0 PUSH2 0xEC1 PUSH1 0x12 DUP4 PUSH2 0x9F9 JUMP JUMPDEST SWAP2 POP PUSH2 0xECC DUP3 PUSH2 0xE8D JUMP JUMPDEST PUSH1 0x20 DUP3 ADD SWAP1 POP SWAP2 SWAP1 POP JUMP JUMPDEST PUSH0 PUSH1 0x20 DUP3 ADD SWAP1 POP DUP2 DUP2 SUB PUSH0 DUP4 ADD MSTORE PUSH2 0xEEE DUP2 PUSH2 0xEB5 JUMP JUMPDEST SWAP1 POP SWAP2 SWAP1 POP JUMP INVALID LOG2 PUSH5 0x6970667358 0x22 SLT KECCAK256 STOP 0xCA PUSH8 0x9AB9252B154AF68F GASLIMIT SWAP1 SWAP10 PUSH14 0xD2874C2850DD0DB88CFC768BCB1F CALLDATASIZE 0xC4 0xEA PUSH5 0x736F6C6343 STOP ADDMOD BYTE STOP CALLER "
		},
		"gasEstimates": {
			"creation": {
				"codeDepositCost": "776600",
				"executionCost": "infinite",
				"totalCost": "infinite"
			},
			"external": {
				"": "infinite",
				"allowance(address,address)": "infinite",
				"approve(address,uint256)": "infinite",
				"balance()": "2469",
				"balanceOf(address)": "2891",
				"deposit()": "infinite",
				"name()": "infinite",
				"symbol()": "infinite",
				"totalSupply()": "379",
				"transfer(address,uint256)": "infinite",
				"transferFrom(address,address,uint256)": "infinite",
				"withdraw(address,uint256)": "infinite"
			}
		},
		"methodIdentifiers": {
			"allowance(address,address)": "dd62ed3e",
			"approve(address,uint256)": "095ea7b3",
			"balance()": "b69ef8a8",
			"balanceOf(address)": "70a08231",
			"deposit()": "d0e30db0",
			"name()": "06fdde03",
			"symbol()": "95d89b41",
			"totalSupply()": "18160ddd",
			"transfer(address,uint256)": "a9059cbb",
			"transferFrom(address,address,uint256)": "23b872dd",
			"withdraw(address,uint256)": "f3fef3a3"
		}
	},
	"abi": [
		{
			"anonymous": false,
			"inputs": [
				{
					"indexed": false,
					"internalType": "address",
					"name": "fromAds",
					"type": "address"
				},
				{
					"indexed": false,
					"internalType": "address",
					"name": "toAds",
					"type": "address"
				},
				{
					"indexed": false,
					"internalType": "uint256",
					"name": "amount",
					"type": "uint256"
				}
			],
			"name": "Approve",
			"type": "event"
		},
		{
			"anonymous": false,
			"inputs": [
				{
					"indexed": false,
					"internalType": "address",
					"name": "fromAds",
					"type": "address"
				},
				{
					"indexed": false,
					"internalType": "uint256",
					"name": "amount",
					"type": "uint256"
				}
			],
			"name": "Deposit",
			"type": "event"
		},
		{
			"anonymous": false,
			"inputs": [
				{
					"indexed": false,
					"internalType": "address",
					"name": "src",
					"type": "address"
				},
				{
					"indexed": false,
					"internalType": "address",
					"name": "toAds",
					"type": "address"
				},
				{
					"indexed": false,
					"internalType": "uint256",
					"name": "amount",
					"type": "uint256"
				}
			],
			"name": "TransferFrom",
			"type": "event"
		},
		{
			"anonymous": false,
			"inputs": [
				{
					"indexed": false,
					"internalType": "address",
					"name": "toAds",
					"type": "address"
				},
				{
					"indexed": false,
					"internalType": "uint256",
					"name": "amount",
					"type": "uint256"
				}
			],
			"name": "Withdraw",
			"type": "event"
		},
		{
			"stateMutability": "payable",
			"type": "fallback"
		},
		{
			"inputs": [
				{
					"internalType": "address",
					"name": "",
					"type": "address"
				},
				{
					"internalType": "address",
					"name": "",
					"type": "address"
				}
			],
			"name": "allowance",
			"outputs": [
				{
					"internalType": "uint256",
					"name": "",
					"type": "uint256"
				}
			],
			"stateMutability": "view",
			"type": "function"
		},
		{
			"inputs": [
				{
					"internalType": "address",
					"name": "toAds",
					"type": "address"
				},
				{
					"internalType": "uint256",
					"name": "amount",
					"type": "uint256"
				}
			],
			"name": "approve",
			"outputs": [
				{
					"internalType": "bool",
					"name": "",
					"type": "bool"
				}
			],
			"stateMutability": "nonpayable",
			"type": "function"
		},
		{
			"inputs": [],
			"name": "balance",
			"outputs": [
				{
					"internalType": "uint256",
					"name": "",
					"type": "uint256"
				}
			],
			"stateMutability": "view",
			"type": "function"
		},
		{
			"inputs": [
				{
					"internalType": "address",
					"name": "",
					"type": "address"
				}
			],
			"name": "balanceOf",
			"outputs": [
				{
					"internalType": "uint256",
					"name": "",
					"type": "uint256"
				}
			],
			"stateMutability": "view",
			"type": "function"
		},
		{
			"inputs": [],
			"name": "deposit",
			"outputs": [
				{
					"internalType": "bool",
					"name": "",
					"type": "bool"
				}
			],
			"stateMutability": "payable",
			"type": "function"
		},
		{
			"inputs": [],
			"name": "name",
			"outputs": [
				{
					"internalType": "string",
					"name": "",
					"type": "string"
				}
			],
			"stateMutability": "view",
			"type": "function"
		},
		{
			"inputs": [],
			"name": "symbol",
			"outputs": [
				{
					"internalType": "string",
					"name": "",
					"type": "string"
				}
			],
			"stateMutability": "view",
			"type": "function"
		},
		{
			"inputs": [],
			"name": "totalSupply",
			"outputs": [
				{
					"internalType": "uint256",
					"name": "",
					"type": "uint256"
				}
			],
			"stateMutability": "view",
			"type": "function"
		},
		{
			"inputs": [
				{
					"internalType": "address",
					"name": "toAds",
					"type": "address"
				},
				{
					"internalType": "uint256",
					"name": "amount",
					"type": "uint256"
				}
			],
			"name": "transfer",
			"outputs": [
				{
					"internalType": "bool",
					"name": "",
					"type": "bool"
				}
			],
			"stateMutability": "nonpayable",
			"type": "function"
		},
		{
			"inputs": [
				{
					"internalType": "address",
					"name": "src",
					"type": "address"
				},
				{
					"internalType": "address",
					"name": "toAds",
					"type": "address"
				},
				{
					"internalType": "uint256",
					"name": "amount",
					"type": "uint256"
				}
			],
			"name": "transferFrom",
			"outputs": [
				{
					"internalType": "bool",
					"name": "",
					"type": "bool"
				}
			],
			"stateMutability": "nonpayable",
			"type": "function"
		},
		{
			"inputs": [
				{
					"internalType": "address",
					"name": "toAds",
					"type": "address"
				},
				{
					"internalType": "uint256",
					"name": "amount",
					"type": "uint256"
				}
			],
			"name": "withdraw",
			"outputs": [
				{
					"internalType": "bool",
					"name": "",
					"type": "bool"
				}
			],
			"stateMutability": "nonpayable",
			"type": "function"
		},
		{
			"stateMutability": "payable",
			"type": "receive"
		}
	]
}