{
	"solidity实战训练/EtherWallet.sol": {
		"EtherWallet": {
			"abi": [
				{
					"inputs": [],
					"stateMutability": "nonpayable",
					"type": "constructor"
				},
				{
					"anonymous": false,
					"inputs": [
						{
							"indexed": false,
							"internalType": "string",
							"name": "funName",
							"type": "string"
						},
						{
							"indexed": false,
							"internalType": "address",
							"name": "from",
							"type": "address"
						},
						{
							"indexed": false,
							"internalType": "uint256",
							"name": "value",
							"type": "uint256"
						},
						{
							"indexed": false,
							"internalType": "bytes",
							"name": "data",
							"type": "bytes"
						}
					],
					"name": "Log",
					"type": "event"
				},
				{
					"stateMutability": "payable",
					"type": "fallback"
				},
				{
					"inputs": [],
					"name": "getBalance",
					"outputs": [
						{
							"internalType": "uint256",
							"name": "",
							"type": "uint256"
						}
					],
					"stateMutability": "view",
					"type": "function"
				},
				{
					"inputs": [],
					"name": "owner",
					"outputs": [
						{
							"internalType": "address payable",
							"name": "",
							"type": "address"
						}
					],
					"stateMutability": "view",
					"type": "function"
				},
				{
					"inputs": [],
					"name": "withdraw1",
					"outputs": [],
					"stateMutability": "nonpayable",
					"type": "function"
				},
				{
					"inputs": [],
					"name": "withdraw2",
					"outputs": [],
					"stateMutability": "nonpayable",
					"type": "function"
				},
				{
					"inputs": [],
					"name": "withdraw3",
					"outputs": [],
					"stateMutability": "nonpayable",
					"type": "function"
				},
				{
					"stateMutability": "payable",
					"type": "receive"
				}
			],
			"devdoc": {
				"kind": "dev",
				"methods": {},
				"version": 1
			},
			"evm": {
				"assembly": "    /* \"solidity\\xe5\\xae\\x9e\\xe6\\x88\\x98\\xe8\\xae\\xad\\xe7\\xbb\\x83/EtherWallet.sol\":60:1157  contract EtherWallet{... */\n  mstore(0x40, 0xa0)\n    /* \"solidity\\xe5\\xae\\x9e\\xe6\\x88\\x98\\xe8\\xae\\xad\\xe7\\xbb\\x83/EtherWallet.sol\":207:268  constructor(){... */\n  callvalue\n  dup1\n  iszero\n  tag_1\n  jumpi\n  0x00\n  dup1\n  revert\ntag_1:\n  pop\n    /* \"solidity\\xe5\\xae\\x9e\\xe6\\x88\\x98\\xe8\\xae\\xad\\xe7\\xbb\\x83/EtherWallet.sol\":248:258  msg.sender */\n  caller\n    /* \"solidity\\xe5\\xae\\x9e\\xe6\\x88\\x98\\xe8\\xae\\xad\\xe7\\xbb\\x83/EtherWallet.sol\":231:259  owner = payable (msg.sender) */\n  0xffffffffffffffffffffffffffffffffffffffff\n  and\n  0x80\n  dup2\n  0xffffffffffffffffffffffffffffffffffffffff\n  and\n  dup2\n  mstore\n  pop\n  pop\n    /* \"solidity\\xe5\\xae\\x9e\\xe6\\x88\\x98\\xe8\\xae\\xad\\xe7\\xbb\\x83/EtherWallet.sol\":60:1157  contract EtherWallet{... */\n  mload(0x80)\n  codecopy(0x00, dataOffset(sub_0), dataSize(sub_0))\n  0x00\n  assignImmutable(\"0x2a80e1ef1d7842f27f2e6be0972bb708b9a135c38860dbe73c27c3486c34f4de\")\n  return(0x00, dataSize(sub_0))\nstop\n\nsub_0: assembly {\n        /* \"solidity\\xe5\\xae\\x9e\\xe6\\x88\\x98\\xe8\\xae\\xad\\xe7\\xbb\\x83/EtherWallet.sol\":60:1157  contract EtherWallet{... */\n      mstore(0x40, 0x80)\n      jumpi(tag_1, lt(calldatasize, 0x04))\n      shr(0xe0, calldataload(0x00))\n      dup1\n      0x79efb0\n      eq\n      tag_3\n      jumpi\n      dup1\n      0x12065fe0\n      eq\n      tag_4\n      jumpi\n      dup1\n      0x4fa3eeff\n      eq\n      tag_5\n      jumpi\n      dup1\n      0x8da5cb5b\n      eq\n      tag_6\n      jumpi\n      dup1\n      0xea98847b\n      eq\n      tag_7\n      jumpi\n      jump(tag_2)\n    tag_1:\n      jumpi(tag_2, calldatasize)\n        /* \"solidity\\xe5\\xae\\x9e\\xe6\\x88\\x98\\xe8\\xae\\xad\\xe7\\xbb\\x83/EtherWallet.sol\":317:358  Log('receive', msg.sender, msg.value, \"\") */\n      0xf7f75251dee7d7fc22deac3247729ebe7c86541f35930bf10c2a4207479a3b6c\n        /* \"solidity\\xe5\\xae\\x9e\\xe6\\x88\\x98\\xe8\\xae\\xad\\xe7\\xbb\\x83/EtherWallet.sol\":332:342  msg.sender */\n      caller\n        /* \"solidity\\xe5\\xae\\x9e\\xe6\\x88\\x98\\xe8\\xae\\xad\\xe7\\xbb\\x83/EtherWallet.sol\":344:353  msg.value */\n      callvalue\n        /* \"solidity\\xe5\\xae\\x9e\\xe6\\x88\\x98\\xe8\\xae\\xad\\xe7\\xbb\\x83/EtherWallet.sol\":317:358  Log('receive', msg.sender, msg.value, \"\") */\n      mload(0x40)\n      tag_10\n      swap3\n      swap2\n      swap1\n      tag_11\n      jump\t// in\n    tag_10:\n      mload(0x40)\n      dup1\n      swap2\n      sub\n      swap1\n      log1\n        /* \"solidity\\xe5\\xae\\x9e\\xe6\\x88\\x98\\xe8\\xae\\xad\\xe7\\xbb\\x83/EtherWallet.sol\":60:1157  contract EtherWallet{... */\n      stop\n    tag_2:\n        /* \"solidity\\xe5\\xae\\x9e\\xe6\\x88\\x98\\xe8\\xae\\xad\\xe7\\xbb\\x83/EtherWallet.sol\":417:458  Log('receive', msg.sender, msg.value, \"\") */\n      0xf7f75251dee7d7fc22deac3247729ebe7c86541f35930bf10c2a4207479a3b6c\n        /* \"solidity\\xe5\\xae\\x9e\\xe6\\x88\\x98\\xe8\\xae\\xad\\xe7\\xbb\\x83/EtherWallet.sol\":432:442  msg.sender */\n      caller\n        /* \"solidity\\xe5\\xae\\x9e\\xe6\\x88\\x98\\xe8\\xae\\xad\\xe7\\xbb\\x83/EtherWallet.sol\":444:453  msg.value */\n      callvalue\n        /* \"solidity\\xe5\\xae\\x9e\\xe6\\x88\\x98\\xe8\\xae\\xad\\xe7\\xbb\\x83/EtherWallet.sol\":417:458  Log('receive', msg.sender, msg.value, \"\") */\n      mload(0x40)\n      tag_14\n      swap3\n      swap2\n      swap1\n      tag_11\n      jump\t// in\n    tag_14:\n      mload(0x40)\n      dup1\n      swap2\n      sub\n      swap1\n      log1\n        /* \"solidity\\xe5\\xae\\x9e\\xe6\\x88\\x98\\xe8\\xae\\xad\\xe7\\xbb\\x83/EtherWallet.sol\":60:1157  contract EtherWallet{... */\n      stop\n        /* \"solidity\\xe5\\xae\\x9e\\xe6\\x88\\x98\\xe8\\xae\\xad\\xe7\\xbb\\x83/EtherWallet.sol\":472:633  function withdraw1() public { //transfer... */\n    tag_3:\n      callvalue\n      dup1\n      iszero\n      tag_15\n      jumpi\n      0x00\n      dup1\n      revert\n    tag_15:\n      pop\n      tag_16\n      tag_17\n      jump\t// in\n    tag_16:\n      stop\n        /* \"solidity\\xe5\\xae\\x9e\\xe6\\x88\\x98\\xe8\\xae\\xad\\xe7\\xbb\\x83/EtherWallet.sol\":1060:1154  function getBalance()public view returns (uint){... */\n    tag_4:\n      callvalue\n      dup1\n      iszero\n      tag_18\n      jumpi\n      0x00\n      dup1\n      revert\n    tag_18:\n      pop\n      tag_19\n      tag_20\n      jump\t// in\n    tag_19:\n      mload(0x40)\n      tag_21\n      swap2\n      swap1\n      tag_22\n      jump\t// in\n    tag_21:\n      mload(0x40)\n      dup1\n      swap2\n      sub\n      swap1\n      return\n        /* \"solidity\\xe5\\xae\\x9e\\xe6\\x88\\x98\\xe8\\xae\\xad\\xe7\\xbb\\x83/EtherWallet.sol\":848:1054  function withdraw3() public { //call... */\n    tag_5:\n      callvalue\n      dup1\n      iszero\n      tag_23\n      jumpi\n      0x00\n      dup1\n      revert\n    tag_23:\n      pop\n      tag_24\n      tag_25\n      jump\t// in\n    tag_24:\n      stop\n        /* \"solidity\\xe5\\xae\\x9e\\xe6\\x88\\x98\\xe8\\xae\\xad\\xe7\\xbb\\x83/EtherWallet.sol\":89:127  address payable public immutable owner */\n    tag_6:\n      callvalue\n      dup1\n      iszero\n      tag_26\n      jumpi\n      0x00\n      dup1\n      revert\n    tag_26:\n      pop\n      tag_27\n      tag_28\n      jump\t// in\n    tag_27:\n      mload(0x40)\n      tag_29\n      swap2\n      swap1\n      tag_30\n      jump\t// in\n    tag_29:\n      mload(0x40)\n      dup1\n      swap2\n      sub\n      swap1\n      return\n        /* \"solidity\\xe5\\xae\\x9e\\xe6\\x88\\x98\\xe8\\xae\\xad\\xe7\\xbb\\x83/EtherWallet.sol\":639:842  function withdraw2() public { //send... */\n    tag_7:\n      callvalue\n      dup1\n      iszero\n      tag_31\n      jumpi\n      0x00\n      dup1\n      revert\n    tag_31:\n      pop\n      tag_32\n      tag_33\n      jump\t// in\n    tag_32:\n      stop\n        /* \"solidity\\xe5\\xae\\x9e\\xe6\\x88\\x98\\xe8\\xae\\xad\\xe7\\xbb\\x83/EtherWallet.sol\":472:633  function withdraw1() public { //transfer... */\n    tag_17:\n        /* \"solidity\\xe5\\xae\\x9e\\xe6\\x88\\x98\\xe8\\xae\\xad\\xe7\\xbb\\x83/EtherWallet.sol\":539:549  msg.sender */\n      caller\n        /* \"solidity\\xe5\\xae\\x9e\\xe6\\x88\\x98\\xe8\\xae\\xad\\xe7\\xbb\\x83/EtherWallet.sol\":530:549  owner == msg.sender */\n      0xffffffffffffffffffffffffffffffffffffffff\n      and\n        /* \"solidity\\xe5\\xae\\x9e\\xe6\\x88\\x98\\xe8\\xae\\xad\\xe7\\xbb\\x83/EtherWallet.sol\":530:535  owner */\n      immutable(\"0x2a80e1ef1d7842f27f2e6be0972bb708b9a135c38860dbe73c27c3486c34f4de\")\n        /* \"solidity\\xe5\\xae\\x9e\\xe6\\x88\\x98\\xe8\\xae\\xad\\xe7\\xbb\\x83/EtherWallet.sol\":530:549  owner == msg.sender */\n      0xffffffffffffffffffffffffffffffffffffffff\n      and\n      eq\n        /* \"solidity\\xe5\\xae\\x9e\\xe6\\x88\\x98\\xe8\\xae\\xad\\xe7\\xbb\\x83/EtherWallet.sol\":522:562  require(owner == msg.sender,\"not onwer\") */\n      tag_35\n      jumpi\n      mload(0x40)\n      0x08c379a000000000000000000000000000000000000000000000000000000000\n      dup2\n      mstore\n      0x04\n      add\n      tag_36\n      swap1\n      tag_37\n      jump\t// in\n    tag_36:\n      mload(0x40)\n      dup1\n      swap2\n      sub\n      swap1\n      revert\n    tag_35:\n        /* \"solidity\\xe5\\xae\\x9e\\xe6\\x88\\x98\\xe8\\xae\\xad\\xe7\\xbb\\x83/EtherWallet.sol\":582:592  msg.sender */\n      caller\n        /* \"solidity\\xe5\\xae\\x9e\\xe6\\x88\\x98\\xe8\\xae\\xad\\xe7\\xbb\\x83/EtherWallet.sol\":573:602  payable (msg.sender).transfer */\n      0xffffffffffffffffffffffffffffffffffffffff\n      and\n        /* \"solidity\\xe5\\xae\\x9e\\xe6\\x88\\x98\\xe8\\xae\\xad\\xe7\\xbb\\x83/EtherWallet.sol\":573:625  payable (msg.sender).transfer(address(this).balance) */\n      0x08fc\n        /* \"solidity\\xe5\\xae\\x9e\\xe6\\x88\\x98\\xe8\\xae\\xad\\xe7\\xbb\\x83/EtherWallet.sol\":603:624  address(this).balance */\n      selfbalance\n        /* \"solidity\\xe5\\xae\\x9e\\xe6\\x88\\x98\\xe8\\xae\\xad\\xe7\\xbb\\x83/EtherWallet.sol\":573:625  payable (msg.sender).transfer(address(this).balance) */\n      swap1\n      dup2\n      iszero\n      mul\n      swap1\n      mload(0x40)\n      0x00\n      mload(0x40)\n      dup1\n      dup4\n      sub\n      dup2\n      dup6\n      dup9\n      dup9\n      call\n      swap4\n      pop\n      pop\n      pop\n      pop\n      iszero\n      dup1\n      iszero\n      tag_39\n      jumpi\n      returndatasize\n      0x00\n      dup1\n      returndatacopy\n      revert(0x00, returndatasize)\n    tag_39:\n      pop\n        /* \"solidity\\xe5\\xae\\x9e\\xe6\\x88\\x98\\xe8\\xae\\xad\\xe7\\xbb\\x83/EtherWallet.sol\":472:633  function withdraw1() public { //transfer... */\n      jump\t// out\n        /* \"solidity\\xe5\\xae\\x9e\\xe6\\x88\\x98\\xe8\\xae\\xad\\xe7\\xbb\\x83/EtherWallet.sol\":1060:1154  function getBalance()public view returns (uint){... */\n    tag_20:\n        /* \"solidity\\xe5\\xae\\x9e\\xe6\\x88\\x98\\xe8\\xae\\xad\\xe7\\xbb\\x83/EtherWallet.sol\":1102:1106  uint */\n      0x00\n        /* \"solidity\\xe5\\xae\\x9e\\xe6\\x88\\x98\\xe8\\xae\\xad\\xe7\\xbb\\x83/EtherWallet.sol\":1125:1146  address(this).balance */\n      selfbalance\n        /* \"solidity\\xe5\\xae\\x9e\\xe6\\x88\\x98\\xe8\\xae\\xad\\xe7\\xbb\\x83/EtherWallet.sol\":1118:1146  return address(this).balance */\n      swap1\n      pop\n        /* \"solidity\\xe5\\xae\\x9e\\xe6\\x88\\x98\\xe8\\xae\\xad\\xe7\\xbb\\x83/EtherWallet.sol\":1060:1154  function getBalance()public view returns (uint){... */\n      swap1\n      jump\t// out\n        /* \"solidity\\xe5\\xae\\x9e\\xe6\\x88\\x98\\xe8\\xae\\xad\\xe7\\xbb\\x83/EtherWallet.sol\":848:1054  function withdraw3() public { //call... */\n    tag_25:\n        /* \"solidity\\xe5\\xae\\x9e\\xe6\\x88\\x98\\xe8\\xae\\xad\\xe7\\xbb\\x83/EtherWallet.sol\":911:921  msg.sender */\n      caller\n        /* \"solidity\\xe5\\xae\\x9e\\xe6\\x88\\x98\\xe8\\xae\\xad\\xe7\\xbb\\x83/EtherWallet.sol\":902:921  owner == msg.sender */\n      0xffffffffffffffffffffffffffffffffffffffff\n      and\n        /* \"solidity\\xe5\\xae\\x9e\\xe6\\x88\\x98\\xe8\\xae\\xad\\xe7\\xbb\\x83/EtherWallet.sol\":902:907  owner */\n      immutable(\"0x2a80e1ef1d7842f27f2e6be0972bb708b9a135c38860dbe73c27c3486c34f4de\")\n        /* \"solidity\\xe5\\xae\\x9e\\xe6\\x88\\x98\\xe8\\xae\\xad\\xe7\\xbb\\x83/EtherWallet.sol\":902:921  owner == msg.sender */\n      0xffffffffffffffffffffffffffffffffffffffff\n      and\n      eq\n        /* \"solidity\\xe5\\xae\\x9e\\xe6\\x88\\x98\\xe8\\xae\\xad\\xe7\\xbb\\x83/EtherWallet.sol\":894:934  require(owner == msg.sender,\"not onwer\") */\n      tag_42\n      jumpi\n      mload(0x40)\n      0x08c379a000000000000000000000000000000000000000000000000000000000\n      dup2\n      mstore\n      0x04\n      add\n      tag_43\n      swap1\n      tag_37\n      jump\t// in\n    tag_43:\n      mload(0x40)\n      dup1\n      swap2\n      sub\n      swap1\n      revert\n    tag_42:\n        /* \"solidity\\xe5\\xae\\x9e\\xe6\\x88\\x98\\xe8\\xae\\xad\\xe7\\xbb\\x83/EtherWallet.sol\":946:958  bool success */\n      0x00\n        /* \"solidity\\xe5\\xae\\x9e\\xe6\\x88\\x98\\xe8\\xae\\xad\\xe7\\xbb\\x83/EtherWallet.sol\":963:973  msg.sender */\n      caller\n        /* \"solidity\\xe5\\xae\\x9e\\xe6\\x88\\x98\\xe8\\xae\\xad\\xe7\\xbb\\x83/EtherWallet.sol\":963:978  msg.sender.call */\n      0xffffffffffffffffffffffffffffffffffffffff\n      and\n        /* \"solidity\\xe5\\xae\\x9e\\xe6\\x88\\x98\\xe8\\xae\\xad\\xe7\\xbb\\x83/EtherWallet.sol\":985:988  200 */\n      0xc8\n        /* \"solidity\\xe5\\xae\\x9e\\xe6\\x88\\x98\\xe8\\xae\\xad\\xe7\\xbb\\x83/EtherWallet.sol\":963:993  msg.sender.call{value:200}(\"\") */\n      mload(0x40)\n      tag_44\n      swap1\n      tag_45\n      jump\t// in\n    tag_44:\n      0x00\n      mload(0x40)\n      dup1\n      dup4\n      sub\n      dup2\n      dup6\n      dup8\n      gas\n      call\n      swap3\n      pop\n      pop\n      pop\n      returndatasize\n      dup1\n      0x00\n      dup2\n      eq\n      tag_48\n      jumpi\n      mload(0x40)\n      swap2\n      pop\n      and(add(returndatasize, 0x3f), not(0x1f))\n      dup3\n      add\n      0x40\n      mstore\n      returndatasize\n      dup3\n      mstore\n      returndatasize\n      0x00\n      0x20\n      dup5\n      add\n      returndatacopy\n      jump(tag_47)\n    tag_48:\n      0x60\n      swap2\n      pop\n    tag_47:\n      pop\n        /* \"solidity\\xe5\\xae\\x9e\\xe6\\x88\\x98\\xe8\\xae\\xad\\xe7\\xbb\\x83/EtherWallet.sol\":945:993  (bool success, )= msg.sender.call{value:200}(\"\") */\n      pop\n      swap1\n      pop\n        /* \"solidity\\xe5\\xae\\x9e\\xe6\\x88\\x98\\xe8\\xae\\xad\\xe7\\xbb\\x83/EtherWallet.sol\":1021:1025  true */\n      0x01\n        /* \"solidity\\xe5\\xae\\x9e\\xe6\\x88\\x98\\xe8\\xae\\xad\\xe7\\xbb\\x83/EtherWallet.sol\":1012:1025  success==true */\n      iszero\n      iszero\n        /* \"solidity\\xe5\\xae\\x9e\\xe6\\x88\\x98\\xe8\\xae\\xad\\xe7\\xbb\\x83/EtherWallet.sol\":1012:1019  success */\n      dup2\n        /* \"solidity\\xe5\\xae\\x9e\\xe6\\x88\\x98\\xe8\\xae\\xad\\xe7\\xbb\\x83/EtherWallet.sol\":1012:1025  success==true */\n      iszero\n      iszero\n      eq\n        /* \"solidity\\xe5\\xae\\x9e\\xe6\\x88\\x98\\xe8\\xae\\xad\\xe7\\xbb\\x83/EtherWallet.sol\":1004:1046  require(success==true,\"fail to withdraw!\") */\n      tag_49\n      jumpi\n      mload(0x40)\n      0x08c379a000000000000000000000000000000000000000000000000000000000\n      dup2\n      mstore\n      0x04\n      add\n      tag_50\n      swap1\n      tag_51\n      jump\t// in\n    tag_50:\n      mload(0x40)\n      dup1\n      swap2\n      sub\n      swap1\n      revert\n    tag_49:\n        /* \"solidity\\xe5\\xae\\x9e\\xe6\\x88\\x98\\xe8\\xae\\xad\\xe7\\xbb\\x83/EtherWallet.sol\":876:1054  { //call... */\n      pop\n        /* \"solidity\\xe5\\xae\\x9e\\xe6\\x88\\x98\\xe8\\xae\\xad\\xe7\\xbb\\x83/EtherWallet.sol\":848:1054  function withdraw3() public { //call... */\n      jump\t// out\n        /* \"solidity\\xe5\\xae\\x9e\\xe6\\x88\\x98\\xe8\\xae\\xad\\xe7\\xbb\\x83/EtherWallet.sol\":89:127  address payable public immutable owner */\n    tag_28:\n      immutable(\"0x2a80e1ef1d7842f27f2e6be0972bb708b9a135c38860dbe73c27c3486c34f4de\")\n      dup2\n      jump\t// out\n        /* \"solidity\\xe5\\xae\\x9e\\xe6\\x88\\x98\\xe8\\xae\\xad\\xe7\\xbb\\x83/EtherWallet.sol\":639:842  function withdraw2() public { //send... */\n    tag_33:\n        /* \"solidity\\xe5\\xae\\x9e\\xe6\\x88\\x98\\xe8\\xae\\xad\\xe7\\xbb\\x83/EtherWallet.sol\":702:712  msg.sender */\n      caller\n        /* \"solidity\\xe5\\xae\\x9e\\xe6\\x88\\x98\\xe8\\xae\\xad\\xe7\\xbb\\x83/EtherWallet.sol\":693:712  owner == msg.sender */\n      0xffffffffffffffffffffffffffffffffffffffff\n      and\n        /* \"solidity\\xe5\\xae\\x9e\\xe6\\x88\\x98\\xe8\\xae\\xad\\xe7\\xbb\\x83/EtherWallet.sol\":693:698  owner */\n      immutable(\"0x2a80e1ef1d7842f27f2e6be0972bb708b9a135c38860dbe73c27c3486c34f4de\")\n        /* \"solidity\\xe5\\xae\\x9e\\xe6\\x88\\x98\\xe8\\xae\\xad\\xe7\\xbb\\x83/EtherWallet.sol\":693:712  owner == msg.sender */\n      0xffffffffffffffffffffffffffffffffffffffff\n      and\n      eq\n        /* \"solidity\\xe5\\xae\\x9e\\xe6\\x88\\x98\\xe8\\xae\\xad\\xe7\\xbb\\x83/EtherWallet.sol\":685:725  require(owner == msg.sender,\"not onwer\") */\n      tag_53\n      jumpi\n      mload(0x40)\n      0x08c379a000000000000000000000000000000000000000000000000000000000\n      dup2\n      mstore\n      0x04\n      add\n      tag_54\n      swap1\n      tag_37\n      jump\t// in\n    tag_54:\n      mload(0x40)\n      dup1\n      swap2\n      sub\n      swap1\n      revert\n    tag_53:\n        /* \"solidity\\xe5\\xae\\x9e\\xe6\\x88\\x98\\xe8\\xae\\xad\\xe7\\xbb\\x83/EtherWallet.sol\":736:748  bool success */\n      0x00\n        /* \"solidity\\xe5\\xae\\x9e\\xe6\\x88\\x98\\xe8\\xae\\xad\\xe7\\xbb\\x83/EtherWallet.sol\":760:770  msg.sender */\n      caller\n        /* \"solidity\\xe5\\xae\\x9e\\xe6\\x88\\x98\\xe8\\xae\\xad\\xe7\\xbb\\x83/EtherWallet.sol\":751:776  payable (msg.sender).send */\n      0xffffffffffffffffffffffffffffffffffffffff\n      and\n        /* \"solidity\\xe5\\xae\\x9e\\xe6\\x88\\x98\\xe8\\xae\\xad\\xe7\\xbb\\x83/EtherWallet.sol\":751:781  payable (msg.sender).send(200) */\n      0x08fc\n        /* \"solidity\\xe5\\xae\\x9e\\xe6\\x88\\x98\\xe8\\xae\\xad\\xe7\\xbb\\x83/EtherWallet.sol\":777:780  200 */\n      0xc8\n        /* \"solidity\\xe5\\xae\\x9e\\xe6\\x88\\x98\\xe8\\xae\\xad\\xe7\\xbb\\x83/EtherWallet.sol\":751:781  payable (msg.sender).send(200) */\n      swap1\n      dup2\n      iszero\n      mul\n      swap1\n      mload(0x40)\n      0x00\n      mload(0x40)\n      dup1\n      dup4\n      sub\n      dup2\n      dup6\n      dup9\n      dup9\n      call\n      swap4\n      pop\n      pop\n      pop\n      pop\n        /* \"solidity\\xe5\\xae\\x9e\\xe6\\x88\\x98\\xe8\\xae\\xad\\xe7\\xbb\\x83/EtherWallet.sol\":736:781  bool success = payable (msg.sender).send(200) */\n      swap1\n      pop\n        /* \"solidity\\xe5\\xae\\x9e\\xe6\\x88\\x98\\xe8\\xae\\xad\\xe7\\xbb\\x83/EtherWallet.sol\":809:813  true */\n      0x01\n        /* \"solidity\\xe5\\xae\\x9e\\xe6\\x88\\x98\\xe8\\xae\\xad\\xe7\\xbb\\x83/EtherWallet.sol\":800:813  success==true */\n      iszero\n      iszero\n        /* \"solidity\\xe5\\xae\\x9e\\xe6\\x88\\x98\\xe8\\xae\\xad\\xe7\\xbb\\x83/EtherWallet.sol\":800:807  success */\n      dup2\n        /* \"solidity\\xe5\\xae\\x9e\\xe6\\x88\\x98\\xe8\\xae\\xad\\xe7\\xbb\\x83/EtherWallet.sol\":800:813  success==true */\n      iszero\n      iszero\n      eq\n        /* \"solidity\\xe5\\xae\\x9e\\xe6\\x88\\x98\\xe8\\xae\\xad\\xe7\\xbb\\x83/EtherWallet.sol\":792:834  require(success==true,\"fail to withdraw!\") */\n      tag_56\n      jumpi\n      mload(0x40)\n      0x08c379a000000000000000000000000000000000000000000000000000000000\n      dup2\n      mstore\n      0x04\n      add\n      tag_57\n      swap1\n      tag_51\n      jump\t// in\n    tag_57:\n      mload(0x40)\n      dup1\n      swap2\n      sub\n      swap1\n      revert\n    tag_56:\n        /* \"solidity\\xe5\\xae\\x9e\\xe6\\x88\\x98\\xe8\\xae\\xad\\xe7\\xbb\\x83/EtherWallet.sol\":667:842  { //send... */\n      pop\n        /* \"solidity\\xe5\\xae\\x9e\\xe6\\x88\\x98\\xe8\\xae\\xad\\xe7\\xbb\\x83/EtherWallet.sol\":639:842  function withdraw2() public { //send... */\n      jump\t// out\n        /* \"#utility.yul\":7:176   */\n    tag_58:\n        /* \"#utility.yul\":91:102   */\n      0x00\n        /* \"#utility.yul\":125:131   */\n      dup3\n        /* \"#utility.yul\":120:123   */\n      dup3\n        /* \"#utility.yul\":113:132   */\n      mstore\n        /* \"#utility.yul\":165:169   */\n      0x20\n        /* \"#utility.yul\":160:163   */\n      dup3\n        /* \"#utility.yul\":156:170   */\n      add\n        /* \"#utility.yul\":141:170   */\n      swap1\n      pop\n        /* \"#utility.yul\":7:176   */\n      swap3\n      swap2\n      pop\n      pop\n      jump\t// out\n        /* \"#utility.yul\":182:339   */\n    tag_59:\n        /* \"#utility.yul\":322:331   */\n      0x7265636569766500000000000000000000000000000000000000000000000000\n        /* \"#utility.yul\":318:319   */\n      0x00\n        /* \"#utility.yul\":310:316   */\n      dup3\n        /* \"#utility.yul\":306:320   */\n      add\n        /* \"#utility.yul\":299:332   */\n      mstore\n        /* \"#utility.yul\":182:339   */\n      pop\n      jump\t// out\n        /* \"#utility.yul\":345:710   */\n    tag_60:\n        /* \"#utility.yul\":487:490   */\n      0x00\n        /* \"#utility.yul\":508:574   */\n      tag_81\n        /* \"#utility.yul\":572:573   */\n      0x07\n        /* \"#utility.yul\":567:570   */\n      dup4\n        /* \"#utility.yul\":508:574   */\n      tag_58\n      jump\t// in\n    tag_81:\n        /* \"#utility.yul\":501:574   */\n      swap2\n      pop\n        /* \"#utility.yul\":583:676   */\n      tag_82\n        /* \"#utility.yul\":672:675   */\n      dup3\n        /* \"#utility.yul\":583:676   */\n      tag_59\n      jump\t// in\n    tag_82:\n        /* \"#utility.yul\":701:703   */\n      0x20\n        /* \"#utility.yul\":696:699   */\n      dup3\n        /* \"#utility.yul\":692:704   */\n      add\n        /* \"#utility.yul\":685:704   */\n      swap1\n      pop\n        /* \"#utility.yul\":345:710   */\n      swap2\n      swap1\n      pop\n      jump\t// out\n        /* \"#utility.yul\":716:842   */\n    tag_61:\n        /* \"#utility.yul\":753:760   */\n      0x00\n        /* \"#utility.yul\":793:835   */\n      0xffffffffffffffffffffffffffffffffffffffff\n        /* \"#utility.yul\":786:791   */\n      dup3\n        /* \"#utility.yul\":782:836   */\n      and\n        /* \"#utility.yul\":771:836   */\n      swap1\n      pop\n        /* \"#utility.yul\":716:842   */\n      swap2\n      swap1\n      pop\n      jump\t// out\n        /* \"#utility.yul\":848:944   */\n    tag_62:\n        /* \"#utility.yul\":885:892   */\n      0x00\n        /* \"#utility.yul\":914:938   */\n      tag_85\n        /* \"#utility.yul\":932:937   */\n      dup3\n        /* \"#utility.yul\":914:938   */\n      tag_61\n      jump\t// in\n    tag_85:\n        /* \"#utility.yul\":903:938   */\n      swap1\n      pop\n        /* \"#utility.yul\":848:944   */\n      swap2\n      swap1\n      pop\n      jump\t// out\n        /* \"#utility.yul\":950:1068   */\n    tag_63:\n        /* \"#utility.yul\":1037:1061   */\n      tag_87\n        /* \"#utility.yul\":1055:1060   */\n      dup2\n        /* \"#utility.yul\":1037:1061   */\n      tag_62\n      jump\t// in\n    tag_87:\n        /* \"#utility.yul\":1032:1035   */\n      dup3\n        /* \"#utility.yul\":1025:1062   */\n      mstore\n        /* \"#utility.yul\":950:1068   */\n      pop\n      pop\n      jump\t// out\n        /* \"#utility.yul\":1074:1151   */\n    tag_64:\n        /* \"#utility.yul\":1111:1118   */\n      0x00\n        /* \"#utility.yul\":1140:1145   */\n      dup2\n        /* \"#utility.yul\":1129:1145   */\n      swap1\n      pop\n        /* \"#utility.yul\":1074:1151   */\n      swap2\n      swap1\n      pop\n      jump\t// out\n        /* \"#utility.yul\":1157:1275   */\n    tag_65:\n        /* \"#utility.yul\":1244:1268   */\n      tag_90\n        /* \"#utility.yul\":1262:1267   */\n      dup2\n        /* \"#utility.yul\":1244:1268   */\n      tag_64\n      jump\t// in\n    tag_90:\n        /* \"#utility.yul\":1239:1242   */\n      dup3\n        /* \"#utility.yul\":1232:1269   */\n      mstore\n        /* \"#utility.yul\":1157:1275   */\n      pop\n      pop\n      jump\t// out\n        /* \"#utility.yul\":1281:1449   */\n    tag_66:\n        /* \"#utility.yul\":1364:1375   */\n      0x00\n        /* \"#utility.yul\":1398:1404   */\n      dup3\n        /* \"#utility.yul\":1393:1396   */\n      dup3\n        /* \"#utility.yul\":1386:1405   */\n      mstore\n        /* \"#utility.yul\":1438:1442   */\n      0x20\n        /* \"#utility.yul\":1433:1436   */\n      dup3\n        /* \"#utility.yul\":1429:1443   */\n      add\n        /* \"#utility.yul\":1414:1443   */\n      swap1\n      pop\n        /* \"#utility.yul\":1281:1449   */\n      swap3\n      swap2\n      pop\n      pop\n      jump\t// out\n        /* \"#utility.yul\":1455:1569   */\n    tag_67:\n      pop\n      jump\t// out\n        /* \"#utility.yul\":1575:1937   */\n    tag_68:\n        /* \"#utility.yul\":1716:1719   */\n      0x00\n        /* \"#utility.yul\":1737:1802   */\n      tag_94\n        /* \"#utility.yul\":1800:1801   */\n      0x00\n        /* \"#utility.yul\":1795:1798   */\n      dup4\n        /* \"#utility.yul\":1737:1802   */\n      tag_66\n      jump\t// in\n    tag_94:\n        /* \"#utility.yul\":1730:1802   */\n      swap2\n      pop\n        /* \"#utility.yul\":1811:1904   */\n      tag_95\n        /* \"#utility.yul\":1900:1903   */\n      dup3\n        /* \"#utility.yul\":1811:1904   */\n      tag_67\n      jump\t// in\n    tag_95:\n        /* \"#utility.yul\":1929:1930   */\n      0x00\n        /* \"#utility.yul\":1924:1927   */\n      dup3\n        /* \"#utility.yul\":1920:1931   */\n      add\n        /* \"#utility.yul\":1913:1931   */\n      swap1\n      pop\n        /* \"#utility.yul\":1575:1937   */\n      swap2\n      swap1\n      pop\n      jump\t// out\n        /* \"#utility.yul\":1943:2888   */\n    tag_11:\n        /* \"#utility.yul\":2265:2269   */\n      0x00\n        /* \"#utility.yul\":2303:2306   */\n      0x80\n        /* \"#utility.yul\":2292:2301   */\n      dup3\n        /* \"#utility.yul\":2288:2307   */\n      add\n        /* \"#utility.yul\":2280:2307   */\n      swap1\n      pop\n        /* \"#utility.yul\":2353:2362   */\n      dup2\n        /* \"#utility.yul\":2347:2351   */\n      dup2\n        /* \"#utility.yul\":2343:2363   */\n      sub\n        /* \"#utility.yul\":2339:2340   */\n      0x00\n        /* \"#utility.yul\":2328:2337   */\n      dup4\n        /* \"#utility.yul\":2324:2341   */\n      add\n        /* \"#utility.yul\":2317:2364   */\n      mstore\n        /* \"#utility.yul\":2381:2512   */\n      tag_97\n        /* \"#utility.yul\":2507:2511   */\n      dup2\n        /* \"#utility.yul\":2381:2512   */\n      tag_60\n      jump\t// in\n    tag_97:\n        /* \"#utility.yul\":2373:2512   */\n      swap1\n      pop\n        /* \"#utility.yul\":2522:2594   */\n      tag_98\n        /* \"#utility.yul\":2590:2592   */\n      0x20\n        /* \"#utility.yul\":2579:2588   */\n      dup4\n        /* \"#utility.yul\":2575:2593   */\n      add\n        /* \"#utility.yul\":2566:2572   */\n      dup6\n        /* \"#utility.yul\":2522:2594   */\n      tag_63\n      jump\t// in\n    tag_98:\n        /* \"#utility.yul\":2604:2676   */\n      tag_99\n        /* \"#utility.yul\":2672:2674   */\n      0x40\n        /* \"#utility.yul\":2661:2670   */\n      dup4\n        /* \"#utility.yul\":2657:2675   */\n      add\n        /* \"#utility.yul\":2648:2654   */\n      dup5\n        /* \"#utility.yul\":2604:2676   */\n      tag_65\n      jump\t// in\n    tag_99:\n        /* \"#utility.yul\":2723:2732   */\n      dup2\n        /* \"#utility.yul\":2717:2721   */\n      dup2\n        /* \"#utility.yul\":2713:2733   */\n      sub\n        /* \"#utility.yul\":2708:2710   */\n      0x60\n        /* \"#utility.yul\":2697:2706   */\n      dup4\n        /* \"#utility.yul\":2693:2711   */\n      add\n        /* \"#utility.yul\":2686:2734   */\n      mstore\n        /* \"#utility.yul\":2751:2881   */\n      tag_100\n        /* \"#utility.yul\":2876:2880   */\n      dup2\n        /* \"#utility.yul\":2751:2881   */\n      tag_68\n      jump\t// in\n    tag_100:\n        /* \"#utility.yul\":2743:2881   */\n      swap1\n      pop\n        /* \"#utility.yul\":1943:2888   */\n      swap4\n      swap3\n      pop\n      pop\n      pop\n      jump\t// out\n        /* \"#utility.yul\":2894:3116   */\n    tag_22:\n        /* \"#utility.yul\":2987:2991   */\n      0x00\n        /* \"#utility.yul\":3025:3027   */\n      0x20\n        /* \"#utility.yul\":3014:3023   */\n      dup3\n        /* \"#utility.yul\":3010:3028   */\n      add\n        /* \"#utility.yul\":3002:3028   */\n      swap1\n      pop\n        /* \"#utility.yul\":3038:3109   */\n      tag_102\n        /* \"#utility.yul\":3106:3107   */\n      0x00\n        /* \"#utility.yul\":3095:3104   */\n      dup4\n        /* \"#utility.yul\":3091:3108   */\n      add\n        /* \"#utility.yul\":3082:3088   */\n      dup5\n        /* \"#utility.yul\":3038:3109   */\n      tag_65\n      jump\t// in\n    tag_102:\n        /* \"#utility.yul\":2894:3116   */\n      swap3\n      swap2\n      pop\n      pop\n      jump\t// out\n        /* \"#utility.yul\":3122:3226   */\n    tag_69:\n        /* \"#utility.yul\":3167:3174   */\n      0x00\n        /* \"#utility.yul\":3196:3220   */\n      tag_104\n        /* \"#utility.yul\":3214:3219   */\n      dup3\n        /* \"#utility.yul\":3196:3220   */\n      tag_61\n      jump\t// in\n    tag_104:\n        /* \"#utility.yul\":3185:3220   */\n      swap1\n      pop\n        /* \"#utility.yul\":3122:3226   */\n      swap2\n      swap1\n      pop\n      jump\t// out\n        /* \"#utility.yul\":3232:3374   */\n    tag_70:\n        /* \"#utility.yul\":3335:3367   */\n      tag_106\n        /* \"#utility.yul\":3361:3366   */\n      dup2\n        /* \"#utility.yul\":3335:3367   */\n      tag_69\n      jump\t// in\n    tag_106:\n        /* \"#utility.yul\":3330:3333   */\n      dup3\n        /* \"#utility.yul\":3323:3368   */\n      mstore\n        /* \"#utility.yul\":3232:3374   */\n      pop\n      pop\n      jump\t// out\n        /* \"#utility.yul\":3380:3634   */\n    tag_30:\n        /* \"#utility.yul\":3489:3493   */\n      0x00\n        /* \"#utility.yul\":3527:3529   */\n      0x20\n        /* \"#utility.yul\":3516:3525   */\n      dup3\n        /* \"#utility.yul\":3512:3530   */\n      add\n        /* \"#utility.yul\":3504:3530   */\n      swap1\n      pop\n        /* \"#utility.yul\":3540:3627   */\n      tag_108\n        /* \"#utility.yul\":3624:3625   */\n      0x00\n        /* \"#utility.yul\":3613:3622   */\n      dup4\n        /* \"#utility.yul\":3609:3626   */\n      add\n        /* \"#utility.yul\":3600:3606   */\n      dup5\n        /* \"#utility.yul\":3540:3627   */\n      tag_70\n      jump\t// in\n    tag_108:\n        /* \"#utility.yul\":3380:3634   */\n      swap3\n      swap2\n      pop\n      pop\n      jump\t// out\n        /* \"#utility.yul\":3640:3799   */\n    tag_71:\n        /* \"#utility.yul\":3780:3791   */\n      0x6e6f74206f6e7765720000000000000000000000000000000000000000000000\n        /* \"#utility.yul\":3776:3777   */\n      0x00\n        /* \"#utility.yul\":3768:3774   */\n      dup3\n        /* \"#utility.yul\":3764:3778   */\n      add\n        /* \"#utility.yul\":3757:3792   */\n      mstore\n        /* \"#utility.yul\":3640:3799   */\n      pop\n      jump\t// out\n        /* \"#utility.yul\":3805:4170   */\n    tag_72:\n        /* \"#utility.yul\":3947:3950   */\n      0x00\n        /* \"#utility.yul\":3968:4034   */\n      tag_111\n        /* \"#utility.yul\":4032:4033   */\n      0x09\n        /* \"#utility.yul\":4027:4030   */\n      dup4\n        /* \"#utility.yul\":3968:4034   */\n      tag_58\n      jump\t// in\n    tag_111:\n        /* \"#utility.yul\":3961:4034   */\n      swap2\n      pop\n        /* \"#utility.yul\":4043:4136   */\n      tag_112\n        /* \"#utility.yul\":4132:4135   */\n      dup3\n        /* \"#utility.yul\":4043:4136   */\n      tag_71\n      jump\t// in\n    tag_112:\n        /* \"#utility.yul\":4161:4163   */\n      0x20\n        /* \"#utility.yul\":4156:4159   */\n      dup3\n        /* \"#utility.yul\":4152:4164   */\n      add\n        /* \"#utility.yul\":4145:4164   */\n      swap1\n      pop\n        /* \"#utility.yul\":3805:4170   */\n      swap2\n      swap1\n      pop\n      jump\t// out\n        /* \"#utility.yul\":4176:4595   */\n    tag_37:\n        /* \"#utility.yul\":4342:4346   */\n      0x00\n        /* \"#utility.yul\":4380:4382   */\n      0x20\n        /* \"#utility.yul\":4369:4378   */\n      dup3\n        /* \"#utility.yul\":4365:4383   */\n      add\n        /* \"#utility.yul\":4357:4383   */\n      swap1\n      pop\n        /* \"#utility.yul\":4429:4438   */\n      dup2\n        /* \"#utility.yul\":4423:4427   */\n      dup2\n        /* \"#utility.yul\":4419:4439   */\n      sub\n        /* \"#utility.yul\":4415:4416   */\n      0x00\n        /* \"#utility.yul\":4404:4413   */\n      dup4\n        /* \"#utility.yul\":4400:4417   */\n      add\n        /* \"#utility.yul\":4393:4440   */\n      mstore\n        /* \"#utility.yul\":4457:4588   */\n      tag_114\n        /* \"#utility.yul\":4583:4587   */\n      dup2\n        /* \"#utility.yul\":4457:4588   */\n      tag_72\n      jump\t// in\n    tag_114:\n        /* \"#utility.yul\":4449:4588   */\n      swap1\n      pop\n        /* \"#utility.yul\":4176:4595   */\n      swap2\n      swap1\n      pop\n      jump\t// out\n        /* \"#utility.yul\":4601:4748   */\n    tag_73:\n        /* \"#utility.yul\":4702:4713   */\n      0x00\n        /* \"#utility.yul\":4739:4742   */\n      dup2\n        /* \"#utility.yul\":4724:4742   */\n      swap1\n      pop\n        /* \"#utility.yul\":4601:4748   */\n      swap3\n      swap2\n      pop\n      pop\n      jump\t// out\n        /* \"#utility.yul\":4754:5152   */\n    tag_74:\n        /* \"#utility.yul\":4913:4916   */\n      0x00\n        /* \"#utility.yul\":4934:5017   */\n      tag_117\n        /* \"#utility.yul\":5015:5016   */\n      0x00\n        /* \"#utility.yul\":5010:5013   */\n      dup4\n        /* \"#utility.yul\":4934:5017   */\n      tag_73\n      jump\t// in\n    tag_117:\n        /* \"#utility.yul\":4927:5017   */\n      swap2\n      pop\n        /* \"#utility.yul\":5026:5119   */\n      tag_118\n        /* \"#utility.yul\":5115:5118   */\n      dup3\n        /* \"#utility.yul\":5026:5119   */\n      tag_67\n      jump\t// in\n    tag_118:\n        /* \"#utility.yul\":5144:5145   */\n      0x00\n        /* \"#utility.yul\":5139:5142   */\n      dup3\n        /* \"#utility.yul\":5135:5146   */\n      add\n        /* \"#utility.yul\":5128:5146   */\n      swap1\n      pop\n        /* \"#utility.yul\":4754:5152   */\n      swap2\n      swap1\n      pop\n      jump\t// out\n        /* \"#utility.yul\":5158:5537   */\n    tag_45:\n        /* \"#utility.yul\":5342:5345   */\n      0x00\n        /* \"#utility.yul\":5364:5511   */\n      tag_120\n        /* \"#utility.yul\":5507:5510   */\n      dup3\n        /* \"#utility.yul\":5364:5511   */\n      tag_74\n      jump\t// in\n    tag_120:\n        /* \"#utility.yul\":5357:5511   */\n      swap2\n      pop\n        /* \"#utility.yul\":5528:5531   */\n      dup2\n        /* \"#utility.yul\":5521:5531   */\n      swap1\n      pop\n        /* \"#utility.yul\":5158:5537   */\n      swap2\n      swap1\n      pop\n      jump\t// out\n        /* \"#utility.yul\":5543:5710   */\n    tag_75:\n        /* \"#utility.yul\":5683:5702   */\n      0x6661696c20746f20776974686472617721000000000000000000000000000000\n        /* \"#utility.yul\":5679:5680   */\n      0x00\n        /* \"#utility.yul\":5671:5677   */\n      dup3\n        /* \"#utility.yul\":5667:5681   */\n      add\n        /* \"#utility.yul\":5660:5703   */\n      mstore\n        /* \"#utility.yul\":5543:5710   */\n      pop\n      jump\t// out\n        /* \"#utility.yul\":5716:6082   */\n    tag_76:\n        /* \"#utility.yul\":5858:5861   */\n      0x00\n        /* \"#utility.yul\":5879:5946   */\n      tag_123\n        /* \"#utility.yul\":5943:5945   */\n      0x11\n        /* \"#utility.yul\":5938:5941   */\n      dup4\n        /* \"#utility.yul\":5879:5946   */\n      tag_58\n      jump\t// in\n    tag_123:\n        /* \"#utility.yul\":5872:5946   */\n      swap2\n      pop\n        /* \"#utility.yul\":5955:6048   */\n      tag_124\n        /* \"#utility.yul\":6044:6047   */\n      dup3\n        /* \"#utility.yul\":5955:6048   */\n      tag_75\n      jump\t// in\n    tag_124:\n        /* \"#utility.yul\":6073:6075   */\n      0x20\n        /* \"#utility.yul\":6068:6071   */\n      dup3\n        /* \"#utility.yul\":6064:6076   */\n      add\n        /* \"#utility.yul\":6057:6076   */\n      swap1\n      pop\n        /* \"#utility.yul\":5716:6082   */\n      swap2\n      swap1\n      pop\n      jump\t// out\n        /* \"#utility.yul\":6088:6507   */\n    tag_51:\n        /* \"#utility.yul\":6254:6258   */\n      0x00\n        /* \"#utility.yul\":6292:6294   */\n      0x20\n        /* \"#utility.yul\":6281:6290   */\n      dup3\n        /* \"#utility.yul\":6277:6295   */\n      add\n        /* \"#utility.yul\":6269:6295   */\n      swap1\n      pop\n        /* \"#utility.yul\":6341:6350   */\n      dup2\n        /* \"#utility.yul\":6335:6339   */\n      dup2\n        /* \"#utility.yul\":6331:6351   */\n      sub\n        /* \"#utility.yul\":6327:6328   */\n      0x00\n        /* \"#utility.yul\":6316:6325   */\n      dup4\n        /* \"#utility.yul\":6312:6329   */\n      add\n        /* \"#utility.yul\":6305:6352   */\n      mstore\n        /* \"#utility.yul\":6369:6500   */\n      tag_126\n        /* \"#utility.yul\":6495:6499   */\n      dup2\n        /* \"#utility.yul\":6369:6500   */\n      tag_76\n      jump\t// in\n    tag_126:\n        /* \"#utility.yul\":6361:6500   */\n      swap1\n      pop\n        /* \"#utility.yul\":6088:6507   */\n      swap2\n      swap1\n      pop\n      jump\t// out\n\n    auxdata: 0xa26469706673582212202055dc50faae3cea2a56ed90f1a5a147b9eac1695465c4a4d53dd70c51e818b764736f6c634300081a0033\n}\n",
				"bytecode": {
					"linkReferences": {},
					"object": "60a0604052348015600e575f80fd5b503373ffffffffffffffffffffffffffffffffffffffff1660808173ffffffffffffffffffffffffffffffffffffffff16815250506080516107746100705f395f8181610176015281816102510152818161037b01526103b601526107745ff3fe60806040526004361061004c575f3560e01c806279efb0146100c757806312065fe0146100dd5780634fa3eeff146101075780638da5cb5b1461011d578063ea98847b146101475761008c565b3661008c577ff7f75251dee7d7fc22deac3247729ebe7c86541f35930bf10c2a4207479a3b6c3334604051610082929190610591565b60405180910390a1005b7ff7f75251dee7d7fc22deac3247729ebe7c86541f35930bf10c2a4207479a3b6c33346040516100bd929190610591565b60405180910390a1005b3480156100d2575f80fd5b506100db61015d565b005b3480156100e8575f80fd5b506100f1610231565b6040516100fe91906105de565b60405180910390f35b348015610112575f80fd5b5061011b610238565b005b348015610128575f80fd5b50610131610379565b60405161013e9190610617565b60405180910390f35b348015610152575f80fd5b5061015b61039d565b005b3373ffffffffffffffffffffffffffffffffffffffff167f000000000000000000000000000000000000000000000000000000000000000073ffffffffffffffffffffffffffffffffffffffff16146101eb576040517f08c379a00000000000000000000000000000000000000000000000000000000081526004016101e29061067a565b60405180910390fd5b3373ffffffffffffffffffffffffffffffffffffffff166108fc4790811502906040515f60405180830381858888f1935050505015801561022e573d5f803e3d5ffd5b50565b5f47905090565b3373ffffffffffffffffffffffffffffffffffffffff167f000000000000000000000000000000000000000000000000000000000000000073ffffffffffffffffffffffffffffffffffffffff16146102c6576040517f08c379a00000000000000000000000000000000000000000000000000000000081526004016102bd9061067a565b60405180910390fd5b5f3373ffffffffffffffffffffffffffffffffffffffff1660c86040516102ec906106c2565b5f6040518083038185875af1925050503d805f8114610326576040519150601f19603f3d011682016040523d82523d5f602084013e61032b565b606091505b505090506001151581151514610376576040517f08c379a000000000000000000000000000000000000000000000000000000000815260040161036d90610720565b60405180910390fd5b50565b7f000000000000000000000000000000000000000000000000000000000000000081565b3373ffffffffffffffffffffffffffffffffffffffff167f000000000000000000000000000000000000000000000000000000000000000073ffffffffffffffffffffffffffffffffffffffff161461042b576040517f08c379a00000000000000000000000000000000000000000000000000000000081526004016104229061067a565b60405180910390fd5b5f3373ffffffffffffffffffffffffffffffffffffffff166108fc60c890811502906040515f60405180830381858888f19350505050905060011515811515146104aa576040517f08c379a00000000000000000000000000000000000000000000000000000000081526004016104a190610720565b60405180910390fd5b50565b5f82825260208201905092915050565b7f72656365697665000000000000000000000000000000000000000000000000005f82015250565b5f6104f16007836104ad565b91506104fc826104bd565b602082019050919050565b5f73ffffffffffffffffffffffffffffffffffffffff82169050919050565b5f61053082610507565b9050919050565b61054081610526565b82525050565b5f819050919050565b61055881610546565b82525050565b5f82825260208201905092915050565b50565b5f61057c5f8361055e565b91506105878261056e565b5f82019050919050565b5f6080820190508181035f8301526105a8816104e5565b90506105b76020830185610537565b6105c4604083018461054f565b81810360608301526105d581610571565b90509392505050565b5f6020820190506105f15f83018461054f565b92915050565b5f61060182610507565b9050919050565b610611816105f7565b82525050565b5f60208201905061062a5f830184610608565b92915050565b7f6e6f74206f6e77657200000000000000000000000000000000000000000000005f82015250565b5f6106646009836104ad565b915061066f82610630565b602082019050919050565b5f6020820190508181035f83015261069181610658565b9050919050565b5f81905092915050565b5f6106ad5f83610698565b91506106b88261056e565b5f82019050919050565b5f6106cc826106a2565b9150819050919050565b7f6661696c20746f207769746864726177210000000000000000000000000000005f82015250565b5f61070a6011836104ad565b9150610715826106d6565b602082019050919050565b5f6020820190508181035f830152610737816106fe565b905091905056fea26469706673582212202055dc50faae3cea2a56ed90f1a5a147b9eac1695465c4a4d53dd70c51e818b764736f6c634300081a0033",
					"opcodes": "PUSH1 0xA0 PUSH1 0x40 MSTORE CALLVALUE DUP1 ISZERO PUSH1 0xE JUMPI PUSH0 DUP1 REVERT JUMPDEST POP CALLER PUSH20 0xFFFFFFFFFFFFFFFFFFFFFFFFFFFFFFFFFFFFFFFF AND PUSH1 0x80 DUP2 PUSH20 0xFFFFFFFFFFFFFFFFFFFFFFFFFFFFFFFFFFFFFFFF AND DUP2 MSTORE POP POP PUSH1 0x80 MLOAD PUSH2 0x774 PUSH2 0x70 PUSH0 CODECOPY PUSH0 DUP2 DUP2 PUSH2 0x176 ADD MSTORE DUP2 DUP2 PUSH2 0x251 ADD MSTORE DUP2 DUP2 PUSH2 0x37B ADD MSTORE PUSH2 0x3B6 ADD MSTORE PUSH2 0x774 PUSH0 RETURN INVALID PUSH1 0x80 PUSH1 0x40 MSTORE PUSH1 0x4 CALLDATASIZE LT PUSH2 0x4C JUMPI PUSH0 CALLDATALOAD PUSH1 0xE0 SHR DUP1 PUSH3 0x79EFB0 EQ PUSH2 0xC7 JUMPI DUP1 PUSH4 0x12065FE0 EQ PUSH2 0xDD JUMPI DUP1 PUSH4 0x4FA3EEFF EQ PUSH2 0x107 JUMPI DUP1 PUSH4 0x8DA5CB5B EQ PUSH2 0x11D JUMPI DUP1 PUSH4 0xEA98847B EQ PUSH2 0x147 JUMPI PUSH2 0x8C JUMP JUMPDEST CALLDATASIZE PUSH2 0x8C JUMPI PUSH32 0xF7F75251DEE7D7FC22DEAC3247729EBE7C86541F35930BF10C2A4207479A3B6C CALLER CALLVALUE PUSH1 0x40 MLOAD PUSH2 0x82 SWAP3 SWAP2 SWAP1 PUSH2 0x591 JUMP JUMPDEST PUSH1 0x40 MLOAD DUP1 SWAP2 SUB SWAP1 LOG1 STOP JUMPDEST PUSH32 0xF7F75251DEE7D7FC22DEAC3247729EBE7C86541F35930BF10C2A4207479A3B6C CALLER CALLVALUE PUSH1 0x40 MLOAD PUSH2 0xBD SWAP3 SWAP2 SWAP1 PUSH2 0x591 JUMP JUMPDEST PUSH1 0x40 MLOAD DUP1 SWAP2 SUB SWAP1 LOG1 STOP JUMPDEST CALLVALUE DUP1 ISZERO PUSH2 0xD2 JUMPI PUSH0 DUP1 REVERT JUMPDEST POP PUSH2 0xDB PUSH2 0x15D JUMP JUMPDEST STOP JUMPDEST CALLVALUE DUP1 ISZERO PUSH2 0xE8 JUMPI PUSH0 DUP1 REVERT JUMPDEST POP PUSH2 0xF1 PUSH2 0x231 JUMP JUMPDEST PUSH1 0x40 MLOAD PUSH2 0xFE SWAP2 SWAP1 PUSH2 0x5DE JUMP JUMPDEST PUSH1 0x40 MLOAD DUP1 SWAP2 SUB SWAP1 RETURN JUMPDEST CALLVALUE DUP1 ISZERO PUSH2 0x112 JUMPI PUSH0 DUP1 REVERT JUMPDEST POP PUSH2 0x11B PUSH2 0x238 JUMP JUMPDEST STOP JUMPDEST CALLVALUE DUP1 ISZERO PUSH2 0x128 JUMPI PUSH0 DUP1 REVERT JUMPDEST POP PUSH2 0x131 PUSH2 0x379 JUMP JUMPDEST PUSH1 0x40 MLOAD PUSH2 0x13E SWAP2 SWAP1 PUSH2 0x617 JUMP JUMPDEST PUSH1 0x40 MLOAD DUP1 SWAP2 SUB SWAP1 RETURN JUMPDEST CALLVALUE DUP1 ISZERO PUSH2 0x152 JUMPI PUSH0 DUP1 REVERT JUMPDEST POP PUSH2 0x15B PUSH2 0x39D JUMP JUMPDEST STOP JUMPDEST CALLER PUSH20 0xFFFFFFFFFFFFFFFFFFFFFFFFFFFFFFFFFFFFFFFF AND PUSH32 0x0 PUSH20 0xFFFFFFFFFFFFFFFFFFFFFFFFFFFFFFFFFFFFFFFF AND EQ PUSH2 0x1EB JUMPI PUSH1 0x40 MLOAD PUSH32 0x8C379A000000000000000000000000000000000000000000000000000000000 DUP2 MSTORE PUSH1 0x4 ADD PUSH2 0x1E2 SWAP1 PUSH2 0x67A JUMP JUMPDEST PUSH1 0x40 MLOAD DUP1 SWAP2 SUB SWAP1 REVERT JUMPDEST CALLER PUSH20 0xFFFFFFFFFFFFFFFFFFFFFFFFFFFFFFFFFFFFFFFF AND PUSH2 0x8FC SELFBALANCE SWAP1 DUP2 ISZERO MUL SWAP1 PUSH1 0x40 MLOAD PUSH0 PUSH1 0x40 MLOAD DUP1 DUP4 SUB DUP2 DUP6 DUP9 DUP9 CALL SWAP4 POP POP POP POP ISZERO DUP1 ISZERO PUSH2 0x22E JUMPI RETURNDATASIZE PUSH0 DUP1 RETURNDATACOPY RETURNDATASIZE PUSH0 REVERT JUMPDEST POP JUMP JUMPDEST PUSH0 SELFBALANCE SWAP1 POP SWAP1 JUMP JUMPDEST CALLER PUSH20 0xFFFFFFFFFFFFFFFFFFFFFFFFFFFFFFFFFFFFFFFF AND PUSH32 0x0 PUSH20 0xFFFFFFFFFFFFFFFFFFFFFFFFFFFFFFFFFFFFFFFF AND EQ PUSH2 0x2C6 JUMPI PUSH1 0x40 MLOAD PUSH32 0x8C379A000000000000000000000000000000000000000000000000000000000 DUP2 MSTORE PUSH1 0x4 ADD PUSH2 0x2BD SWAP1 PUSH2 0x67A JUMP JUMPDEST PUSH1 0x40 MLOAD DUP1 SWAP2 SUB SWAP1 REVERT JUMPDEST PUSH0 CALLER PUSH20 0xFFFFFFFFFFFFFFFFFFFFFFFFFFFFFFFFFFFFFFFF AND PUSH1 0xC8 PUSH1 0x40 MLOAD PUSH2 0x2EC SWAP1 PUSH2 0x6C2 JUMP JUMPDEST PUSH0 PUSH1 0x40 MLOAD DUP1 DUP4 SUB DUP2 DUP6 DUP8 GAS CALL SWAP3 POP POP POP RETURNDATASIZE DUP1 PUSH0 DUP2 EQ PUSH2 0x326 JUMPI PUSH1 0x40 MLOAD SWAP2 POP PUSH1 0x1F NOT PUSH1 0x3F RETURNDATASIZE ADD AND DUP3 ADD PUSH1 0x40 MSTORE RETURNDATASIZE DUP3 MSTORE RETURNDATASIZE PUSH0 PUSH1 0x20 DUP5 ADD RETURNDATACOPY PUSH2 0x32B JUMP JUMPDEST PUSH1 0x60 SWAP2 POP JUMPDEST POP POP SWAP1 POP PUSH1 0x1 ISZERO ISZERO DUP2 ISZERO ISZERO EQ PUSH2 0x376 JUMPI PUSH1 0x40 MLOAD PUSH32 0x8C379A000000000000000000000000000000000000000000000000000000000 DUP2 MSTORE PUSH1 0x4 ADD PUSH2 0x36D SWAP1 PUSH2 0x720 JUMP JUMPDEST PUSH1 0x40 MLOAD DUP1 SWAP2 SUB SWAP1 REVERT JUMPDEST POP JUMP JUMPDEST PUSH32 0x0 DUP2 JUMP JUMPDEST CALLER PUSH20 0xFFFFFFFFFFFFFFFFFFFFFFFFFFFFFFFFFFFFFFFF AND PUSH32 0x0 PUSH20 0xFFFFFFFFFFFFFFFFFFFFFFFFFFFFFFFFFFFFFFFF AND EQ PUSH2 0x42B JUMPI PUSH1 0x40 MLOAD PUSH32 0x8C379A000000000000000000000000000000000000000000000000000000000 DUP2 MSTORE PUSH1 0x4 ADD PUSH2 0x422 SWAP1 PUSH2 0x67A JUMP JUMPDEST PUSH1 0x40 MLOAD DUP1 SWAP2 SUB SWAP1 REVERT JUMPDEST PUSH0 CALLER PUSH20 0xFFFFFFFFFFFFFFFFFFFFFFFFFFFFFFFFFFFFFFFF AND PUSH2 0x8FC PUSH1 0xC8 SWAP1 DUP2 ISZERO MUL SWAP1 PUSH1 0x40 MLOAD PUSH0 PUSH1 0x40 MLOAD DUP1 DUP4 SUB DUP2 DUP6 DUP9 DUP9 CALL SWAP4 POP POP POP POP SWAP1 POP PUSH1 0x1 ISZERO ISZERO DUP2 ISZERO ISZERO EQ PUSH2 0x4AA JUMPI PUSH1 0x40 MLOAD PUSH32 0x8C379A000000000000000000000000000000000000000000000000000000000 DUP2 MSTORE PUSH1 0x4 ADD PUSH2 0x4A1 SWAP1 PUSH2 0x720 JUMP JUMPDEST PUSH1 0x40 MLOAD DUP1 SWAP2 SUB SWAP1 REVERT JUMPDEST POP JUMP JUMPDEST PUSH0 DUP3 DUP3 MSTORE PUSH1 0x20 DUP3 ADD SWAP1 POP SWAP3 SWAP2 POP POP JUMP JUMPDEST PUSH32 0x7265636569766500000000000000000000000000000000000000000000000000 PUSH0 DUP3 ADD MSTORE POP JUMP JUMPDEST PUSH0 PUSH2 0x4F1 PUSH1 0x7 DUP4 PUSH2 0x4AD JUMP JUMPDEST SWAP2 POP PUSH2 0x4FC DUP3 PUSH2 0x4BD JUMP JUMPDEST PUSH1 0x20 DUP3 ADD SWAP1 POP SWAP2 SWAP1 POP JUMP JUMPDEST PUSH0 PUSH20 0xFFFFFFFFFFFFFFFFFFFFFFFFFFFFFFFFFFFFFFFF DUP3 AND SWAP1 POP SWAP2 SWAP1 POP JUMP JUMPDEST PUSH0 PUSH2 0x530 DUP3 PUSH2 0x507 JUMP JUMPDEST SWAP1 POP SWAP2 SWAP1 POP JUMP JUMPDEST PUSH2 0x540 DUP2 PUSH2 0x526 JUMP JUMPDEST DUP3 MSTORE POP POP JUMP JUMPDEST PUSH0 DUP2 SWAP1 POP SWAP2 SWAP1 POP JUMP JUMPDEST PUSH2 0x558 DUP2 PUSH2 0x546 JUMP JUMPDEST DUP3 MSTORE POP POP JUMP JUMPDEST PUSH0 DUP3 DUP3 MSTORE PUSH1 0x20 DUP3 ADD SWAP1 POP SWAP3 SWAP2 POP POP JUMP JUMPDEST POP JUMP JUMPDEST PUSH0 PUSH2 0x57C PUSH0 DUP4 PUSH2 0x55E JUMP JUMPDEST SWAP2 POP PUSH2 0x587 DUP3 PUSH2 0x56E JUMP JUMPDEST PUSH0 DUP3 ADD SWAP1 POP SWAP2 SWAP1 POP JUMP JUMPDEST PUSH0 PUSH1 0x80 DUP3 ADD SWAP1 POP DUP2 DUP2 SUB PUSH0 DUP4 ADD MSTORE PUSH2 0x5A8 DUP2 PUSH2 0x4E5 JUMP JUMPDEST SWAP1 POP PUSH2 0x5B7 PUSH1 0x20 DUP4 ADD DUP6 PUSH2 0x537 JUMP JUMPDEST PUSH2 0x5C4 PUSH1 0x40 DUP4 ADD DUP5 PUSH2 0x54F JUMP JUMPDEST DUP2 DUP2 SUB PUSH1 0x60 DUP4 ADD MSTORE PUSH2 0x5D5 DUP2 PUSH2 0x571 JUMP JUMPDEST SWAP1 POP SWAP4 SWAP3 POP POP POP JUMP JUMPDEST PUSH0 PUSH1 0x20 DUP3 ADD SWAP1 POP PUSH2 0x5F1 PUSH0 DUP4 ADD DUP5 PUSH2 0x54F JUMP JUMPDEST SWAP3 SWAP2 POP POP JUMP JUMPDEST PUSH0 PUSH2 0x601 DUP3 PUSH2 0x507 JUMP JUMPDEST SWAP1 POP SWAP2 SWAP1 POP JUMP JUMPDEST PUSH2 0x611 DUP2 PUSH2 0x5F7 JUMP JUMPDEST DUP3 MSTORE POP POP JUMP JUMPDEST PUSH0 PUSH1 0x20 DUP3 ADD SWAP1 POP PUSH2 0x62A PUSH0 DUP4 ADD DUP5 PUSH2 0x608 JUMP JUMPDEST SWAP3 SWAP2 POP POP JUMP JUMPDEST PUSH32 0x6E6F74206F6E7765720000000000000000000000000000000000000000000000 PUSH0 DUP3 ADD MSTORE POP JUMP JUMPDEST PUSH0 PUSH2 0x664 PUSH1 0x9 DUP4 PUSH2 0x4AD JUMP JUMPDEST SWAP2 POP PUSH2 0x66F DUP3 PUSH2 0x630 JUMP JUMPDEST PUSH1 0x20 DUP3 ADD SWAP1 POP SWAP2 SWAP1 POP JUMP JUMPDEST PUSH0 PUSH1 0x20 DUP3 ADD SWAP1 POP DUP2 DUP2 SUB PUSH0 DUP4 ADD MSTORE PUSH2 0x691 DUP2 PUSH2 0x658 JUMP JUMPDEST SWAP1 POP SWAP2 SWAP1 POP JUMP JUMPDEST PUSH0 DUP2 SWAP1 POP SWAP3 SWAP2 POP POP JUMP JUMPDEST PUSH0 PUSH2 0x6AD PUSH0 DUP4 PUSH2 0x698 JUMP JUMPDEST SWAP2 POP PUSH2 0x6B8 DUP3 PUSH2 0x56E JUMP JUMPDEST PUSH0 DUP3 ADD SWAP1 POP SWAP2 SWAP1 POP JUMP JUMPDEST PUSH0 PUSH2 0x6CC DUP3 PUSH2 0x6A2 JUMP JUMPDEST SWAP2 POP DUP2 SWAP1 POP SWAP2 SWAP1 POP JUMP JUMPDEST PUSH32 0x6661696C20746F20776974686472617721000000000000000000000000000000 PUSH0 DUP3 ADD MSTORE POP JUMP JUMPDEST PUSH0 PUSH2 0x70A PUSH1 0x11 DUP4 PUSH2 0x4AD JUMP JUMPDEST SWAP2 POP PUSH2 0x715 DUP3 PUSH2 0x6D6 JUMP JUMPDEST PUSH1 0x20 DUP3 ADD SWAP1 POP SWAP2 SWAP1 POP JUMP JUMPDEST PUSH0 PUSH1 0x20 DUP3 ADD SWAP1 POP DUP2 DUP2 SUB PUSH0 DUP4 ADD MSTORE PUSH2 0x737 DUP2 PUSH2 0x6FE JUMP JUMPDEST SWAP1 POP SWAP2 SWAP1 POP JUMP INVALID LOG2 PUSH5 0x6970667358 0x22 SLT KECCAK256 KECCAK256 SSTORE 0xDC POP STATICCALL 0xAE EXTCODECOPY 0xEA 0x2A JUMP 0xED SWAP1 CALL 0xA5 LOG1 SELFBALANCE 0xB9 0xEA 0xC1 PUSH10 0x5465C4A4D53DD70C51E8 XOR 0xB7 PUSH5 0x736F6C6343 STOP ADDMOD BYTE STOP CALLER "
				},
				"gasEstimates": {
					"creation": {
						"codeDepositCost": "381600",
						"executionCost": "infinite",
						"totalCost": "infinite"
					},
					"external": {
						"": "3423",
						"getBalance()": "334",
						"owner()": "infinite",
						"withdraw1()": "infinite",
						"withdraw2()": "infinite",
						"withdraw3()": "infinite"
					}
				},
				"methodIdentifiers": {
					"getBalance()": "12065fe0",
					"owner()": "8da5cb5b",
					"withdraw1()": "0079efb0",
					"withdraw2()": "ea98847b",
					"withdraw3()": "4fa3eeff"
				}
			},
			"storageLayout": {
				"storage": [],
				"types": null
			},
			"userdoc": {
				"kind": "user",
				"methods": {},
				"version": 1
			}
		}
	}
}