{
	"data": {
		"bytecode": {
			"linkReferences": {},
			"object": "6080604052348015600e575f80fd5b506103218061001c5f395ff3fe608060405234801561000f575f80fd5b506004361061003f575f3560e01c8063688ec51c1461004357806375f7286c1461005f578063dfa6eff21461007b575b5f80fd5b61005d600480360381019061005891906101aa565b610097565b005b610079600480360381019061007491906101aa565b6100dd565b005b610095600480360381019061009091906101aa565b61012c565b005b600a81116100da576040517f08c379a00000000000000000000000000000000000000000000000000000000081526004016100d19061022f565b60405180910390fd5b50565b5f479050818110156101285780826040517fcf47918100000000000000000000000000000000000000000000000000000000815260040161011f92919061025c565b60405180910390fd5b5050565b600a811015610170576040517f08c379a0000000000000000000000000000000000000000000000000000000008152600401610167906102cd565b60405180910390fd5b50565b5f80fd5b5f819050919050565b61018981610177565b8114610193575f80fd5b50565b5f813590506101a481610180565b92915050565b5f602082840312156101bf576101be610173565b5b5f6101cc84828501610196565b91505092915050565b5f82825260208201905092915050565b7f69206e656564203e3130000000000000000000000000000000000000000000005f82015250565b5f610219600a836101d5565b9150610224826101e5565b602082019050919050565b5f6020820190508181035f8301526102468161020d565b9050919050565b61025681610177565b82525050565b5f60408201905061026f5f83018561024d565b61027c602083018461024d565b9392505050565b7f69206d757374206e656564203e203130000000000000000000000000000000005f82015250565b5f6102b76010836101d5565b91506102c282610283565b602082019050919050565b5f6020820190508181035f8301526102e4816102ab565b905091905056fea2646970667358221220e40c972e68c8e3e7d8781372d2db4eff4fa5fd6d918100c2ce31b76ba955ab4d64736f6c634300081a0033",
			"opcodes": "PUSH1 0x80 PUSH1 0x40 MSTORE CALLVALUE DUP1 ISZERO PUSH1 0xE JUMPI PUSH0 DUP1 REVERT JUMPDEST POP PUSH2 0x321 DUP1 PUSH2 0x1C PUSH0 CODECOPY PUSH0 RETURN INVALID PUSH1 0x80 PUSH1 0x40 MSTORE CALLVALUE DUP1 ISZERO PUSH2 0xF JUMPI PUSH0 DUP1 REVERT JUMPDEST POP PUSH1 0x4 CALLDATASIZE LT PUSH2 0x3F JUMPI PUSH0 CALLDATALOAD PUSH1 0xE0 SHR DUP1 PUSH4 0x688EC51C EQ PUSH2 0x43 JUMPI DUP1 PUSH4 0x75F7286C EQ PUSH2 0x5F JUMPI DUP1 PUSH4 0xDFA6EFF2 EQ PUSH2 0x7B JUMPI JUMPDEST PUSH0 DUP1 REVERT JUMPDEST PUSH2 0x5D PUSH1 0x4 DUP1 CALLDATASIZE SUB DUP2 ADD SWAP1 PUSH2 0x58 SWAP2 SWAP1 PUSH2 0x1AA JUMP JUMPDEST PUSH2 0x97 JUMP JUMPDEST STOP JUMPDEST PUSH2 0x79 PUSH1 0x4 DUP1 CALLDATASIZE SUB DUP2 ADD SWAP1 PUSH2 0x74 SWAP2 SWAP1 PUSH2 0x1AA JUMP JUMPDEST PUSH2 0xDD JUMP JUMPDEST STOP JUMPDEST PUSH2 0x95 PUSH1 0x4 DUP1 CALLDATASIZE SUB DUP2 ADD SWAP1 PUSH2 0x90 SWAP2 SWAP1 PUSH2 0x1AA JUMP JUMPDEST PUSH2 0x12C JUMP JUMPDEST STOP JUMPDEST PUSH1 0xA DUP2 GT PUSH2 0xDA JUMPI PUSH1 0x40 MLOAD PUSH32 0x8C379A000000000000000000000000000000000000000000000000000000000 DUP2 MSTORE PUSH1 0x4 ADD PUSH2 0xD1 SWAP1 PUSH2 0x22F JUMP JUMPDEST PUSH1 0x40 MLOAD DUP1 SWAP2 SUB SWAP1 REVERT JUMPDEST POP JUMP JUMPDEST PUSH0 SELFBALANCE SWAP1 POP DUP2 DUP2 LT ISZERO PUSH2 0x128 JUMPI DUP1 DUP3 PUSH1 0x40 MLOAD PUSH32 0xCF47918100000000000000000000000000000000000000000000000000000000 DUP2 MSTORE PUSH1 0x4 ADD PUSH2 0x11F SWAP3 SWAP2 SWAP1 PUSH2 0x25C JUMP JUMPDEST PUSH1 0x40 MLOAD DUP1 SWAP2 SUB SWAP1 REVERT JUMPDEST POP POP JUMP JUMPDEST PUSH1 0xA DUP2 LT ISZERO PUSH2 0x170 JUMPI PUSH1 0x40 MLOAD PUSH32 0x8C379A000000000000000000000000000000000000000000000000000000000 DUP2 MSTORE PUSH1 0x4 ADD PUSH2 0x167 SWAP1 PUSH2 0x2CD JUMP JUMPDEST PUSH1 0x40 MLOAD DUP1 SWAP2 SUB SWAP1 REVERT JUMPDEST POP JUMP JUMPDEST PUSH0 DUP1 REVERT JUMPDEST PUSH0 DUP2 SWAP1 POP SWAP2 SWAP1 POP JUMP JUMPDEST PUSH2 0x189 DUP2 PUSH2 0x177 JUMP JUMPDEST DUP2 EQ PUSH2 0x193 JUMPI PUSH0 DUP1 REVERT JUMPDEST POP JUMP JUMPDEST PUSH0 DUP2 CALLDATALOAD SWAP1 POP PUSH2 0x1A4 DUP2 PUSH2 0x180 JUMP JUMPDEST SWAP3 SWAP2 POP POP JUMP JUMPDEST PUSH0 PUSH1 0x20 DUP3 DUP5 SUB SLT ISZERO PUSH2 0x1BF JUMPI PUSH2 0x1BE PUSH2 0x173 JUMP JUMPDEST JUMPDEST PUSH0 PUSH2 0x1CC DUP5 DUP3 DUP6 ADD PUSH2 0x196 JUMP JUMPDEST SWAP2 POP POP SWAP3 SWAP2 POP POP JUMP JUMPDEST PUSH0 DUP3 DUP3 MSTORE PUSH1 0x20 DUP3 ADD SWAP1 POP SWAP3 SWAP2 POP POP JUMP JUMPDEST PUSH32 0x69206E656564203E313000000000000000000000000000000000000000000000 PUSH0 DUP3 ADD MSTORE POP JUMP JUMPDEST PUSH0 PUSH2 0x219 PUSH1 0xA DUP4 PUSH2 0x1D5 JUMP JUMPDEST SWAP2 POP PUSH2 0x224 DUP3 PUSH2 0x1E5 JUMP JUMPDEST PUSH1 0x20 DUP3 ADD SWAP1 POP SWAP2 SWAP1 POP JUMP JUMPDEST PUSH0 PUSH1 0x20 DUP3 ADD SWAP1 POP DUP2 DUP2 SUB PUSH0 DUP4 ADD MSTORE PUSH2 0x246 DUP2 PUSH2 0x20D JUMP JUMPDEST SWAP1 POP SWAP2 SWAP1 POP JUMP JUMPDEST PUSH2 0x256 DUP2 PUSH2 0x177 JUMP JUMPDEST DUP3 MSTORE POP POP JUMP JUMPDEST PUSH0 PUSH1 0x40 DUP3 ADD SWAP1 POP PUSH2 0x26F PUSH0 DUP4 ADD DUP6 PUSH2 0x24D JUMP JUMPDEST PUSH2 0x27C PUSH1 0x20 DUP4 ADD DUP5 PUSH2 0x24D JUMP JUMPDEST SWAP4 SWAP3 POP POP POP JUMP JUMPDEST PUSH32 0x69206D757374206E656564203E20313000000000000000000000000000000000 PUSH0 DUP3 ADD MSTORE POP JUMP JUMPDEST PUSH0 PUSH2 0x2B7 PUSH1 0x10 DUP4 PUSH2 0x1D5 JUMP JUMPDEST SWAP2 POP PUSH2 0x2C2 DUP3 PUSH2 0x283 JUMP JUMPDEST PUSH1 0x20 DUP3 ADD SWAP1 POP SWAP2 SWAP1 POP JUMP JUMPDEST PUSH0 PUSH1 0x20 DUP3 ADD SWAP1 POP DUP2 DUP2 SUB PUSH0 DUP4 ADD MSTORE PUSH2 0x2E4 DUP2 PUSH2 0x2AB JUMP JUMPDEST SWAP1 POP SWAP2 SWAP1 POP JUMP INVALID LOG2 PUSH5 0x6970667358 0x22 SLT KECCAK256 0xE4 0xC SWAP8 0x2E PUSH9 0xC8E3E7D8781372D2DB 0x4E SELFDESTRUCT 0x4F 0xA5 REVERT PUSH14 0x918100C2CE31B76BA955AB4D6473 PUSH16 0x6C634300081A00330000000000000000 "
		},
		"gasEstimates": {
			"creation": {
				"codeDepositCost": "160200",
				"executionCost": "206",
				"totalCost": "160406"
			},
			"external": {
				"testCustomError(uint256)": "infinite",
				"testrequire(uint256)": "684",
				"testrevert(uint256)": "731"
			}
		},
		"methodIdentifiers": {
			"testCustomError(uint256)": "75f7286c",
			"testrequire(uint256)": "688ec51c",
			"testrevert(uint256)": "dfa6eff2"
		}
	},
	"abi": [
		{
			"inputs": [
				{
					"internalType": "uint256",
					"name": "balance",
					"type": "uint256"
				},
				{
					"internalType": "uint256",
					"name": "withdrawAmount",
					"type": "uint256"
				}
			],
			"name": "InsufficientBalance",
			"type": "error"
		},
		{
			"inputs": [
				{
					"internalType": "uint256",
					"name": "_withdrawAmount",
					"type": "uint256"
				}
			],
			"name": "testCustomError",
			"outputs": [],
			"stateMutability": "view",
			"type": "function"
		},
		{
			"inputs": [
				{
					"internalType": "uint256",
					"name": "i",
					"type": "uint256"
				}
			],
			"name": "testrequire",
			"outputs": [],
			"stateMutability": "pure",
			"type": "function"
		},
		{
			"inputs": [
				{
					"internalType": "uint256",
					"name": "_i",
					"type": "uint256"
				}
			],
			"name": "testrevert",
			"outputs": [],
			"stateMutability": "pure",
			"type": "function"
		}
	]
}